:020000040800F2
:1000000090050020D9010008193D00086D2C00085A
:10001000153D000895070008C93E000800000000D3
:10002000000000000000000000000000213D00086A
:1000300075090008000000001D3D0008253D00086E
:10004000F3010008F3010008F3010008F3010008C0
:10005000F3010008F3010008F3010008F3010008B0
:10006000F3010008F3010008F30100085D0900082E
:10007000F3010008F3010008F3010008F301000890
:10008000F301000869090008F3010008F301000802
:10009000F3010008F3010008F3010008F301000870
:1000A000F3010008F3010008F3010008F301000860
:1000B000F3010008F3010008F30100087D2C00089B
:1000C000712C0008F3010008F3010008F301000897
:1000D000F3010008F3010008F3010008F301000830
:1000E00079090008F3010008F3010008F301000892
:1000F000F3010008F3010008F3010008F301000810
:10010000F3010008F3010008F3010008F3010008FF
:10011000F3010008F3010008F3010008F3010008EF
:10012000F3010008F3010008F3010008F3010008DF
:10013000F30100080000000000000000F3010008C7
:10014000F3010008F3010008F3010008F3010008BF
:10015000F3010008F3010008F3010008F3010008AF
:10016000F3010008F3010008F3010008F30100089F
:10017000F3010008F3010008F3010008000000008B
:1001800000000000F3010008000000000000000073
:10019000F30100080000000000000000F301000867
:1001A000000000000000000000000000F301000853
:1001B000F3010008F3010008F3010008F30100084F
:1001C000F3010008DFF80CD000F05CFA00480047AB
:1001D000ED3E00089005002006488047064800478D
:1001E000FEE7FEE7FEE7FEE7FEE7FEE7FEE7FEE7E7
:1001F000FEE7FEE7CD3D0008C50100082DE9F05FF0
:100200000546002092469B46884606468146402485
:100210001BE0284641464746224600F06AF853460E
:100220005A46C01A914110D311461846224600F092
:1002300051F82D1A67EB01084F4622460120002194
:1002400000F048F817EB00094E41201EA4F101040C
:10025000DFDC484631462A464346BDE8F09FD2B22D
:1002600001E000F8012B491EFBD270470022F6E79F
:1002700010B513460A4604461946FFF7F0FF20461C
:1002800010BD00F0004230F000400AD0C10D01F571
:100290006071C0F3160042EA0151C20840071143E1
:1002A000704700200146704730B50B4601460020DC
:1002B0002022012409E021FA02F59D4205D303FA28
:1002C00002F5491B04FA02F52844151EA2F10102A9
:1002D000F1DC30BD202A04DB203A00FA02F10020D4
:1002E00070479140C2F1200320FA03F31943904074
:1002F0007047202A04DB203A21FA02F000217047DF
:1003000021FA02F3D040C2F120029140084319467D
:1003100070472DE9FE4F804681EA0300C00F0C466E
:10032000009021F0004123F00045B8EB0200A94104
:1003300005D24046214690461C460B46024623F015
:100340000040104347D0270DC7F30A00C3F30A51FA
:100350000290401A019040286BDAC3F3130040F476
:10036000801B0098924620B10023D2EB030A63EB76
:100370000B0B01985946C0F140025046FFF7AAFF07
:1003800006460D4650465946019A00F093F910EB87
:1003900008006141002487EA115284EAE7731A4396
:1003A00040D0009A62B3019A012A4FEA075215DC45
:1003B000001B61EB02014FF0004202EA0752CDE957
:1003C0000042001C41F5801132462B4600F093F9A3
:1003D00003B0BDE8F08F40462146F9E7001B61EB12
:1003E0000201001C41F5801300185B412018A2F5A2
:1003F000001747EB030140EAD570B6196D4111E0D3
:100400006D084FEA360645EAC0754FEA0752001BF1
:1004100061EB0201001C41F5801149084FEA3000F0
:100420000019514132462B4603B0BDE8F04F00F0B1
:1004300053B90098012240000023D0EB020263EB85
:10044000E073009821464FEAE074B8EB000061EBDE
:100450000401E9E783F000435BE781F0004158E7DE
:100460002DE9FE4F81EA030404F0004421F000412D
:1004700000944FF0000B23F0004350EA01045ED0DB
:1004800052EA03045BD0C3F30A54C1F30A552C4467
:10049000A4F2F3340194A0FB0254C1F3130141F41C
:1004A0008011C3F3130343F4801301FB024400FBE8
:1004B000034E840A970A44EA815447EA8357A4FB0F
:1004C000076802958D0A05FB07854FEA932C04FB0C
:1004D0000C542705029D4FEA065847EA1637B5EB3C
:1004E00008056EEB070C870E920E47EA811742EA69
:1004F0008312A7FB0201B6EB0B0164EB00042B0D8A
:1005000043EA0C335E1844EB1C50DA465146E7FBD5
:100510000201C5F313044FEA0B3343EA14534FEAC5
:100520000432019C43EA0603A4F10C040294009CEB
:10053000CDE900B400F0DFF803B0BDE8F08F002093
:100540000146F9E72DE9F04D81EA030404F0004B80
:1005500021F0004514464FF0000A23F0004150EA14
:10056000050220D054EA01021DD0C5F30A57024605
:10057000C5F31303C1F31300C1F30A5640F4801509
:1005800043F48013A7EB0608101BD64608F2FD388B
:1005900073EB050002D308F1010801E092185B41FA
:1005A000B8F1000F03DA00200146BDE8F08D00200D
:1005B0004FF48011064684460EE0171B73EB0507C7
:1005C00005D3121B63EB050306434CEA010C4908F3
:1005D0004FEA300092185B4150EA0107EDD152EA30
:1005E000030012D082EA040083EA0501084305D023
:1005F000101BAB4106D20122002306E000224FF07F
:10060000004302E06FF0010253101AEB06004CEBBE
:10061000085110EB0A0041EB0B01BDE8F04D00F072
:100620005BB8C1F30A52C1F3130140F2FF3341F446
:1006300080119A4202DA00200146704740F23343AB
:100640009A42A2F2334202DC5242FFF752BEFFF757
:1006500041BE000030B5041E71F1000404DB4FF010
:100660000044404264EB0101141E73F1000405DBF9
:100670001C464FF00043524263EB0403994208BF0B
:10068000904230BD1CB509480090094801900546CC
:10069000009C06E0E06840F0010394E807009847FA
:1006A0001034AC42F6D3FFF791FD0000BC4A0008BD
:1006B000DC4A0008202A06DBCB17203A41FA02F078
:1006C00043EAE07306E041FA02F3D040C2F12002AF
:1006D000914008431946704710B5141E73F1000489
:1006E00008DA401C41F1000192185B411A4301D124
:1006F00020F0010010BD2DE9F04D92469B4611B14E
:10070000B1FA81F202E0B0FA80F220329046FFF7AF
:10071000E1FD04460F4640EA0A0041EA0B01534658
:100720005A46084313D0114653EA010019D0C8F1C4
:1007300040025046FFF7DDFD05460E46504659463D
:100740004246FFF7C7FD084305D0012004E02046DC
:100750003946BDE8F08D0020054346EAE0762C439B
:1007600037430A986305E40AA0EB08000022FD0A5B
:1007700044EA47540A3002D500200146E9E7010562
:1007800010196941DDE9084500196941BDE8F04DDE
:10079000A2E70000FEE7000070B586B080208DF86B
:1007A000170040F2EC004FF0FF3401250DF1170661
:1007B000C2F20000D0216B220123CDE90065029432
:1007C00001F0FAFB18B947A0002103F02BFC6420CC
:1007D00000F0E0FA08208DF8170040F2EC00C2F2B9
:1007E0000000D0216B220123CDE90065029401F0C5
:1007F000E3FB0446642000F0CDFA1CB141A0214681
:1008000003F010FC01250DF11600CDE9000540F2C2
:10081000EC0000264FF0FF34C2F20000D0211B2272
:1008200001238DF81660029401F0C6FB10B141A0BF
:1008300004F072F840F21000C2F200004FF4804160
:1008400001600DF11500CDE9000540F2EC00C2F2A7
:100850000000D0211C2201238DF81560029401F0C4
:10086000ABFB28B144F61120C0F6000004F054F8A8
:1008700002208DF81400012505A8CDE9000540F2FD
:10088000EC004FF0FF34C2F20000D0211A22012305
:10089000029401F091FB28B144F6F110C0F600007B
:1008A00004F03AF80DF11300CDE9000540F2EC0038
:1008B000C2F20000D021382201238DF81350029497
:1008C00001F07AFB28B144F6CD10C0F6000004F028
:1008D00023F844F6A810C0F6000004F01DF806B096
:1008E00070BD00BF7265736574206F6B20505752E6
:1008F0005F4D474D542C20726574203D2025640DBA
:100900000A00000045727265757220646520636F8D
:100910006E66696775726174696F6E205057525FB9
:100920004D474D545F312C20726574203D20256465
:100930000D0A000045727265757220646520636F50
:100940006E66696775726174696F6E204759524FA0
:100950005F434F4E4649470D0000000040F22C0017
:10096000C2F2000000F030B840F28C00C2F2000089
:1009700000F02AB87047000080B54FF4006000F026
:1009800043FA4FF40050BDE8804000F03DBA00004B
:1009900072B600BFFEE7000090F83510022909D1B9
:1009A000052180F835100068016821F0010101601F
:1009B000002070478021416501207047406D7047DD
:1009C00090F8350070470000F0B581B0002100912B
:1009D00040F20C01C2F200010B68D0E9166148F246
:1009E000B51537680822C1F64E358A403A42A3FB56
:1009F00005350CD003681C68640708D51C6824F012
:100A000004041C60B260426D42F0010242650122A2
:100A10008A403A4208D003685B691B0604D5B2607D
:100A2000426D42F00202426504228A403A4208D0F6
:100A300003681B689B0704D5B260426D42F0040254
:100A4000426510228A403A4219D001680B681B07A0
:100A500015D5B2600B680A685B0309D4D20509D4C6
:100A60000A6822F008020A60016C29B907E000BF99
:100A7000110341D4016C11B1044688472046C26D70
:100A8000202101FA02F33B4243D001680F68FF06C0
:100A90003FD5B36090F835700B68052F1CD123F05B
:100AA00016030B604B6923F080034B61036C0BB999
:100AB000836C1BB10B6823F008030B603F2191404E
:100AC000B160012180F83510016D0022002980F805
:100AD000342054D158E000BF0A685B0310D4D2051B
:100AE00012D40A6822F010020A60012180F8351041
:100AF000002180F8341007E0816C0029BCD1BEE7EA
:100B0000110301D4416C00E0C16B11B10446884768
:100B10002046416DC1B3416DC9072ED0052180F833
:100B200035100168AA0A0B6823F001030B60009BD3
:100B30000133934200931AD80B68DB0717D0009B50
:100B400001339342009312D80B68DB070FD0009B50
:100B50000133934200930AD80B68DB0707D0009B50
:100B600001339342009302D80B68DB07DFD10121E8
:100B700080F83510002180F83410C16C21B101B02B
:100B8000BDE8F040084700BF01B0F0BD2DE9F041DD
:100B9000044600F01BFAECB10546022084F835004B
:100BA0000020216884F83400086820F00100086003
:100BB00021680868C00711D000F008FA401B05281A
:100BC000F6D9032520230320636584F83550BDE85A
:100BD000F08100BF0120BDE8F08100BF086848F245
:100BE0003F02CFF21002D4E9013500EA020C04F111
:100BF0000C0898E8C10143EA0C032B431843D4E9DD
:100C0000072E304338431043626A40EA0E00042A3C
:100C100040EA08031CD1206BD4E90A2E40EA0E00FA
:100C2000184308604869BEF1000F20F0030040EA55
:100C3000020040F0040C11D0B8F5005F36D0B8F1D6
:100C4000000F45D1022A46D0012A3BD032B942E0FA
:100C50000B60486920F0070040EA020C01F0F80040
:100C60004AF6AB221038CAF6AA22A0FB02231A09C0
:100C700044F65413C1F814C0C0F600039A5C40F265
:100C8000FF335F284FF03F0021EA030100FA02F032
:100C900088BF0431C4E916128860002301250020B2
:100CA000636584F83550BDE8F08100BF032AD5D8CC
:100CB000012540230120DFE802F0030E030500BFF9
:100CC00082E700BFAEF1C070B0FA80F0400904E0E6
:100CD000032A04D3C2D1CEF300600028BED0012580
:100CE00040230120636584F83550BDE8F0810000A1
:100CF00090F834C0BCF1010F04BF0220704770B5FA
:100D00004FF0010C80F834C0D0F858E090F835C0AE
:100D1000BCF1010F38D14FF0020C80F835C04FF014
:100D2000000CC0F854C0D0F800C08468056CC06DD9
:100D3000DCF80060402C26F48026CCF80060CCF86B
:100D400004300B4604BF13460A463F2101FA00F067
:100D5000CCF80830CCF80C20CEF80800DCF8000005
:100D600040F01600CCF800002DB1DCF8000040F097
:100D70000800CCF80000DCF8000040F00100CCF8DE
:100D80000000002070BD00BF002180F83410022058
:100D900070BD0000B0B5044600F018F9054640F2F9
:100DA0000400C2F200000078611C18BF044400BFB8
:100DB00000F00CF9401BA042FAD3B0BDB0F5006FB3
:100DC00020D140F2EC00C2F2000090F83D00202853
:100DD00018BF704780B582B040F21000C2F2000028
:100DE00000F1140E40F2EC004FF0060CC2F20000CD
:100DF000D0213B220123CDE900EC00F0BBFF02B083
:100E000080BD00BF7047000043F61441C4F20101E9
:100E10000A68024214BF08607047FFF7CFBF0000A6
:100E20002DE9F04F83B000F1200200F13E4741F67A
:100E30000005009207F1FF77C4F2020507224FEA8E
:100E4000B726A84208BF062200254FF000084FF041
:100E50000009062E38BF4FEAB72201920AE000BF10
:100E600009F1010908F10208B9F1100F05F10405B3
:100E700000F0A2800F68012202FA09FE17EA0E0AAA
:100E8000EED0D1F804C003220CF003077E1E02FA54
:100E900008F4012E6FEA040B12D88468CE6804EAC5
:100EA0000B0406FA08F634438460446824EA0E060C
:100EB000CCF3001404FA09F42643466004E000BFB2
:100EC000032F01D103271EE0C6688C6806EA0B06D3
:100ED00004FA08F42643022FC66014D16FF003020F
:100EE000009E02EA590756F807C005F01C040F22BD
:100EF0000B69A2402CEA0202A3401A43F251D1F836
:100F000004C00CF00307026807FA08F302EA0B02B8
:100F10001A431CF4403F0260A2D0002243F644036F
:100F20000292C4F202031A6843F6004442F480427B
:100F30001A601A68C4F2010402F480420292029A12
:100F400029F003024FF6084C2244CFF6FF7C52F8FA
:100F50000C3005F00C070F26BE40B343019E06FA85
:100F600007F73B4342F80C30A2684B6842EA0A0795
:100F700043F60C4CDE0258BF22EA0A07A760C4F20F
:100F8000010CDCF800209E0242EA0A0758BF22EA60
:100F90000A07CCF8007062689E0342EA0A0758BF4D
:100FA00022EA0A0767602268DB0342EA0A0758BFA1
:100FB00022EA0A07276053E703B0BDE8F08F00007C
:100FC000002A08BF090481617047000040F28810C0
:100FD000C2F20000006870477047000070470000D0
:100FE000F0B581B00446006800254769426894F86E
:100FF0003E1002F48076FA0505D5002E1EBF6FF470
:10100000807242610125BA0505D5002E1EBF02354A
:101010006FF4007242617A0516D5AEB1628D94F814
:101020003D30D4F830C0202908BF002A24D06FF406
:101030008062402905F10405426101D0102903D1E5
:10104000016841F400710160380507D536B12068A8
:1010500008356FF40061416101E000BF55B1206CBB
:1010600040EA05012046216401B0BDE8F04001F0EE
:101070005BBF00BF01B0F0BD03F0F701212909D02B
:10108000282B08BFBCF1210F04D06FF480614161AF
:101090000435D9E794F83D10E26AB2F1080318BFAD
:1010A0000123203A18BF0122134208BF282921D06A
:1010B000212939D10021CFF6FF71E162212121637D
:1010C000202184F83D10002184F83E10426822F46B
:1010D000E06242606FF480624261026822F48062E2
:1010E00002604269120648BF0161204601F09EF885
:1010F000AAE700BF0021CFF6FF71E162416821F449
:10110000E06141606FF480614161016821F48061B8
:10111000016000202021206384F83D1084F83E0007
:10112000204600F0C1FC8FE76FF4806141618BE7DE
:10113000F0B581B007687968C26A90F83E5090F8BF
:101140003DE0402D01D0102D34D1BB697C69E6070C
:1011500018D1B2F12A4F00F06782B2F52A0F00F0E1
:101160006382220701F4007240F10681002A00F038
:101170000381416B426C0029D2B23A6140F0B080E9
:10118000B0E000BF8A0543D44FF0010C7A685B07DA
:101190006ED4120500F1488204F04402402A40F067
:1011A000598111F4806100F0558101B0BDE8F04033
:1011B00001F0FCBF026C01F40073002A0CBFBC6993
:1011C00000247D69AA0729D543B3016C002918BF03
:1011D000BC6990F83D1001F02801282940F0C0803A
:1011E0007968012221F48061796004F0040182EAC7
:1011F000910122064FF0180258BF0C22825A002398
:1012000080F83C3001B0BDE8F040FFF7E7BE00BF1A
:10121000C16AB1F52A0F3DD1012140E0EA066FD540
:10122000002B6DD090F83D50796821F4E061796031
:101230000021009179690091396841F0010139601C
:101240000099396821F4806139607968090540F1B5
:10125000798105F0F7010446222940F0498154F8CC
:10126000381F0A68526824F80E2C34F80E2C47E117
:10127000120500F1D98104F08402802A40F0F88040
:1012800011F4806100F0F48001B0BDE8F04002F09C
:1012900073B800BFC16AB1F12A4F01D10821C16200
:1012A00090F83E1040290BD1016D406C002900F0F0
:1012B000FE0018BF40F00100386101B0F0BD00BF72
:1012C0000169B1F5804F40F0898090F83D10426C83
:1012D000212902F0FE0218BF01323A61416B09B1C7
:1012E000C96B39B9806B002800F09E81C06B002863
:1012F00000F09A81786840F40060786001B0F0BD39
:101300000EF0F702212A79D105F08402802A40F0FC
:10131000C18011F4806100F0BD8090F83D10428DD5
:10132000002A00F08181426A12F8013B3B6142626F
:10133000428D013A4285428D002A08BF292940F09A
:101340007381796821F4806179602121016328210A
:1013500080F83D1001B0BDE8F04000F067BF00BF6D
:10136000002100917A690092BA690092009A80F88F
:101370003C1001B0F0BD00BF4FF0010CA6078CEA95
:10138000522C7FF503AF002A3FF400AF90F83E20C7
:10139000C16A036B90F83D60222E40F09F80066D7D
:1013A000002E08BF402A00F09980026D002A40F00C
:1013B0003D810269B2F5404F40F038810021009133
:1013C00079690091B96900910099396841F4807197
:1013D0003960016D0131016501B0F0BD016D002979
:1013E00000F00081016D012940F01E81406C062152
:1013F00001EAD010F130386101B0F0BD05F04402CF
:10140000402A57D111F4806154D090F83D10428D9C
:10141000002A00F009813A69436A1A70426A01326F
:101420004262428D013A4285428D002A08BF2A2934
:1014300040F0FA8001684A6822F480624A60222102
:101440000163282180F83D1001B0BDE8F04000F0B4
:10145000EBBE00BF04F00401012282EA910151EACF
:101460000C0140F0E18001B0BDE8F04001F022BE87
:1014700004F00401012282EA910151EA0C0140F0DA
:10148000D380BEF1210F40F0C78001B0BDE8F0402D
:1014900001F030BF690740F1C780002B00F0C48025
:1014A000418D002900F0C080416A11F8012B3A619A
:1014B0000FE000BF690740F1B780002B00F0B48057
:1014C000418D002900F0B0803969426A1170416A8B
:1014D00001314162418D01394185A5E00020009034
:1014E00078690090B8690090009801B0F0BD00BF25
:1014F00054F8341F0A68526824F80A2C34F80A2C6D
:101500001AB1026C42F0040202647A68064622F4C0
:10151000006208467A60FFF753FA01463046012917
:1015200010D0206842F68941C0F600010165FFF73E
:1015300033FA0146304629B1216804460A6D08464F
:1015400090472046418D61B101684A6952072FD406
:101550004A69520639D4418D19B1016C41F0040138
:101560000164016C21B101B0BDE8F04001F0DCBCC8
:101570002A2D08D100210163282180F83D1004465E
:1015800000F052FE204690F83D10282932D100216B
:10159000CFF6FF71C16200212022016380F83D2057
:1015A00080F83E1001B0BDE8F04000F07DBA00BF09
:1015B0000969426A1170426A016801324262428DD1
:1015C000013A42854A695206C5D50969426A1170D5
:1015D000416A01314162418D01394185418D0029C6
:1015E000BBD1BEE7406C062101EAD010F030386173
:1015F00001B0F0BD016B222918BF222D14D10021AA
:101600002022016380F83D2080F83E1001B0BDE843
:10161000F04000F009BE00BF402D05D101B0BDE88B
:10162000F04001F003BF00BF01B0F0BD428D52B1E8
:10163000428D012A16D1202918BF082926D13968E0
:1016400021F4806139600021009179690091B969C4
:1016500000910099396841F40071396000210165F9
:1016600001B0F0BD428D022A0CD1102932D80122DE
:1016700014238A40C0F201031A422BD04FF4806237
:101680002EE000BF3A6842F480622BE011F5803F03
:101690000CD1396821F48061396079680905D2D5A7
:1016A000396821F48061396030E000BF122B01D12C
:1016B0000129C4D11029F3D8012202FA01F1142220
:1016C000C0F201021142EBD0396841F48061396007
:1016D0001CE000BF3A6822F480623A604FF4006276
:1016E0003B681A433A607A6812050FD54A1E1F2AD2
:1016F00018D8012303FA02F248F28103C8F200036A
:101700001A420FD0796841F480517960002100912C
:1017100079690091B969009100990021016501B0D2
:10172000F0BD00BF11F5803FECD0EFE7704700003F
:10173000002804BF01207047F0B581B0044690F83E
:101740003D0028B9002084F83C00204600F0E2FC6F
:10175000242084F83D002068016821F00101016027
:10176000016841F400410160016821F40041016019
:1017700000F0CAFE636848F2A16CC0F2010C40F6AA
:101780000011C0F23D0163453CBF48F28041C0F208
:101790001E01884202D2012001B0F0BD4DF68361E6
:1017A000C4F21B31A0FB01122168970CD1F804E0B0
:1017B0004FF496762EF03F0545EA92454D6077430B
:1017C00048F638160D6AC0F24106A7FB067625F0EA
:1017D0003F07634538BF960C721C3A430A62CA69D8
:1017E00048F2A0664CF6FF77C0F20106B34222EA47
:1017F00007020BD801385B00B0FBF3F001306FF348
:101800001F30042898BF04201BE000BFA7680138E0
:1018100057B119277B43B0FBF3F001306FF31F3052
:1018200070B100F5804007E003EB4303B0FBF3F039
:1018300001306FF31F3018B100F5004001E000BF28
:1018400001201043C8610868D4E9072320F0C000D4
:10185000104318430860886848F2FF3204F10C070F
:1018600090438CCF18431043A6698860C86820F065
:10187000FF0038433043C860086840F0010008604A
:1018800000202021206484F83D10206384F83E006D
:1018900001B0F0BD2DE9F04F83B01E469246884658
:1018A0000446FFF793FB94F83D10202924D12168CA
:1018B000054600BF886980071AD5FFF787FB401BE4
:1018C00021681A28F6D388698007F3D500202021E3
:1018D000206384F83D1084F83E00216C41F0200123
:1018E000216484F83C00022003B0BDE8F08F00BF03
:1018F00094F83C00012803D1022003B0BDE8F08F2A
:101900004FF0010984F83C900868C00703D10868CB
:1019100040F0010008600868002720F400600860BB
:10192000242084F83D000020CFF6FF702764E06299
:1019300008F0FE08BAF1010F88BFD1464FF0A00AA7
:101940004FF0200B04E000BF01374F4500F0A280AC
:101950000868002240F48070086020464FF00111B2
:101960003346009501F00EFF2168002856D1C1F8DA
:101970001080FFF72BFB21684B694A6994F83D50B2
:10198000A02D054605D013F0020008BF12F48060B8
:101990001AD084F83DB048690A68800742F40072A2
:1019A0000A6045D46FF48060486100BF8869800791
:1019B000CAD5FFF70BFB401B21681A28F6D38869AC
:1019C0008007F3D54AE000BFB6B100BFFFF7FEFACB
:1019D000401BB04288BF84F83DA021684A6948692D
:1019E00094F83D30A02BD4D012F0020208BF10F4BE
:1019F0008060EBD0CDE700BFFFF7E8FA84F83DA0A8
:101A000021684A69486994F83D30A02BC1D012F092
:101A10000202BED110F48060EED0BAE70868C005BB
:101A200044BF4FF400702064032003B0BDE8F08F82
:101A300000200290486902908869029002988869A3
:101A400001E000BF806980071AD5FFF7BFFA411B8C
:101A500020681A29F6D381698907F3D5002020214F
:101A6000206384F83D1084F83E00216C41F0200191
:101A7000216484F83C00012003B0BDE8F08F00BF72
:101A8000202084F83D00002084F83C0003B0BDE82D
:101A9000F08F00BF202084F83D00002084F83C0037
:101AA000012003B0BDE8F08F7047000070470000D0
:101AB00070470000006845F20041C4F2000188420E
:101AC00018BF704740F21000C2F20000818AC28A3B
:101AD000038BC9BAD2BADBBA90ED001A00EE101A25
:101AE00002EE102A03EE103AB8EEC00AB8EEC11AA0
:101AF000B8EEC22AB8EEC33A80EE010A82EE012A9D
:101B000083EE011A012180ED010A80ED022A80EDA9
:101B1000031A016170470000704700002DE9F0478B
:101B200084B0994616460F460446FFF74FFA94F8DC
:101B30003D10202927D10546206800BF816989070B
:101B40001CD5FFF743FA411B20681A29F6D3816997
:101B50008907F3D500202021206384F83D1084F804
:101B60003E00206C04F13C0A40F02000206402207A
:101B700000218AF8001004B0BDE8F087A2461AF8E8
:101B80003C1F012904D1022004B0BDE8F08700BF4A
:101B900001228AF800200368DDE90D180C9ADB07A2
:101BA00003D1036843F001030360036823F4006377
:101BB0000360222084F83D00402084F83E0000208D
:101BC000206462626185608D394620850020CFF6F1
:101BD000FF70E062204632464B46CDE9008501F0B9
:101BE00085FC18B1012004B0BDE8F087208D08B352
:101BF000022813D0012835D121680A6822F48062B6
:101C00000A60002203924A6903928A690392039A46
:101C10000A6842F400720A602CE000BF21680A687A
:101C200022F480620A600A6842F400620A600022BC
:101C300003921AE0002003902068416903918169B2
:101C400003910399016841F400710160202084F838
:101C50003D00002084F83E0000218AF8001004B006
:101C6000BDE8F0870021039121684A6903928969E0
:101C7000039103990427C0F201070CE01069087072
:101C8000606A218D01306062481E2085618D0139B6
:101C900061850104DAD080B203280FD802284AD027
:101CA00001282DD1204641462A4601F0BDFE0028DC
:101CB00098D12068616A0069E1E700BF204641468B
:101CC0002A4601F0B1FE00287FF48CAF2068616ADB
:101CD00000690870606A2268411C208D61620138C9
:101CE0002085638D013B638553695B07D1D580B245
:101CF0000328C3D1106820F480601060BEE700BFE5
:101D00002046394600224346009501F03BFD00285D
:101D10007FF468AF2068616A026822F48062026022
:101D200000690870606A218D01306062481E20855C
:101D3000608D013860852046394600224346009573
:101D400001F020FD00287FF44DAF2068616A026831
:101D500042F40072026000690870606A2268411CE7
:101D60006162218D01392185618D0139618511699A
:101D7000417085E72DE9F04786B0984616460F4634
:101D80000446FFF723F90021059194F83D1020291E
:101D900040F0998040F20C01C2F2000109684BF258
:101DA0008952C908C1F2F842A1FB0215DDE90E23F0
:101DB000290A192569430591059901390591059964
:101DC000002975D021688D69AD071DD505990139A8
:101DD0000591059900296BD021688D69AD0713D550
:101DE0000599013905910599002961D021688D690E
:101DF000AD0709D50599013905910599002957D0F5
:101E000021688D69AD07D7D494F83C50012D5AD084
:101E1000012584F83C500D68ED0703D10D6845F0AD
:101E200001050D600D684FF0000C25F400650D6094
:101E3000222584F83D50402584F83E50C4F840C027
:101E400062626385638D0025CFF6FF752385E562A9
:101E50006764A664C4F84C80C4F850C0C3B3A56BD3
:101E6000002D57D0814642F6F950C0F6000042F6E8
:101E7000AD5C4FF0000AC0F6000CC5E90F0A103146
:101E80002846C5E911AAC5E913CAFEF731FF0028A3
:101E900050D0202084F83D0084F83EA0206C40F013
:101EA0001000206484F83CA0012006B0BDE8F08753
:101EB00000202021206384F83D1084F83E00206C2F
:101EC00040F020002064022006B0BDE8F08700BF8B
:101ED0004FF0230C05462046394632464346CDE9AD
:101EE00000C501F003FB0028DED10020039021682B
:101EF0004A6903928A690392039A0A6842F400725B
:101F00000A60202184F83D1084F83C0006B0BDE84A
:101F1000F08700BF202084F83D00002084F83E00B8
:101F2000216C41F08001216484F83C00012006B05E
:101F3000BDE8F08723252046394632464346CDE9A1
:101F4000005901F0D3FAA8B1A06BFEF725FDA16BF3
:101F500020680022CA63016821F480610160228543
:101F60006285016821F001010160012006B0BDE831
:101F7000F08700BF208D2168012805D1086820F472
:101F80008060086004E000BF486840F4805048600A
:101F9000002004904A6904928A690492049A84F8A1
:101FA0003C004A6842F480724A604A6842F4006227
:101FB0004A6006B0BDE8F0872DE9F04383B099464A
:101FC00016460F460446FFF701F894F83D10202905
:101FD00024D10546206800BF816989071AD5FEF71C
:101FE000F5FF411B20681A29F6D381698907F3D5CB
:101FF00000202021206384F83D1084F83E00216CED
:1020000041F02001216484F83C00022003B0BDE8C7
:10201000F08300BF94F83C10012903D1022003B0E3
:10202000BDE8F083012284F83C200368DDE90B1849
:102030000A9ADB0703D1036843F0010303600368D6
:1020400023F400630360212084F83D00402084F8DD
:102050003E000020206462626185608D39462085E3
:102060000020CFF6FF70E062204632464B46CDE9B5
:10207000008501F0C5FA18B1012003B0BDE8F08376
:10208000208D98B9204641462A4601F01DFB88B3B1
:10209000206C0428F0D12068016841F400710160CF
:1020A000012003B0BDE8F0830004EBD02046414698
:1020B0002A4601F001FD0028EAD1616A226808463B
:1020C00010F8013B1361238D6062581E2085678DD7
:1020D000013F678557697F07E6D50704E4D0487854
:1020E0001061881C6062981E2085618D01396185B0
:1020F000DAE700BF2068016841F400710160202028
:1021000084F83D00002084F83E0084F83C0003B0D1
:10211000BDE8F0832DE9F04387B0044645F2004066
:102120002168C4F20000002681420696CDE90466CB
:102130000396029602D007B0BDE8F08343F630055F
:102140000196C4F20205296846F2100841F0020126
:102150002960296800F5D83001F002010191019948
:102160004FF4407102911221CDE90316032105912C
:102170000421069102A9C4F20208FEF751FE01965D
:1021800028694FF0007740F400102861286940F278
:102190002C0500F4001001900198C2F200054FF4E4
:1021A00080692846C5E90087C5E90266C5E9049645
:1021B000C5E90666C5E90866FEF7E8FC002818BF11
:1021C000FEF7E6FBA563AC6340F28C0508F19000D6
:1021D000C2F200054021C5E9000705F10800002210
:1021E00080E806022846C5E90522C5E907226A6299
:1021F000FEF7CCFC002818BFFEF7CAFB1F20002109
:1022000000226563AC6300F091F81F2000F07CF8B9
:1022100020200021002200F089F8202000F074F82E
:1022200007B0BDE8F0830000704700007047000071
:1022300040F2040040F28811C2F20000C2F2000134
:1022400000780A68104408607047000080B543F6C3
:102250000040C4F20200016841F4007101600168AD
:1022600041F480610160016841F4807101600320E4
:1022700000F088F8002000F005F800F027F80020B2
:1022800080BD000070B540F20406C2F2000640F2C4
:102290000C013278C2F200014FF47A730968B3FB83
:1022A000F2F20446B1FBF2F1084600F095FB0F2C68
:1022B0004FF0010508D838B94FF0FF302146002211
:1022C000002500F033F87460284670BD82B000200D
:1022D00043F640010190C4F202014A6842F4804290
:1022E0004A604A6802F480420192019A00900868AC
:1022F00040F080500860086800F08050009000981E
:10230000072002B000F03EB8002848BF704700F038
:102310001F01012202FA01F11C2202EAD0004EF252
:102320000012CEF2000281507047000010B54EF648
:102330000C5CCEF2000CDCF80030C3F3022E8EF001
:102340000704042C28BF0424BEF103034FF0FF3E12
:102350000EFA04F438BF0023A14399400EFA03F3A8
:102360009A43114300F00F0200F160430901043A5F
:1023700003F564436244002848BF02F10C0319705E
:1023800010BD00004EF60C51CEF200010A684FF667
:10239000FF031A4060F30A2242F0806040F0FD70B3
:1023A00008607047002804BF012070472DE9F04104
:1023B00043F60808C4F202080446D8F8F8030D46AC
:1023C00000F00F00884207D288F8F853D8F8F803D5
:1023D00000F00F00A84277D12068810717D5410788
:1023E00005D5D8F8001041F4E051C8F800100107F5
:1023F00005D5D8F8001041F46041C8F80010D8F8AD
:102400000010A26821F0F0011143C8F80010C007C5
:1024100040D1D8F8F80300F00F00A84207D988F897
:10242000F853D8F8F80300F00F00A8424CD1206808
:10243000410707D5D8F80010E26821F4E0511143B4
:10244000C8F80010000708D5D8F80000216920F46A
:10245000604040EAC100C8F8000000F07DF8D8F8FC
:10246000001044F63C12C1F30311C0F60002515CA7
:1024700040F20C0220FA01F140F20800C2F2000022
:102480000068C2F200021160FFF7FCFE0020BDE808
:10249000F08100BF6068811E022907D258F8081C2D
:1024A00089015CBF0120BDE8F08111E0012807D15E
:1024B00058F8081C89035CBF0120BDE8F08107E0E3
:1024C00058F8081C890703D40120BDE8F08100BF3B
:1024D000D8F8001021F003010843C8F80000FEF707
:1024E00075FD064641F28837D8F80000616800F0B3
:1024F0000C00B0EB810F8CD0FEF768FD801BB8425A
:10250000F2D90320BDE8F08140F20C0043F6080147
:10251000C2F20000C4F202010068096844F64C12DD
:10252000C1F38221C0F60002515CC8407047000030
:1025300040F20C0043F60801C2F20000C4F20201AE
:102540000068096844F64C12C1F34231C0F600023B
:10255000515CC8407047000010B543F60404C4F253
:1025600002046068C0F3810142F20040C0F2F4004E
:10257000DFE801F04202081841F20020C0F27A00C0
:1025800010BD00BF216801F03F02216823684902A5
:10259000C3F3881116D4A1FB00010023FDF72EFE22
:1025A00017E000BF216801F03F022168236849025B
:1025B000C3F3881114D4A1FB00010023FDF71EFE14
:1025C00015E000BF41F20020C0F27A004843B0FBA2
:1025D000F2F021680222C1F3014102EB410109E05E
:1025E00041F20020C0F27A004843B0FBF2F02168CB
:1025F000C1F30271B0FBF1F010BD0000002804BF70
:10260000012070472DE9F04182B00446007843F67E
:102610000006C007C4F202060CD0B06800F00C003F
:10262000042840F089803068800303D56068002862
:1026300000F050812078800723D5B06810F00C0F8F
:1026400011D0B06800F00C00082802D17068400278
:1026500009D5B06800F00C000C2840F09F8070682D
:10266000400200F19B803068800703D5E0680128B4
:1026700040F030813068216920F0F80040EAC10064
:1026800030602078000713D4207840072AD4A56949
:10269000002D00F01A81B06800F00C00082840F00E
:1026A000AB80012D40F0E880012002B0BDE8F08150
:1026B0006069002840F20000C4F2472000F08880E2
:1026C0000121C0F8801EFEF781FC0546706F80076F
:1026D000DAD4FEF77BFC401B0228F7D9032002B0B6
:1026E000BDE8F081306C5FEAC0080AD40020019098
:1026F000306C40F080503064306C00F080500190BD
:10270000019847F20007C4F200073868C00537D4C3
:10271000386840F480703860FEF758FC054600BF0A
:102720003868C0052CD4FEF751FC401B0228F7D9AD
:10273000032002B0BDE8F081B06800F00C0008286A
:1027400003D1706840023FF56EAFB06800F00C0036
:102750000C2803D1706840023FF565AF61683068AE
:10276000B1F5803F07D0B1F5A02F40F0CB8040F409
:1027700080203060306840F480303060CBE000BFB3
:10278000A168306F012905D0052957D140F0040018
:102790003067306F40F00100306759E0E068002892
:1027A00000F09C800020C4F2472001210160FEF768
:1027B0000DFC0546306880073FF55CAFFEF706FC70
:1027C000401B02284FF00300F4D902B0BDE8F081AD
:1027D0000021C0F8801EFEF7F9FB0546706F8007E8
:1027E0007FF552AFFEF7F2FB401B0228F6D903201B
:1027F00002B0BDE8F08100BF0027C4F247270020E7
:102800003866FEF7E3FB022D05460BD130688001E8
:1028100040F19280FEF7DAFB401B02284FF00300E4
:10282000F4D9D2E7306880014FD5FEF7CFFB401BCB
:1028300002284FF00300F5D9C7E700BF20F00100E0
:102840003067306F002920F00400306700F0988076
:10285000FEF7BCFB054641F2883700BF306F8007AA
:1028600000F1A080FEF7B2FB401BB842F6D903206E
:1028700002B0BDE8F08100BF7068E16900F4800239
:102880008A4227D1216A00F03F028A4222D147F6CC
:10289000C071626A0140B1EB821F1BD1A16A4FF681
:1028A000FF73C903994300F44032A1F580318A4295
:1028B00010D1E16A00F07062B2EB016F0AD1216BB6
:1028C00000F0E040B0EB017F04D1002002B0BDE891
:1028D000F08100BF012002B0BDE8F0810020C4F209
:1028E000472000210160FEF771FB05463068800734
:1028F0007FF5C7AEFEF76AFB401B02284FF00300CE
:10290000F4D962E720F4803030603068002920F488
:102910008020306050D0FEF759FB054630688003B8
:102920003FF588AEFEF752FB401B6428F6D9032022
:1029300002B0BDE8F08100BF04F11C052FCD246B6F
:10294000084340EA8210D9034FF6FF729143A1F584
:10295000803140EA0560084340EA0470706001205D
:102960003866FEF733FB044630688001ADD4FEF7CD
:102970002DFB001B02284FF00300F5D925E700BF0F
:10298000FEF724FB054641F2883700BF306F800711
:1029900008D5FEF71BFB401BB8424FF00300F5D9EA
:1029A00013E700BFB8F1000F3FF571AE306C20F0B7
:1029B000805030646BE600BFFEF708FB054600BFA1
:1029C000306880037FF536AEFEF700FB401B6428BD
:1029D0004FF00300F4D9F8E6411E0020B0EB116F70
:1029E0001CBF012070474EF21002CEF2000251606F
:1029F0004EF62351CEF20001F0230B7007219060B8
:102A000011607047002804BF0120704710B50446CC
:102A100090F8410028B9002084F84000204600F0DA
:102A200021F8242084F841002068C16821F4005175
:102A3000C160204601F0D4F92068016921F4904179
:102A40000161416921F02A014161C16841F40051ED
:102A5000C16000202021606484F8411084F8421095
:102A6000606310BD80B586B044F200410068C4F2D6
:102A70000001002288420592CDE9032202920192D0
:102A800002D006B080BD00BF43F630000092C4F211
:102A90000200036943F400330361036903F4003364
:102AA0000093009B0092036843F0010303600068F9
:102AB00000F00100009000980C2001900220CDE968
:102AC0000202032004900720059001F5DE3001A9E1
:102AD000FEF7A6F906B080BD2DE9F04381B00446AB
:102AE00090F84100202809D100294FF0010018BFBB
:102AF000002A07D101B0BDE8F08300BF022001B079
:102B0000BDE8F0830020606421201D460E4684F855
:102B100041001746FEF75AFAA784E784A168814668
:102B2000B1F5805F02D1206900285DD037460020D2
:102B3000E28C2168002A5DD06A1C24D0002D4AD086
:102B4000804600BF0868000608D4FEF73FFAA0EBF5
:102B50000900A8427AD82168C868F3E717B117F8C6
:102B6000010B04E038F8020B00276FF35F20486088
:102B7000E08C0138E084E08C0028E3D13AE000BF2B
:102B80000A68120609D40A68120606D40A681206F0
:102B90005CBF0A685FEA0262F2D51FB117F8012B29
:102BA00005E000BF30F8022B00276FF35F224A6078
:102BB000E28C013AE284E28C002AE4D11AE000BF00
:102BC00030F8022B00276FF35F224A60E28C013A53
:102BD000E284E28C72B10A68120635D5002FEFD07C
:102BE00017F8012BF1E700BF00273046E28C21687F
:102BF000002AA1D1086840061ED42DB3681C14D148
:102C0000086840062AD40868400627D408684006A9
:102C100024D4086840064FF00000F1D50DE000BF55
:102C20002068C1680068400618D4FEF7CFF9A0EB11
:102C30000900A842F4D909E00020202184F84110BD
:102C400001B0BDE8F08300BFFEF7C0F903202021EA
:102C500084F8411001B0BDE8F08300BF00202021BE
:102C600084F8411001B0BDE8F0830000FEE70000E9
:102C700040F2EC00C2F20000FEF7B2B940F2EC0004
:102C8000C2F20000FEF754BA10B581B000210091E5
:102C9000806B40F20C01C2F2000190F83DC009685F
:102CA0004BF28952C908C1F2F842A1FB0212110A83
:102CB000232251430091009911B3009901390091E9
:102CC0000168096889051FD50099C9B100990139C2
:102CD000009101680968890516D5009981B10099AC
:102CE000013900910168096889050DD5009939B14C
:102CF000009901390091016809688905DBD403E076
:102D0000016C41F020010164446B4FF0000E002C77
:102D10001CBF0021E163816B00291CBF0022CA6334
:102D20000268002C136823F480631360A0F82AE083
:102D300018BFC4F850E000291CBF00230B651168C0
:102D400021F00101116090F83D1060290CD1202183
:102D500080F83D10002180F83E10016401B0BDE80C
:102D60001040FEF739B900BF0CF02801282911D115
:102D7000116841F001011160116841F48061116036
:102D800000210163282180F83D1001B0BDE810400A
:102D9000FEF7CCBC202180F83D10002180F83E10C9
:102DA00001B0BDE81040FEF7C1BC000010B5846B57
:102DB000616B00291CBF0022CA63A16B00291CBFE4
:102DC0000022CA63FDF7FAFD022808BF10BD206883
:102DD000016821F48061016000202021608584F871
:102DE0003D1084F83E00206C40F010012046216424
:102DF000BDE81040FEF79ABC10B5846B94F83D20F6
:102E000094F83EE0D4F82CC02168606B4B68002831
:102E100023F440734B601CBF0023C363A06B0028E6
:102E20001CBF0023C36302F02100212820D002F040
:102E30002200222808BFBEF1200F19D094F83E00CE
:102E4000002808BF10BD608D012803D1086820F458
:102E5000806008604868BCF1070F20F4407048604B
:102E600028DCBCF12A4F2BD01CF5803F28D02BE06A
:102E700048682A2A20F4006048604FF0000060850E
:102E80000AD0292A10D121202063282084F83D006F
:102E90002046FFF7CBF907E022202063282084F8A2
:102EA0003D002046FFF7C0F92068416841F44071B9
:102EB000416010BDBCF1200F02D0BCF1080F03D15E
:102EC000086840F400700860486820F4805048604A
:102ED000486820F40060486000216185206C28B1BA
:102EE0002046BDE81040FEF721BC00BF202084F83A
:102EF0003D0094F83E0084F83E10402806D120465C
:102F00002163BDE81040FEF7D5BD00BFBCF108004D
:102F100018BF1220BCF1200118BF014620462163D2
:102F2000BDE81040FEF7C2BD10B5044690F83D1054
:102F300090F83E00B0F1100218BF0122403818BFCF
:102F40000120024208BF222934D001F0280028289D
:102F50003AD100202063282084F83D002068416891
:102F6000090542D5416821F400614160606B90F829
:102F70003510012958D1A06B42F68941C0F60001F5
:102F80000165FDF709FD002861D020684169490607
:102F900006D50069616A0870616A20680131616262
:102FA000016821F001010160202084F83D00A06B40
:102FB0004BE000BF2068026822F4006202604268B1
:102FC000120505D50CE000BF20684268120507D441
:102FD000602905D0202184F83D10002184F83E109E
:102FE0000021216341680905BCD494F83D10602993
:102FF00050D1202184F83D10002121644169490607
:1030000006D50069616A0870616A206801316162F1
:10301000016821F0010101602046FDF7DDFF206C11
:10302000000717D11BE000BF42F68941C0F600013E
:103030000165FDF7B1FC50B12168606B0A6822F0B0
:1030400001020A60202184F83D10016D8847206C40
:10305000000704D02068416821F4E061416094F8E1
:103060003D00216C490758BF10BD282810D1002011
:10307000CFF6FF70E06200212020216384F83D003C
:10308000204684F83E10BDE81040FEF70DBD00BF9D
:1030900010BD00BF4169490605D50069616A087025
:1030A000606A013060622046FEF740FB206C00073A
:1030B000D0D1D4E7C16A428D042A07D10168426A9F
:1030C0004B6823F480634B60096911E0428D032A49
:1030D00016D102680229536823F48063536005D037
:1030E000042903D0116821F4806111601169426ADA
:1030F0001170416A01314162418D0139418570474A
:10310000428D022A12D14A1E0F2A19D8DFE802F096
:10311000081218121818181818181818181818085B
:103120000268136823F480630EE000BF0168426AFE
:10313000CAE700BF0268136843F4806304E000BF7D
:103140000268136843F4007313601269436A1A70CB
:10315000426AD0F800C0531C4362438D013B438553
:10316000DCF810305370426A036801324262428DCB
:10317000013A42855A6822F440725A60202280F84F
:103180003D2090F83E300022402B80F83E2003D1B5
:103190000263FEF78FBC00BFB1F1080218BF122214
:1031A000203918BF11460163FEF780BC81B090F84A
:1031B0003D10222910D1C16A428D042A0ED3016824
:1031C000426A09691170416A01314162418D0139D8
:1031D0004185418D03295DD001B07047C36A012A42
:1031E00058D8022B56D00022009240F20C02C2F2B4
:1031F000000212684BF28953D208C1F2F843A2FBD5
:1032000003231A0A02EB82020092009A013A00920A
:10321000009A002A46D0026813689B051AD5009AC6
:10322000013A0092009AEAB3026813689B0511D52F
:10323000009A013A0092009AA2B3026813689B05B3
:1032400008D5009A013A0092009A5AB302681368AE
:103250009B05DAD4136823F480631360536823F466
:10326000E06353601269436A1A70426A0132426233
:10327000428D013A4285202280F83D2090F83E3070
:103280000022402B80F83E2028D1026301B0FEF7D7
:1032900011BC00BF0068416821F48061416001B049
:1032A000704700BF016C41F0200101640168426A6F
:1032B0004B6823F4E0634B6009691170416A013186
:1032C0004162418D01394185202180F83D10002166
:1032D00080F83E1001B0FEF729BA00BFB1F1080234
:1032E00018BF1222203918BF1146016301B0FEF742
:1032F000DDBB0000C16A90F83D20212A18BF70474D
:10330000428D4AB1416A026811F8013B1361416282
:10331000418D01394185704711F5803F18BF08295B
:1033200018D101684A6822F4E0624A600A6842F4EF
:1033300000720A6000212022016380F83D2090F88D
:103340003E2080F83E10402A08BFFEF7E5BBFEF79E
:10335000AFBB00BF2029E4D001684A6822F4E062D4
:103360004A6011210163002180F83E10202180F87D
:103370003D10FEF79DBB000090F83D1090F83EC058
:10338000C26A038D002B08BF212919D0212905D03D
:10339000BCF1400F08BF222900D07047418D69B3AE
:1033A00090F83E10402908BF00F040B8416A02681A
:1033B00011F8013B13614162418D0139418570472C
:1033C00012F5803F18BF082A1ED101684A6822F40E
:1033D000E0624A600A6842F400720A60002120221A
:1033E000016380F83D2090F83E2080F83E10402A8E
:1033F00008BFFEF791BBFEF75BBB00BF00684168EA
:1034000021F4806141607047202ADED001684A685B
:1034100022F4E0624A6011210163002180F83E102D
:10342000202180F83D10FEF743BB000090F83D10CE
:10343000026D5AB1026D012A14D10168826CD2B2B8
:103440000A61016D01310165704700BFC26C816C7A
:10345000012A15D10268C9B21161016D02310165FD
:10346000704700BF026D022A12D1222918D10168CB
:103470000A6842F480720A60016D0131016570478B
:103480000268C1F307211161016D013101657047C7
:1034900000684169090644BF00210161704700BF0F
:1034A000428D5AB1212909D1416A026811F8013BC4
:1034B00013614162418D013941857047428D002A77
:1034C00008BF2129EAD101684A6822F4E0624A6013
:1034D0000A6842F400720A6000212022016380F829
:1034E0003D2080F83E10FEF717BB00002DE9F047A5
:1034F00082B0044600689A460B9D0A9E0368914676
:1035000043F48062026002680F4642F480710160F9
:1035100020464FF0011100223346009500F032F9A9
:1035200050B120680068C00544BF4FF400702064AB
:10353000032002B0BDE8F08740F202082068C0F224
:10354000010807F0FE0707612046414632462B4638
:1035500000F0FEF920B1012002B0BDE8F08700BF05
:103560000020019020682A46416901918069314616
:1035700001900198204600F09FFAB0B92068BAF196
:10358000010F09D04FEA19210161204631462A4630
:1035900000F092FA48B920685FFA89F1016120468B
:1035A00031462A4600F088FA60B1206C0428D2D156
:1035B0002068016841F400710160012002B0BDE89B
:1035C000F08700BF206800220168334641F4807113
:1035D000016020464FF00111009500F0D3F800285B
:1035E0009FD147F0010C27682046414632462B46C2
:1035F000C7F810C002B0BDE8F04700F0A9B900005C
:103600002DE9F04383B0044600680F4601680A9D27
:103610000B9E41F4807199469046016020464FF020
:10362000011100222B46009600F0ACF850B1206842
:103630000068C00544BF4FF400702064032003B04D
:10364000BDE8F083206807F0FE0101610221C0F2AD
:10365000010120462A46334600F07AF920B10120C4
:1036600003B0BDE8F08300BF00200290206832461E
:10367000416902918069294602900298204600F033
:103680001BFA58B1206C0428E9D12068016841F484
:1036900000710160012003B0BDE8F0832068B9F13A
:1036A000010F0AD04FEA182101612046294632460F
:1036B00000F002FA0028E5D120685FFA88F1016184
:1036C000002003B0BDE8F08370B50368044653F8EA
:1036D000140F400711D40E46481C29D086BB00BFEA
:1036E0001868400527D4FDF771FC236853F8140FC0
:1036F000400737D518684007F2D5002070BD00BFDD
:1037000018684007F9D41868400514D418684007B1
:10371000F3D4186840050ED418684007EDD4186833
:10372000400508D4186840074FF0000048BF70BD3E
:1037300018684005E4D56FF480601860042012E03A
:10374000154603E053F8140F4007D6D41868400517
:10375000F1D4FDF73BFC401B2368B042F2D9586915
:103760004007EFD4202000212022216384F83D204F
:1037700084F83E10226C10432064012084F83C1031
:1037800070BD00002DE9F041054600681E46144654
:1037900001F47F0201338FB242D0DDF81880B2F518
:1037A000803F40F0878040693840C01BB0FA80F00D
:1037B0004009A04240F0C8804EB924E0406938403A
:1037C000C01BB0FA80F04009A04240F0BD80FDF778
:1037D000FDFBA0EB08012868B142EFD941693940EF
:1037E000C91BB1FA81F14909A142E7D19BE000BFB1
:1037F00040693840C01BB0FA80F04009A0424FF049
:10380000000040F0A280FDF7E1FB286841693940E3
:10381000C91BB1FA81F14909A142E9D183E000BF96
:10382000B2F5803F24D100BF41693940C91BB1FACC
:1038300081F14909A14240F0878041693940C91BA3
:10384000B1FA81F14909A14240F07E8041693940D5
:10385000C91BB1FA81F14909A14275D141693940C9
:10386000C91BB1FA81F14909A142DDD06CE000BF6A
:1038700081693940C91BB1FA81F14909A14263D17B
:1038800081693940C91BB1FA81F14909A1425BD173
:1038900081693940C91BB1FA81F14909A14253D16B
:1038A00081693940C91BB1FA81F14909A142DFD0D0
:1038B0004AE000BF80693840C01BB0FA80F0400980
:1038C000A04241D146B923E080693840C01BB0FA1C
:1038D00080F04009A04237D1FDF778FBA0EB08014A
:1038E0002868B142F0D981693940C91BB1FA81F128
:1038F0004909A142E8D116E080693840C01BB0FAFE
:1039000080F04009A0424FF0000018BFBDE8F081F0
:10391000FDF75CFB286881693940C91BB1FA81F168
:103920004909A142E8D100202021286385F83D10F3
:1039300085F83E00296C41F02001296485F83C009F
:103940000120BDE8F08100BF0020BDE8F08100004B
:10395000F0B581B0044600681D4643698FB203EAA2
:103960000701B94202D1002001B0F0BD41691646FD
:1039700001323CD0490512D47EB300BFFDF726FBCF
:10398000411B2068B14203D941693940B9422BD16A
:1039900041693940B942E6D041694905EED501682F
:1039A00041F4007101606FF48061416104200021E5
:1039B0002022216384F83D2084F83E10226C1043BD
:1039C000206484F83C10012001B0F0BD4169394009
:1039D000B942C8D041694905E1D4FDF7F7FA20683A
:1039E00041693940B942F1D02020E0E741694905F9
:1039F000D5D441693940B942B5D041694905CED4E1
:103A000041693940B942AED041694905C7D44169DD
:103A10003940B942A7D041694905C0D4416939400C
:103A2000B942E3D19FE7000070B50446006815462F
:103A300050F8143F5A063DD40E4629B926E000BF7F
:103A400050F8141F490635D40168C90621D4FDF782
:103A5000BDFA411B2068B142F2D941694906EFD451
:103A600000202021206384F83D1084F83E00206C63
:103A700040F0200018E000BFFDF7A8FA206850F8D9
:103A8000141F4906ECD50168490613D40168C9061C
:103A9000F2D56FF01001016000202021206384F82E
:103AA0003D1084F83E00206C2064002084F83C0027
:103AB000012070BD002070BD70B50368044653F846
:103AC000140F000611D40E46481C29D086BB00BF37
:103AD0001868400527D4FDF779FA236853F8140FC6
:103AE000000637D518680006F2D5002070BD00BF6B
:103AF00018680006F9D41868400514D41868000640
:103B0000F3D4186840050ED418680006EDD4186880
:103B1000400508D4186800064FF0000048BF70BD8B
:103B200018684005E4D56FF480601860042012E046
:103B3000154603E053F8140F0006D6D41868400564
:103B4000F1D4FDF743FA401B2368B042F2D958691B
:103B50000006EFD4202000212022216384F83D209C
:103B600084F83E10226C10432064012084F83C103D
:103B700070BD000080B582B00020019043F6300097
:103B8000C4F202000168002241F4001101600068E3
:103B9000002100F40010019001980B20FEF7C6FBF5
:103BA0000B20FEF7B1FB112000210022FEF7BEFB27
:103BB000112002B0BDE88040FEF7A6BB2DE9F0471A
:103BC00086B0002743F630000597CDE90377CDE9AD
:103BD00001770097C4F20200016840F2000A41F048
:103BE000040101600168C4F2020A01F004010091BD
:103BF000009900970168002241F08001016001688E
:103C00004FF0200801F080010091009900970168B1
:103C100041F001010160016801F00101009100998A
:103C20000097016841F0020101600068202100F066
:103C30000200009000985046FDF7C2F94FF4005082
:103C40000AF5006501AE01904FF40419284631468B
:103C5000CDE90297FDF7E4F8012450463146CDF84E
:103C60000480CDE902470497FDF7DAF84FF40060CD
:103C7000CDE90109284631460394FDF7D1F8282003
:103C800000210022FEF752FB2820FEF73DFB06B084
:103C9000BDE8F08780B540F2EC0045F20041C2F289
:103CA0000000C4F2000141F6802200234FF4804C52
:103CB000C0F2060280E80E00C0E9033CC0E905330B
:103CC000C0E90733FDF734FD002808BF80BDBDE81B
:103CD0008040FCF75DBE000080B540F2401044F229
:103CE0000041C2F20000C4F2000100234FF00C0CAE
:103CF0004FF4E13280E80E00C0E90333C0E905C3A8
:103D0000C361FEF77FFE002808BF80BDBDE880408C
:103D1000FCF73EBEFEE70000FEE700007047000033
:103D200070470000FEF784BA70B594B007AC204627
:103D30003421FCF79BFA002543F640000695CDE9B7
:103D40000455CDE902550195C4F202000168012233
:103D500041F0805101600068022600F0805001901F
:103D6000019847F200000195C4F20000016862F377
:103D70008F310160006800F44040019001981020EC
:103D80000B900F904FF4A87010900420CDE911060D
:103D9000204607960A92CDE90D651396FEF72EFC94
:103DA00010B172B6FEE700BF0F20CDE902064FF456
:103DB0008050CDE9050502A802210495FEF7F2FA2C
:103DC00010B172B6FEE700BF14B070BD4EF6885059
:103DD000CEF20000016841F47001016070470000FC
:103DE000B0B50446006804F108030ECB0569194319
:103DF00025F440552A4302616269E3691143C268B0
:103E0000194349F20C639A431143C1604169A269A5
:103E100021F4407141F20043114340F48062C4F246
:103E200001039A42416103D1FEF782FB02E000BF29
:103E3000FEF76AFBE1694FF69C7563681922C0F6CC
:103E4000FF75B1F5004FA0FB02011FD15A00DB0F37
:103E5000FCF7D4F948F21F51C5F2EB11A0FB012386
:103E60005A0905F1805302FB0300322303EBC00023
:103E7000A0FB01014FF4F87000EA111000EB0210F2
:103E8000C1F34211084421688860B0BD9A009B0FBD
:103E9000FCF7B4F948F21F51C5F2EB11A0FB012366
:103EA0005A0902FB0500322303EB0010A0FB0101BD
:103EB000F02000EA511000EB0210C1F34311084456
:103EC00021688860B0BD0000FEE7000080B582B0C8
:103ED000019040F24010C2F2000001A901224FF609
:103EE000FF73FEF7F9FD019802B080BD86B0FEF7C2
:103EF000ADF9FFF719FFFFF761FEFFF73BFE642006
:103F0000FCF748FFFFF7C6FEFFF7E6FE00208DF83E
:103F1000170001200DF11701CDE9001040F2EC006F
:103F20004FF0FF37C2F20000D02175220123029723
:103F3000FDF7F4FD30B144F63720C0F6000000F084
:103F400071F811E09DF81710682907D144F6921016
:103F5000C0F6000000F0E0FC06E000BF44F65C1094
:103F6000C0F6000000F05EF8FCF716FC40F2EC0032
:103F7000C2F20000D02101226423FDF78BFC04462D
:103F80004FF47A70FCF706FF032C9ABF18A050F884
:103F9000240013A000F0C0FC40F21009C2F2000996
:103FA0000FF25C0809F1040661CEFCF76AF90746D6
:103FB00028460C46FCF765F941EC180B3046FCF737
:103FC00060F941EC100B40463A4623468DED008BDC
:103FD0008DED020B00F026F8FA20FCF7DBFEE1E79E
:103FE000556E6B6E6F776E207374617475732E00EF
:103FF0007F4A0008904A0008AC4A00086A4A000854
:10400000646174615F6275666665723A20252E325E
:10401000662020252E32662020252E3266200D0AAD
:10402000000000000FB4054B10B503A9044A029824
:1040300000F0DAF810BC5DF814FB0000CD3E00087B
:104040000000002002E008C8121F08C1002AFAD1AF
:1040500070477047002001E001C1121F002AFBD108
:10406000704700002DE9FF5F82B00021DDE90430D8
:10407000020DDDF840B0034318D044F61050A2F210
:10408000FF3242431514119801281FD0A5EB0B00F5
:10409000401C5FEA000A4FF000064E4FDFF83891EF
:1040A000B046504615D5CAF1000413E0119801241A
:1040B0004AA3012801D16FEA0B010298119AC0E9C5
:1040C0000031C0E9024206B0BDE8F09FCBF100002C
:1040D000DFE704460021404A491842EB0450CDE98D
:1040E000001012E0E00707D032463B464046494602
:1040F000FCF7B6F98046894632463B4610461946DB
:10410000FCF7AEF906460F466410002CEAD1DDE953
:104110000401DDE90023BAF1000F06DAFCF7A0F98B
:1041200042464B46FCF79CF905E0FCF70BFA424689
:104130004B46FCF707FA04460E460022284BFCF7D4
:1041400089FA03D84FF0FF30014607E00022254BE3
:1041500020463146FCF7DDF8FCF763FA102409E04D
:10416000002C0ADB0A220023FCF748F8039B3032BC
:104170001A55641E50EA0102F2D1641C039AC4F17C
:1041800011031444119A012A03D0012208430DD1CE
:104190000AE0084304D000204FF0110B119072E7A1
:1041A000A3EB0B056D1E0DE05B4504DD4FF0000237
:1041B00005F1010504E003DA4FF00002A5F1010565
:1041C000002AECD002981199C0E90231C0E90045FB
:1041D00079E70000000014400000F03F30000000CC
:1041E0000000F0430000E03F2DE9FF4F95B09B46F3
:1041F0008946064600250FE2252877D10024274668
:10420000F84A0121059400E0044316F8013F203BE1
:1042100001FA03F01042F7D130782A2811D06FF05C
:104220002F033078A0F13002092A16D8059A44F0FD
:10423000020402EB820203EB42021044761C05905A
:10424000EFE759F8042B0592002A03DA504244F4B0
:104250000054059044F00204761C30782E2816D1C4
:1042600016F8010F44F004042A280DD06FF02F0235
:104270003078A0F13003092B09D807EB870302EB54
:104280004303C718761CF3E759F8047B761C307893
:104290006C280FD006DC4C2817D068280DD06A286F
:1042A00014D104E0742810D07A280FD10DE044F422
:1042B00000140AE044F4801401E044F440147278DD
:1042C000824202D104F58014761C761C3078662870
:1042D0000BD013DC582877D009DC002875D045288E
:1042E000F6D04628F4D047281AD19DE118E063287B
:1042F00035D0642879D0652812D195E1702873D023
:1043000008DC6728F1D069286FD06E280DD06F289F
:1043100006D1B5E073282CD0752875D0782874D0D4
:104320005A46179990476D1C75E1C4F30250022854
:1043300009D003280DD0D9F8001004280DD00D6045
:1043400009F1040967E1D9F80010EA17C1E9005240
:10435000F6E7D9F800100D80F2E70D70F0E719F8D4
:10436000041B8DF8001000208DF80100EA460120A2
:1043700003E059F804AB4FF0FF3061074FF0000144
:1043800002D40DE008F101018846B9420FDA8045F8
:10439000F8DB1AF808100029F4D108E008F101014F
:1043A00088468142FADB1AF808100029F6D10598F0
:1043B0005B46A0EB080721463846179A00F094FAAE
:1043C000284400EB080507E04DE029E10DE01AF86C
:1043D000010B5A4617999047B8F10108F7D25B468E
:1043E00021463846179A13E142E00A220092C4F3AC
:1043F00002524FF0000A022A08D059F804CB032ACF
:104400004FEAEC710AD00DE029E02AE009F107013A
:1044100021F00702F2E802C1914609E00FFA8CFC94
:104420004FEAEC71042A03D14FFA8CFC4FEAEC718D
:10443000002907DA0A460021DCF1000C61EB0201D9
:104440002D2202E0220504D52B228DF80420012222
:1044500003E0E20701D02022F7E7904659E00A2165
:1044600002E010220DE010214FF0000A00910BE055
:1044700010224FF0000A44F004040827009203E0E1
:1044800008224FF0000A0092C4F30252022A05D01B
:1044900059F804CB0021032A08D009E009F10701EB
:1044A00021F00702F2E802C1914605E01FFA8CFCF8
:1044B000042A01D10CF0FF0C4FF00008220728D588
:1044C000702806D0009B83F0100353EA0A0305D03E
:1044D0000EE040228DF80420012208E05CEA01028F
:1044E00006D030228DF804208DF805000222904677
:1044F000009B83F0080353EA0A030AD15CEA010235
:1045000001D1620705D530228DF804204FF0010853
:104510007F1E582804D034A003900EA802900DE00E
:1045200036A0F9E753466046009AFBF767FE8446DB
:104530000398825C0298401E029002705CEA0100BF
:10454000F0D1029806A9081A00F1200A600702D5E6
:1045500024F4803400E00127574502DDA7EB0A0070
:1045600000E0002000EB0A01009005984144401A49
:104570000590E00306D45B462146179A059800F0A3
:10458000B3F90544002706E001A85A46C05D179913
:1045900090476D1C7F1C4745F6DBE0030CD55B465E
:1045A0002146179A059800F09FF9054404E0302051
:1045B0005A46179990476D1C0099481E0090002993
:1045C000F5DC08E0029802995A460078491C0291ED
:1045D000179990476D1CBAF10001AAF1010AF1DCAC
:1045E00065E10000092801003031323334353637B7
:1045F000383961626364656600000000303132332F
:1046000034353637383941424344454600000000CE
:1046100000F058F90544761C307800287FF4ECADA2
:1046200019B02846BDE8F08F620700D4062709F1CB
:10463000070222F0070CFCE80223E14603F00048E1
:104640005FEA080C02D00FF2702C0DE05FEA045C08
:1046500002D50FF2682C07E05FEAC47C02D00FF2AB
:10466000602C01E0AFF2700C4FF0FF3823F00043F4
:10467000CDF850C065280CD006DC452809D0462866
:104680001DD047283DD13DE0662818D067287ED14F
:1046900038E00021112F01DB112000E0781CCDE96A
:1046A000000106A90EA8FFF7DDFCDDE90F010E9A57
:1046B00003910021009207F1010A04914DE04FF0AF
:1046C00000400097CDE9011006A90EA8FFF7CAFC2B
:1046D000DDE90F0203920E9B11990022DDF80CA078
:1046E0000093049211B9791C00EB010AB7EB0A00A0
:1046F00004D4C0F1FF3007F1010A0490AAEB0700CF
:10470000019044E0012F00DA01270021112F01DD83
:10471000112000E03846CDE9000106A90EA8FFF7F8
:10472000A1FCDDE90F010E9A039100210491009292
:10473000BA4621070CD40399514500DA8A46BAF1EA
:10474000010F05DD009AAAF10101515C302908D062
:10475000B84202DA10F1040F06DA0121CDE90110A6
:1047600015E0AAF10101E9E7002805DC04990144FC
:104770000491AAEB000102E0411C514500DD8A468C
:104780000499401A401C01904FF00040029020070D
:1047900004D40198504501DBCDF8048000208DF849
:1047A0004F0002980DF14F07B0F1004F25D02B209C
:1047B0000E9002984FF0020800280CDA4042029056
:1047C0002D200E9007E00A210298FBF76DFD303195
:1047D000029007F8011DB8F10001A8F10108F2DC10
:1047E00002980028EFD1791E0E980870307800F0FA
:1047F000200040F0450007F8020D12A8C01B00F190
:1048000007081498007800B1012000EB0A01019814
:1048100001EBE07105984144401A401E0590E00309
:1048200006D45B462146179A059800F05DF80544CA
:104830001498007818B15A46179990476D1CE003F8
:1048400024D55B462146179A059800F04DF805449B
:104850001CE00498002807DBDDE90301884203DD42
:104860000098405C179901E0179930205A4690470C
:10487000049805F10105401C04900198401E019028
:1048800004D12E205A46179990476D1CBAF10001A9
:10489000AAF1010ADDDC05E017F8010B5A46179969
:1048A00090476D1CB8F10001A8F10108F4DC5B46EB
:1048B0002146179A0598ABE62D0000002B0000005A
:1048C000200000002DE9F041044600251E46174651
:1048D000880404D405E039462020B0476D1C641ECE
:1048E000F9D52846BDE8F0812DE9F04104460025C0
:1048F0001E469046C80301D5302700E020278804D3
:1049000004D505E041463846B0476D1C641EF9D514
:104910002846BDE8F081000010B5044601E0FFF72D
:10492000D5FA14F8010B04490028F8D1BDE810406D
:104930000A20FFF7CBBA00000000002000000000B2
:10494000000000000102030406070809000000003F
:104950000102030400061016000610164572726567
:1049600075723A204D50552D3630353020646574BF
:10497000656374652C206D61757661697365207659
:10498000616C657572206C7565203A202569200D73
:104990000A004D50552D36303530206465746563FE
:1049A0007465206F6B200D00436F6E6669677572CA
:1049B0006174696F6E206475204D50552D36303509
:1049C00030207465726D696E65652E0D00457272DA
:1049D00065757220646520636F6E666967757261C4
:1049E00074696F6E20494E545F454E41424C450DEF
:1049F0000045727265757220646520636F6E66692A
:104A00006775726174696F6E20434F4E4649470D5A
:104A10000045727265757220646520636F6E666909
:104A20006775726174696F6E20414343454C5F4303
:104A30004F4E4649470D004572726575723A2049DE
:104A40006D706F737369626C65206465206C697248
:104A500065206C65207265676973747265205748BC
:104A60004F5F414D5F490D0A20004F7065726174C0
:104A7000696F6E2074696D6564206F75742E0044D3
:104A800065766963652069732072656164792E00BB
:104A90004572726F723A2044657669636520697366
:104AA000206E6F742072656164792E0044657669AA
:104AB000636520697320627573792E00E04A0008EF
:104AC000000000201000000044400008F04A0008E8
:104AD0001000002080050000544000080000000085
:104AE0000000000001000000100000000024F4009D
:04000005080001C529
:00000001FF
