:020000040800F2
:1000000020070020D9010008C52E0008BD250008E2
:10001000C12E000815030008553400080000000038
:10002000000000000000000000000000CD2E0008CD
:100030003D03000800000000C92E0008D12E000872
:10004000F3010008F3010008F3010008F3010008C0
:10005000F3010008F3010008F3010008F3010008B0
:10006000F3010008F3010008F3010008F3010008A0
:10007000F3010008F3010008F3010008F301000890
:100080001903000825030008F3010008F301000824
:10009000F3010008F3010008F3010008F301000870
:1000A000F3010008F3010008F3010008F301000860
:1000B000F3010008F3010008F3010008CD25000852
:1000C000C1250008F3010008F3010008F30100084E
:1000D000F3010008F3010008F3010008F301000830
:1000E00041030008F3010008F3010008F3010008D0
:1000F000F3010008F3010008F301000831030008D0
:10010000F3010008F3010008F3010008F3010008FF
:10011000F30100088D2F0008F3010008F301000827
:10012000F3010008F3010008F3010008F3010008DF
:10013000F30100080000000000000000F3010008C7
:10014000F3010008F3010008F3010008F3010008BF
:10015000F3010008F3010008F3010008F3010008AF
:10016000F3010008F3010008F3010008F30100089F
:10017000F3010008F3010008F3010008000000008B
:1001800000000000F3010008000000000000000073
:10019000F30100080000000000000000F301000867
:1001A000000000000000000000000000F301000853
:1001B000F3010008F3010008F3010008F30100084F
:1001C000F3010008DFF80CD000F08CF8004800477D
:1001D0007934000820070020064880470648004779
:1001E000FEE7FEE7FEE7FEE7FEE7FEE7FEE7FEE7E7
:1001F000FEE7FEE7792F0008C50100082DE9F05F52
:100200000546002092469B46884606468146402485
:100210001BE0284641464746224600F053F8534625
:100220005A46C01A914110D311461846224600F092
:100230003AF82D1A67EB01084F46224601200021AB
:1002400000F031F817EB00094E41201EA4F1010423
:10025000DFDC484631462A464346BDE8F09F40EA87
:1002600001039B0703D009E008C9121F08C0042A34
:10027000FAD203E011F8013B00F8013B521EF9D21B
:100280007047D2B201E000F8012B491EFBD2704743
:100290000022F6E710B513460A4604461946FFF752
:1002A000F0FF204610BD202A04DB203A00FA02F1BC
:1002B000002070479140C2F1200320FA03F3194354
:1002C00090407047202A04DB203A21FA02F00021F6
:1002D000704721FA02F3D040C2F120029140084356
:1002E000194670471CB50948009009480190054619
:1002F000009C06E0E06840F0010394E8070098479E
:100300001034AC42F6D3FFF761FF0000003600085E
:1003100020360008FEE7000040F21400C2F20000A0
:1003200000F07CB840F27400C2F2000000F076B831
:1003300040F2D400C2F2000000F070B87047000034
:1003400080B54FF4006000F065FA4FF40050BDE84E
:10035000804000F05FBA000072B600BFFEE7000008
:1003600070B5866D044600F037FB94F8351002290D
:1003700028D105462068216C026822F0160202602E
:10038000426922F08002426109B9A16C19B1016889
:1003900021F008010160016821F00101016000BF46
:1003A00020680068C00715D000F016FB401B062827
:1003B000F6D320206065032084F83500002184F8FE
:1003C000341070BD802060650120002184F8341055
:1003D00070BD00BFE06D3F2101FA00F0B060012068
:1003E00084F835000020002184F8341070BD00002E
:1003F00090F83510022909D1052180F835100068E0
:10040000016821F0010101600020704780214165F1
:100410000120704790F8350070470000F0B581B0BA
:100420000021009140F20C01C2F200010B68D0E9FA
:10043000166148F2B51537680822C1F64E358A4074
:100440003A42A3FB05350CD003681C68640708D545
:100450001C6824F004041C60B260426D42F001028A
:10046000426501228A403A4208D003685B691B0654
:1004700004D5B260426D42F00202426504228A4015
:100480003A4208D003681B689B0704D5B260426DEE
:1004900042F00402426510228A403A4219D00168B3
:1004A0000B681B0715D5B2600B680A685B0309D49B
:1004B000D20509D40A6822F008020A60016C29B941
:1004C00007E000BF110341D4016C11B10446884715
:1004D0002046C26D202101FA02F33B4243D001685D
:1004E0000F68FF063FD5B36090F835700B68052F95
:1004F0001CD123F016030B604B6923F080034B6182
:10050000036C0BB9836C1BB10B6823F008030B6001
:100510003F219140B160012180F83510016D00222A
:10052000002980F8342054D158E000BF0A685B03EA
:1005300010D4D20512D40A6822F010020A600121F8
:1005400080F83510002180F8341007E0816C002914
:10055000BCD1BEE7110301D4416C00E0C16B11B105
:10056000044688472046416DC1B3416DC9072ED06E
:10057000052180F835100168AA0A0B6823F00103F1
:100580000B60009B0133934200931AD80B68DB0782
:1005900017D0009B01339342009312D80B68DB07FE
:1005A0000FD0009B0133934200930AD80B68DB07FE
:1005B00007D0009B01339342009302D80B68DB07FE
:1005C000DFD1012180F83510002180F83410C16C92
:1005D00021B101B0BDE8F040084700BF01B0F0BD57
:1005E0002DE9F041044600F0F7F9ECB10546022090
:1005F00084F835000020216884F83400086820F071
:100600000100086021680868C00711D000F0E4F913
:10061000401B0528F6D9032520230320636584F8B1
:100620003550BDE8F08100BF0120BDE8F08100BF7A
:10063000086848F23F02CFF21002D4E9013500EA1F
:10064000020C04F10C0898E8C10143EA0C032B43A7
:100650001843D4E9072E304338431043626A40EA16
:100660000E00042A40EA08031CD1206BD4E90A2EAC
:1006700040EA0E00184308604869BEF1000F20F000
:10068000030040EA020040F0040C11D0B8F5005F0E
:1006900036D0B8F1000F45D1022A46D0012A3BD00E
:1006A00032B942E00B60486920F0070040EA020CD2
:1006B00001F0F8004AF6AB221038CAF6AA22A0FBD5
:1006C00002231A0943F2E453C1F814C0C0F6000330
:1006D0009A5C40F2FF335F284FF03F0021EA0301AC
:1006E00000FA02F088BF0431C4E9161288600023C2
:1006F00001250020636584F83550BDE8F08100BF16
:10070000032AD5D8012540230120DFE802F0030E9B
:10071000030500BF82E700BFAEF1C070B0FA80F001
:10072000400904E0032A04D3C2D1CEF300600028BC
:10073000BED0012540230120636584F83550BDE813
:10074000F081000090F834C0BCF1010F04BF02201A
:10075000704770B54FF0010C80F834C0D0F858E005
:1007600090F835C0BCF1010F38D14FF0020C80F881
:1007700035C04FF0000CC0F854C0D0F800C08468F9
:10078000056CC06DDCF80060402C26F48026CCF8A7
:100790000060CCF804300B4604BF13460A463F21E4
:1007A00001FA00F0CCF80830CCF80C20CEF80800A4
:1007B000DCF8000040F01600CCF800002DB1DCF8A9
:1007C000000040F00800CCF80000DCF8000040F029
:1007D0000100CCF80000002070BD00BF002180F8AF
:1007E0003410022070BD0000B0B5044600F0F4F8EB
:1007F000054640F20400C2F200000078611C18BFF8
:10080000044400BF00F0E8F8401BA042FAD3B0BD9A
:100810007047000043F61441C4F201010A68024225
:1008200014BF08607047FFF7F3BF00002DE9F04FD9
:1008300083B000F1200200F13E4741F6000500922E
:1008400007F1FF77C4F2020507224FEAB726A84254
:1008500008BF062200254FF000084FF00009062EC1
:1008600038BF4FEAB72201920AE000BF09F101093F
:1008700008F10208B9F1100F05F1040500F0A2809B
:100880000F68012202FA09FE17EA0E0AEED0D1F82B
:1008900004C003220CF003077E1E02FA08F4012EA6
:1008A0006FEA040B12D88468CE6804EA0B0406FAD7
:1008B00008F634438460446824EA0E06CCF300143E
:1008C00004FA09F42643466004E000BF032F01D177
:1008D00003271EE0C6688C6806EA0B0604FA08F4D3
:1008E0002643022FC66014D16FF00302009E02EA75
:1008F000590756F807C005F01C040F220B69A240E7
:100900002CEA0202A3401A43F251D1F804C00CF0C1
:100910000307026807FA08F302EA0B021A431CF401
:10092000403F0260A2D0002243F644030292C4F288
:1009300002031A6843F6004442F480421A601A68BF
:10094000C4F2010402F480420292029A29F00302E6
:100950004FF6084C2244CFF6FF7C52F80C3005F0DD
:100960000C070F26BE40B343019E06FA07F73B4330
:1009700042F80C30A2684B6842EA0A0743F60C4C76
:10098000DE0258BF22EA0A07A760C4F2010CDCF8B5
:1009900000209E0242EA0A0758BF22EA0A07CCF862
:1009A000007062689E0342EA0A0758BF22EA0A07FB
:1009B00067602268DB0342EA0A0758BF22EA0A0797
:1009C000276053E703B0BDE8F08F0000002A08BF9E
:1009D000090481617047000040F21C30C2F200003F
:1009E000006870477047000070470000F0B581B0A4
:1009F0000446006800254769426894F83E1002F4F6
:100A00008076FA0505D5002E1EBF6FF48072426114
:100A10000125BA0505D5002E1EBF02356FF4007200
:100A200042617A0516D5AEB1628D94F83D30D4F8A6
:100A300030C0202908BF002A24D06FF480624029EA
:100A400005F10405426101D0102903D1016841F488
:100A500000710160380507D536B1206808356FF49C
:100A60000061416101E000BF55B1206C40EA050121
:100A70002046216401B0BDE8F04001F03FBE00BF58
:100A800001B0F0BD03F0F701212909D0282B08BFE0
:100A9000BCF1210F04D06FF4806141610435D9E7C6
:100AA00094F83D10E26AB2F1080318BF0123203A1E
:100AB00018BF0122134208BF282921D0212939D18A
:100AC0000021CFF6FF71E16221212163202184F80A
:100AD0003D10002184F83E10426822F4E06242603A
:100AE0006FF480624261026822F4806202604269AF
:100AF000120648BF0161204600F066FCAAE700BF6D
:100B00000021CFF6FF71E162416821F4E0614160AC
:100B10006FF480614161016821F48061016000200F
:100B20002021206384F83D1084F83E00204600F028
:100B3000B7FB8FE76FF4806141618BE7F0B581B05F
:100B400007687968C26A90F83E5090F83DE0402D01
:100B500001D0102D34D1BB697C69E60718D1B2F100
:100B60002A4F00F06782B2F52A0F00F06382220755
:100B700001F4007240F10681002A00F00381416B0C
:100B8000426C0029D2B23A6140F0B080B0E000BFC0
:100B90008A0543D44FF0010C7A685B076ED41205C6
:100BA00000F1488204F04402402A40F0598111F4D7
:100BB000806100F0558101B0BDE8F04001F0E0BE79
:100BC000026C01F40073002A0CBFBC6900247D692B
:100BD000AA0729D543B3016C002918BFBC6990F856
:100BE0003D1001F02801282940F0C08079680122D9
:100BF00021F48061796004F0040182EA9101220607
:100C00004FF0180258BF0C22825A002380F83C3063
:100C100001B0BDE8F040FFF7E7BE00BFC16AB1F523
:100C20002A0F3DD1012140E0EA066FD5002B6DD09F
:100C300090F83D50796821F4E061796000210091DD
:100C400079690091396841F001013960009939688A
:100C500021F4806139607968090540F1798105F0F6
:100C6000F7010446222940F0498154F8381F0A68E8
:100C7000526824F80E2C34F80E2C47E1120500F1CE
:100C8000D98104F08402802A40F0F88011F4806158
:100C900000F0F48001B0BDE8F04001F057BF00BFA4
:100CA000C16AB1F12A4F01D10821C16290F83E100A
:100CB00040290BD1016D406C002900F0FE0018BFE7
:100CC00040F00100386101B0F0BD00BF0169B1F52D
:100CD000804F40F0898090F83D10426C212902F04D
:100CE000FE0218BF01323A61416B09B1C96B39B9D3
:100CF000806B002800F09E81C06B002800F09A8174
:100D0000786840F40060786001B0F0BD0EF0F70242
:100D1000212A79D105F08402802A40F0C18011F4A3
:100D2000806100F0BD8090F83D10428D002A00F0F7
:100D30008181426A12F8013B3B614262428D013A75
:100D40004285428D002A08BF292940F073817968C5
:100D500021F48061796021210163282180F83D1010
:100D600001B0BDE8F04000F02FBB00BF00210091B2
:100D70007A690092BA690092009A80F83C1001B03A
:100D8000F0BD00BF4FF0010CA6078CEA522C7FF596
:100D900003AF002A3FF400AF90F83E20C16A036B16
:100DA00090F83D60222E40F09F80066D002E08BF17
:100DB000402A00F09980026D002A40F03D810269CE
:100DC000B2F5404F40F038810021009179690091DF
:100DD000B96900910099396841F480713960016DF9
:100DE0000131016501B0F0BD016D002900F0008105
:100DF000016D012940F01E81406C062101EAD010EE
:100E0000F130386101B0F0BD05F04402402A57D1FD
:100E100011F4806154D090F83D10428D002A00F00A
:100E200009813A69436A1A70426A01324262428D0C
:100E3000013A4285428D002A08BF2A2940F0FA80F3
:100E400001684A6822F480624A60222101632821F5
:100E500080F83D1001B0BDE8F04000F0B3BA00BF2B
:100E600004F00401012282EA910151EA0C0140F0F0
:100E7000E18001B0BDE8F04001F006BD04F00401DE
:100E8000012282EA910151EA0C0140F0D380BEF1C7
:100E9000210F40F0C78001B0BDE8F04001F014BE62
:100EA000690740F1C780002B00F0C480418D002904
:100EB00000F0C080416A11F8012B3A610FE000BFD9
:100EC000690740F1B780002B00F0B480418D002904
:100ED00000F0B0803969426A1170416A01314162A3
:100EE000418D01394185A5E000200090786900908E
:100EF000B8690090009801B0F0BD00BF54F8341FED
:100F00000A68526824F80A2C34F80A2C1AB1026CC8
:100F100042F0040202647A68064622F4006208463F
:100F20007A60FFF777FA01463046012910D0206831
:100F300042F2D951C0F600010165FFF759FA0146A6
:100F4000304629B1216804460A6D0846904720467C
:100F5000418D61B101684A6952072FD44A6952062E
:100F600039D4418D19B1016C41F004010164016C67
:100F700021B101B0BDE8F04001F0C0BB2A2D08D17D
:100F800000210163282180F83D10044600F01AFA80
:100F9000204690F83D10282932D10021CFF6FF716C
:100FA000C16200212022016380F83D2080F83E10BC
:100FB00001B0BDE8F04000F073B900BF0969426AB2
:100FC0001170426A016801324262428D013A4285E3
:100FD0004A695206C5D50969426A1170416A0131F0
:100FE0004162418D01394185418D0029BBD1BEE768
:100FF000406C062101EAD010F030386101B0F0BD3C
:10100000016B222918BF222D14D100212022016357
:1010100080F83D2080F83E1001B0BDE8F04000F0BF
:10102000D1B900BF402D05D101B0BDE8F04001F0BD
:10103000E7BD00BF01B0F0BD428D52B1428D012A23
:1010400016D1202918BF082926D1396821F48061DA
:1010500039600021009179690091B9690091009986
:10106000396841F4007139600021016501B0F0BDBB
:10107000428D022A0CD1102932D8012214238A4031
:10108000C0F201031A422BD04FF480622EE000BF61
:101090003A6842F480622BE011F5803F0CD1396848
:1010A00021F48061396079680905D2D5396821F465
:1010B0008061396030E000BF122B01D10129C4D119
:1010C0001029F3D8012202FA01F11422C0F2010220
:1010D0001142EBD0396841F4806139601CE000BFF7
:1010E0003A6822F480623A604FF400623B681A4327
:1010F0003A607A6812050FD54A1E1F2A18D80123B4
:1011000003FA02F248F28103C8F200031A420FD038
:10111000796841F4805179600021009179690091EA
:10112000B969009100990021016501B0F0BD00BFCF
:1011300011F5803FECD0EFE770470000002804BFB6
:1011400001207047F0B581B0044690F83D0028B901
:10115000002084F83C00204600F0ACF8242084F8FD
:101160003D002068016821F001010160016841F43F
:1011700000410160016821F40041016000F092FA31
:10118000636848F2A16CC0F2010C40F60011C0F295
:101190003D0163453CBF48F28041C0F21E018842D8
:1011A00002D2012001B0F0BD4DF68361C4F21B31C3
:1011B000A0FB01122168970CD1F804E04FF4967659
:1011C0002EF03F0545EA92454D60774348F63816C4
:1011D0000D6AC0F24106A7FB067625F03F0763457E
:1011E00038BF960C721C3A430A62CA6948F2A0667C
:1011F0004CF6FF77C0F20106B34222EA07020BD891
:1012000001385B00B0FBF3F001306FF31F300428AE
:1012100098BF04201BE000BFA768013857B1192709
:101220007B43B0FBF3F001306FF31F3070B100F57A
:10123000804007E003EB4303B0FBF3F001306FF3B2
:101240001F3018B100F5004001E000BF012010433D
:10125000C8610868D4E9072320F0C0001043184390
:101260000860886848F2FF3204F10C0790438CCF85
:1012700018431043A6698860C86820F0FF0038430F
:101280003043C860086840F0010008600020202159
:10129000206484F83D10206384F83E0001B0F0BD66
:1012A0007047000070470000704700007047000062
:1012B000704700002DE9F04387B0044645F2004036
:1012C0002168C4F20000002681420696CDE904663A
:1012D0000396029602D007B0BDE8F08343F63005CE
:1012E0000196C4F20205296846F2880841F002011D
:1012F0002960296800F5D83001F0020101910199B7
:10130000C02102911221CDE9031603210591042188
:10131000069102A9C4F20208FFF788FA019628692B
:101320004FF0007740F400102861286940F214055E
:1013300000F4001001900198C2F200054FF480699A
:101340002846C5E90087C5E90266C5E90496C5E9EE
:101350000666C5E90866FFF743F9002818BFFEF7DF
:10136000FBFFA563AC6340F2740508F11800C2F2FC
:1013700000054021C5E9000705F10800002280E8CA
:1013800006022846C5E90522C5E907226A62FFF779
:1013900027F9002818BFFEF7DFFF1F2000210022D9
:1013A0006563AC6300F090F81F2000F07BF820200C
:1013B0000021002200F088F8202000F073F807B028
:1013C000BDE8F083704700007047000040F2040061
:1013D00040F21C31C2F20000C2F2000100780A683B
:1013E000104408607047000080B543F60040C4F226
:1013F0000200016841F400710160016841F48061FC
:101400000160016841F480710160032000F088F8F8
:10141000002000F005F800F027F8002080BD000053
:1014200070B540F20406C2F2000640F20C013278B8
:10143000C2F200014FF47A730968B3FBF2F204467A
:10144000B1FBF2F1084600F095FB0F2C4FF00105BF
:1014500008D838B94FF0FF3021460022002500F0AF
:1014600033F87460284670BD82B0002043F6400116
:101470000190C4F202014A6842F480424A604A681C
:1014800002F480420192019A0090086840F0805076
:101490000860086800F0805000900098072002B0B3
:1014A00000F03EB8002848BF704700F01F0101223D
:1014B00002FA01F11C2202EAD0004EF20012CEF232
:1014C000000281507047000010B54EF60C5CCEF261
:1014D000000CDCF80030C3F3022E8EF00704042C5D
:1014E00028BF0424BEF103034FF0FF3E0EFA04F4BC
:1014F00038BF0023A14399400EFA03F39A431143E6
:1015000000F00F0200F160430901043A03F564435F
:101510006244002848BF02F10C03197010BD00009E
:101520004EF60C51CEF200010A684FF6FF031A4046
:1015300060F30A2242F0806040F0FD70086070475E
:10154000002804BF012070472DE9F04143F6080848
:10155000C4F202080446D8F8F8030D4600F00F0064
:10156000884207D288F8F853D8F8F80300F00F0043
:10157000A84277D12068810717D5410705D5D8F84B
:10158000001041F4E051C8F80010010705D5D8F863
:10159000001041F46041C8F80010D8F80010A268AB
:1015A00021F0F0011143C8F80010C00740D1D8F86D
:1015B000F80300F00F00A84207D988F8F853D8F8CC
:1015C000F80300F00F00A8424CD12068410707D56E
:1015D000D8F80010E26821F4E0511143C8F8001077
:1015E000000708D5D8F80000216920F4604040EADF
:1015F000C100C8F8000000F07DF8D8F8001043F2F0
:10160000CC52C1F30311C0F60002515C40F20C024F
:1016100020FA01F140F20800C2F200000068C2F2B4
:1016200000021160FFF7FCFE0020BDE8F08100BF62
:101630006068811E022907D258F8081C89015CBF26
:101640000120BDE8F08111E0012807D158F8081CFD
:1016500089035CBF0120BDE8F08107E058F8081C51
:10166000890703D40120BDE8F08100BFD8F800103D
:1016700021F003010843C8F80000FFF7ADF9064662
:1016800041F28837D8F80000616800F00C00B0EB38
:10169000810F8CD0FFF7A0F9801BB842F2D903204C
:1016A000BDE8F08140F20C0043F60801C2F20000F0
:1016B000C4F202010068096843F2DC52C1F38221DE
:1016C000C0F60002515CC8407047000040F20C00B8
:1016D00043F60801C2F20000C4F202010068096882
:1016E00043F2DC52C1F34231C0F60002515CC84003
:1016F0007047000010B543F60404C4F202046068A9
:10170000C0F3810142F20040C0F2F400DFE801F0D2
:101710004202081841F20020C0F27A0010BD00BF5A
:10172000216801F03F02216823684902C3F3881150
:1017300016D4A1FB00010023FEF760FD17E000BFF7
:10174000216801F03F02216823684902C3F3881130
:1017500014D4A1FB00010023FEF750FD15E000BFEB
:1017600041F20020C0F27A004843B0FBF2F0216859
:101770000222C1F3014102EB410109E041F20020E4
:10178000C0F27A004843B0FBF2F02168C1F3027165
:10179000B0FBF1F010BD0000002804BF012070472D
:1017A0002DE9F04182B00446007843F60006C007F8
:1017B000C4F202060CD0B06800F00C00042840F01F
:1017C00089803068800303D56068002800F050816C
:1017D0002078800723D5B06810F00C0F11D0B068C6
:1017E00000F00C00082802D17068400209D5B068EA
:1017F00000F00C000C2840F09F807068400200F15F
:101800009B803068800703D5E068012840F0308174
:101810003068216920F0F80040EAC100306020788B
:10182000000713D4207840072AD4A569002D00F0C2
:101830001A81B06800F00C00082840F0AB80012D40
:1018400040F0E880012002B0BDE8F0816069002826
:1018500040F20000C4F2472000F088800121C0F867
:10186000801EFFF7B9F80546706F8007DAD4FFF7DE
:10187000B3F8401B0228F7D9032002B0BDE8F0817D
:10188000306C5FEAC0080AD400200190306C40F050
:1018900080503064306C00F080500190019847F225
:1018A0000007C4F200073868C00537D4386840F430
:1018B00080703860FFF790F8054600BF3868C005B3
:1018C0002CD4FFF789F8401B0228F7D9032002B077
:1018D000BDE8F081B06800F00C00082803D1706802
:1018E00040023FF56EAFB06800F00C000C2803D149
:1018F000706840023FF565AF61683068B1F5803FC0
:1019000007D0B1F5A02F40F0CB8040F480203060AC
:10191000306840F480303060CBE000BFA168306FA9
:10192000012905D0052957D140F004003067306FF8
:1019300040F00100306759E0E068002800F09C802A
:101940000020C4F2472001210160FFF745F8054659
:10195000306880073FF55CAFFFF73EF8401B022878
:101960004FF00300F4D902B0BDE8F0810021C0F8C7
:10197000801EFFF731F80546706F80077FF552AF84
:10198000FFF72AF8401B0228F6D9032002B0BDE871
:10199000F08100BF0027C4F2472700203866FFF718
:1019A0001BF8022D05460BD13068800140F1928072
:1019B000FFF712F8401B02284FF00300F4D9D2E7DA
:1019C000306880014FD5FFF707F8401B02284FF021
:1019D0000300F5D9C7E700BF20F001003067306F82
:1019E000002920F00400306700F09880FEF7F4FF33
:1019F000054641F2883700BF306F800700F1A080B4
:101A0000FEF7EAFF401BB842F6D9032002B0BDE85A
:101A1000F08100BF7068E16900F480028A4227D13A
:101A2000216A00F03F028A4222D147F6C071626A01
:101A30000140B1EB821F1BD1A16A4FF6FF73C903AE
:101A4000994300F44032A1F580318A4210D1E16A15
:101A500000F07062B2EB016F0AD1216B00F0E04040
:101A6000B0EB017F04D1002002B0BDE8F08100BFDF
:101A7000012002B0BDE8F0810020C4F2472000211F
:101A80000160FEF7A9FF0546306880077FF5C7AE05
:101A9000FEF7A2FF401B02284FF00300F4D962E7D3
:101AA00020F4803030603068002920F480203060DD
:101AB00050D0FEF791FF0546306880033FF588AEB1
:101AC000FEF78AFF401B6428F6D9032002B0BDE868
:101AD000F08100BF04F11C052FCD246B084340EAC0
:101AE0008210D9034FF6FF729143A1F5803140EA8D
:101AF0000560084340EA0470706001203866FEF714
:101B00006BFF044630688001ADD4FEF765FF001B13
:101B100002284FF00300F5D925E700BFFEF75CFF70
:101B2000054641F2883700BF306F800708D5FEF7C1
:101B300053FF401BB8424FF00300F5D913E700BF35
:101B4000B8F1000F3FF571AE306C20F0805030647A
:101B50006BE600BFFEF740FF054600BF306880031C
:101B60007FF536AEFEF738FF401B64284FF00300C8
:101B7000F4D9F8E6411E0020B0EB116F1CBF012024
:101B800070474EF21002CEF2000251604EF6235121
:101B9000CEF20001F0230B700721906011607047B6
:101BA0007047000070470000B0B582B001680A6855
:101BB000CC684B6902F02F05202D04F0200505D1DB
:101BC00025B102B0BDE8B04001F050BB5FEA027C35
:101BD0001EBF03F0010E04F4907313EB0E0341D10A
:101BE000036BD50618D5012B16D114F0100313D0B2
:101BF000002201920A6801924A680192019A496999
:101C000049064BD4818DC28DC38D002B18BF9142E4
:101C100040F0F48102B0B0BD13062DD514F080035E
:101C20002AD090F84120212AF4D18268B2F5805F51
:101C300003D10269002A00F06782026A531C036222
:101C400012784A60C28C013A1304C284E2D1C86897
:101C500020F08000C860C86840F04000C86002B052
:101C6000B0BD00BFD30718BF14F4807340F0D0801C
:101C7000530700F1D380D8E05206CBD514F04002D0
:101C8000C8D0CA6822F04002CA60202180F8411002
:101C900002B0BDE8B04000F08DBC00BFC16B0A6867
:101CA000526893B2002BB5D0858DAB42B2D2C285BB
:101CB000C969B1F5807F00F0A080016851E8031F79
:101CC000026821F4807142E80313DBB1016851E836
:101CD000031F026821F4807142E8031393B1016885
:101CE00051E8031F026821F4807142E803134BB1ED
:101CF000016851E8031F026821F4807142E8031370
:101D0000002BDAD1016851E8051F026821F00101BA
:101D100042E80513BBB3016851E8051F026821F0D2
:101D2000010142E8051373B3016851E8051F026819
:101D300021F0010142E805132BB3016851E8051FAA
:101D4000026821F0010142E80513002BDAD11AE004
:101D5000016851E8051F026821F0400142E80513BF
:101D6000DBB1016851E8051F026821F0400142E83B
:101D7000051393B1016851E8051F026821F0400185
:101D800042E805134BB1016851E8051F026821F0D4
:101D9000400142E80513002BDAD1202180F84210DF
:101DA00000210163016851E8031F026821F010015E
:101DB00042E80313DBB1016851E8031F026821F018
:101DC000100142E8031393B1016851E8031F026850
:101DD00021F0100142E803134BB1016851E8031FE1
:101DE000026821F0100142E80313002BDAD1C16B25
:101DF00004460846FEF7B4FA204602214163818D6D
:101E0000C28D891A89B202B0BDE8B040FFF7C8BEE2
:101E1000436C43F001034364530706D5BEF1000F42
:101E200003D0436C43F002034364930706D5BEF12D
:101E3000000F03D0436C43F004034364BCF1000F74
:101E400006D55EEA050303D0436C43F00803436400
:101E5000436C002B3FF4DEAE920605D525B1044657
:101E600001F004FA216820464969426C01F0400102
:101E700002F00802891800F0B98000BF016851E83B
:101E8000031F026821F4907142E80313BBB3016899
:101E900051E8031F026821F4907142E8031373B301
:101EA000016851E8031F026821F4907142E80313AE
:101EB0002BB3016851E8031F026821F4907142E8D6
:101EC0000313002BDAD11AE0016851E8051F0268FC
:101ED00021F0010142E80513DBB1016851E8051F5B
:101EE000026821F0010142E8051393B1016851E84D
:101EF000051F026821F0010142E805134BB101689A
:101F000051E8051F026821F0010142E80513002B8A
:101F1000DAD1016B012924D1016851E8031F02685D
:101F200021F0100142E80313DBB1016851E8031FFF
:101F3000026821F0100142E8031393B1016851E8EF
:101F4000031F026821F0100142E803134BB101683E
:101F500051E8031F026821F0100142E80313002B2F
:101F6000DAD1202180F8421000210163016849691B
:101F7000490640F1C380016851E8051F026821F05D
:101F8000400142E80513DBB1016851E8051F026812
:101F900021F0400142E8051393B1016851E8051FA3
:101FA000026821F0400142E805134BB1016851E895
:101FB000051F026821F0400142E80513002BDAD129
:101FC000C16B002900F09A8042F69972C0F60002B7
:101FD000044608460A65FEF70BFA00283FF41AAEDD
:101FE000E06B016D02B0BDE8B04008470446FFF762
:101FF000D9FD0020606402B0B0BD00BF891A00BFE7
:10200000026852E8032F036822F4907243E8032524
:10201000BDB3026852E8032F036822F4907243E8CC
:10202000032575B3026852E8032F036822F4907207
:1020300043E803252DB3026852E8032F036822F416
:10204000907243E80325002DDAD11AE0026852E8C5
:10205000052F036822F0010243E80525DDB102687F
:1020600052E8052F036822F0010243E8052595B1E7
:10207000026852E8052F036822F0010243E80525B3
:102080004DB1026852E8052F036822F0010243E8CF
:102090000525002DDAD1202280F84220002202639B
:1020A000026852E8032F036822F0100243E8032578
:1020B000DDB1026852E8032F036822F0100243E802
:1020C000032595B1026852E8032F036822F010023D
:1020D00043E803254DB1026852E8032F036822F05C
:1020E000100243E80325002DDAD1022289B24263AF
:1020F00002B0BDE8B040FFF753BD00BF02B0BDE87D
:10210000B040FFF74FBD00BF026A32F8023B6FF3E9
:102110005F234B60026295E5002804BF01207047F1
:1021200010B5044690F8410028B9002084F840001A
:10213000204600F021F8242084F841002068C1687E
:1021400021F40051C160204601F010F920680169B6
:1021500021F490410161416921F02A014161C16886
:1021600041F40051C16000202021606484F84110D6
:1021700084F84210606310BD2DE9F04786B0026814
:1021800044F20043C4F2000300219A42CDE9041155
:10219000CDE90211019177D045F20001C4F20001AE
:1021A0008A4240F098808046002643F63000009630
:1021B000C4F202000169002541F480110161016946
:1021C000C4F2020501F480110091009900960168A3
:1021D00001AC41F00401016001684FF0020901F017
:1021E000040100910099009601684FF0030A41F044
:1021F000080101600068082700F0080000900098BE
:102200004FF48050019005F500602146CDE902961B
:10221000CDF810A00597FEF709FB0420CDE90109D0
:1022200005F540602146CDE9036A0597FEF7FEFA01
:1022300040F2D40446F2B800C2F20004C4F2020034
:102240004FF0006140224FF4806384E8470020464D
:10225000C4E90436C4E90666C4E90866FEF7C0F9B5
:10226000002818BFFEF778F8352000210022C8F8B2
:102270003840C4F83880FFF727F93520FFF712F906
:1022800006B0BDE8F08700BF43F630000091C4F20D
:102290000200026942F400320261026902F4003273
:1022A0000092009A0091026842F001020260006808
:1022B00000F00100009000980C2001900220CDE970
:1022C000020103200490072005900020C4F20200C0
:1022D00001A9FEF7ABFA06B0BDE8F08790F84230EE
:1022E000202B07D100294FF0010318BF002A05D188
:1022F0001846704702231846704700BF0023036347
:10230000816222218285C285436480F8421001697E
:10231000006819B1C16841F48071C160416941F040
:1023200001014161C16841F02001C1601846704758
:10233000006845F20001C4F20001884218BF7047EE
:1023400010B540F21824C2F20004207800F044FFD7
:1023500040F2D010C2F2000021460122BDE8104038
:10236000FFF7BCBF2DE9F04381B0044690F841006F
:10237000202809D100294FF0010018BF002A07D1F9
:1023800001B0BDE8F08300BF022001B0BDE8F083DA
:102390000020606421201D460E4684F84100174647
:1023A000FEF71AFBA784E784A1688146B1F5805F38
:1023B00002D1206900285DD037460020E28C2168D8
:1023C000002A5DD06A1C24D0002D4AD0804600BF70
:1023D0000868000608D4FEF7FFFAA0EB0900A8423F
:1023E0007AD82168C868F3E717B117F8010B04E041
:1023F00038F8020B00276FF35F204860E08C01384B
:10240000E084E08C0028E3D13AE000BF0A681206BD
:1024100009D40A68120606D40A6812065CBF0A6864
:102420005FEA0262F2D51FB117F8012B05E000BF89
:1024300030F8022B00276FF35F224A60E28C013AEA
:10244000E284E28C002AE4D11AE000BF30F8022BCB
:1024500000276FF35F224A60E28C013AE284E28C4B
:1024600072B10A68120635D5002FEFD017F8012B8C
:10247000F1E700BF00273046E28C2168002AA1D195
:10248000086840061ED42DB3681C14D108684006A5
:102490002AD40868400627D40868400624D408686F
:1024A00040064FF00000F1D50DE000BF2068C16884
:1024B0000068400618D4FEF78FFAA0EB0900A84286
:1024C000F4D909E00020202184F8411001B0BDE8D2
:1024D000F08300BFFEF780FA0320202184F841102A
:1024E00001B0BDE8F08300BF0020202184F8411036
:1024F00001B0BDE8F0830000B0B590F84140202C59
:102500001CBF0220B0BD134600294FF0010218BFC6
:10251000002B01D11046B0BD00222124016283842A
:10252000C384426480F84140D0F838C043F2211E91
:1025300043F2D115C0F6000EC0F600050468CCE9E0
:102540000FE542F6A575C0F60005CCE91352221D31
:1025500004466046FEF7F6F8216820466FF0400218
:102560000A6000BF016851E8051F026841F0800160
:1025700042E80513DBB1016851E8051F026841F02C
:10258000800142E8051393B1016851E8051F026814
:1025900041F0800142E805134BB1016851E8051F85
:1025A000026841F0800142E80513002BDAD10022D5
:1025B0001046B0BD7047000070470000FEE7000005
:1025C00040F23410C2F20000FEF710BA40F23410AC
:1025D000C2F20000FEF7B2BA10B581B0002100913E
:1025E000806B40F20C01C2F2000190F83DC0096816
:1025F0004BF28952C908C1F2F842A1FB0212110A3A
:10260000232251430091009911B30099013900919F
:102610000168096889051FD50099C9B10099013978
:10262000009101680968890516D5009981B1009962
:10263000013900910168096889050DD5009939B102
:10264000009901390091016809688905DBD403E02C
:10265000016C41F020010164446B4FF0000E002C2E
:102660001CBF0021E163816B00291CBF0022CA63EB
:102670000268002C136823F480631360A0F82AE03A
:1026800018BFC4F850E000291CBF00230B65116877
:1026900021F00101116090F83D1060290CD120213A
:1026A00080F83D10002180F83E10016401B0BDE8C3
:1026B0001040FEF797B900BF0CF02801282911D16E
:1026C000116841F001011160116841F480611160ED
:1026D00000210163282180F83D1001B0BDE81040C1
:1026E000FEF72ABD202180F83D10002180F83E1021
:1026F00001B0BDE81040FEF71FBD000010B5044654
:1027000090F83D1090F83E00B0F1100218BF012281
:10271000403818BF0120024208BF222934D001F0FE
:10272000280028283AD100202063282084F83D0082
:1027300020684168090542D5416821F40061416083
:10274000606B90F83510012958D1A06B42F2D95135
:10275000C0F600010165FDF74BFE002861D020683E
:102760004169490606D50069616A0870616A206896
:1027700001316162016821F001010160202084F8CB
:102780003D00A06B4BE000BF2068026822F40062AD
:1027900002604268120505D50CE000BF206842685F
:1027A000120507D4602905D0202184F83D100021AE
:1027B00084F83E100021216341680905BCD494F8D7
:1027C0003D10602950D1202184F83D100021216462
:1027D0004169490606D50069616A0870616A206826
:1027E00001316162016821F0010101602046FEF7BC
:1027F000F9F8206C000717D11BE000BF42F2D95155
:10280000C0F600010165FDF7F3FD50B12168606B72
:102810000A6822F001020A60202184F83D10016D4F
:102820008847206C000704D02068416821F4E061EB
:10283000416094F83D00216C490758BF10BD28281D
:1028400010D10020CFF6FF70E0620021202021632C
:1028500084F83D00204684F83E10BDE81040FEF7A5
:102860001FBD00BF10BD00BF4169490605D5006905
:10287000616A0870606A013060622046FEF75CFCA5
:10288000206C0007D0D1D4E7C16A428D042A07D159
:102890000168426A4B6823F480634B60096911E068
:1028A000428D032A16D102680229536823F48063FB
:1028B000536005D0042903D0116821F480611160B0
:1028C0001169426A1170416A01314162418D0139D9
:1028D00041857047428D022A12D14A1E0F2A19D80B
:1028E000DFE802F00812181218181818181818182B
:1028F000181818080268136823F480630EE000BFFC
:102900000168426ACAE700BF0268136843F4806343
:1029100004E000BF0268136843F400731360126997
:10292000436A1A70426AD0F800C0531C4362438D58
:10293000013B4385DCF810305370426A0368013272
:102940004262428D013A42855A6822F440725A60CE
:10295000202280F83D2090F83E300022402B80F865
:102960003E2003D10263FEF7A1BC00BFB1F1080213
:1029700018BF1222203918BF11460163FEF792BC1E
:1029800081B090F83D10222910D1C16A428D042AED
:102990000ED30168426A09691170416A01314162CE
:1029A000418D01394185418D03295DD001B07047CA
:1029B000C36A012A58D8022B56D00022009240F256
:1029C0000C02C2F2000212684BF28953D208C1F223
:1029D000F843A2FB03231A0A02EB82020092009A38
:1029E000013A0092009A002A46D0026813689B05BB
:1029F0001AD5009A013A0092009AEAB30268136865
:102A00009B0511D5009A013A0092009AA2B3026880
:102A100013689B0508D5009A013A0092009A5AB3B0
:102A2000026813689B05DAD4136823F4806313608B
:102A3000536823F4E06353601269436A1A70426A70
:102A400001324262428D013A4285202280F83D20C7
:102A500090F83E300022402B80F83E2028D10263BF
:102A600001B0FEF723BC00BF0068416821F480611B
:102A7000416001B0704700BF016C41F0200101646A
:102A80000168426A4B6823F4E0634B600969117086
:102A9000416A01314162418D01394185202180F82F
:102AA0003D10002180F83E1001B0FEF745BB00BF8D
:102AB000B1F1080218BF1222203918BF1146016374
:102AC00001B0FEF7EFBB0000C16A90F83D20212A5B
:102AD00018BF7047428D4AB1416A026811F8013B44
:102AE00013614162418D01394185704711F5803F85
:102AF00018BF082918D101684A6822F4E0624A60C8
:102B00000A6842F400720A6000212022016380F802
:102B10003D2090F83E2080F83E10402A08BFFEF786
:102B2000C7BBFEF7C1BB00BF2029E4D001684A68DB
:102B300022F4E0624A6011210163002180F83E1016
:102B4000202180F83D10FEF7AFBB000090F83D104B
:102B500090F83EC0C26A038D002B08BF212919D00E
:102B6000212905D0BCF1400F08BF222900D07047B1
:102B7000418D69B390F83E10402908BF00F040B87D
:102B8000416A026811F8013B13614162418D0139CC
:102B90004185704712F5803F18BF082A1ED1016891
:102BA0004A6822F4E0624A600A6842F400720A60ED
:102BB00000212022016380F83D2090F83E2080F81B
:102BC0003E10402A08BFFEF773BBFEF76DBB00BF87
:102BD0000068416821F4806141607047202ADED09E
:102BE00001684A6822F4E0624A6011210163002111
:102BF00080F83E10202180F83D10FEF755BB000004
:102C000090F83D10026D5AB1026D012A14D101688D
:102C1000826CD2B20A61016D01310165704700BF5B
:102C2000C26C816C012A15D10268C9B21161016DB3
:102C300002310165704700BF026D022A12D12229BC
:102C400018D101680A6842F480720A60016D01318E
:102C5000016570470268C1F307211161016D0131FF
:102C60000165704700684169090644BF00210161A0
:102C7000704700BF428D5AB1212909D1416A0268CB
:102C800011F8013B13614162418D01394185704763
:102C9000428D002A08BF2129EAD101684A6822F43E
:102CA000E0624A600A6842F400720A600021202251
:102CB000016380F83D2080F83E10FEF7F9BA00006D
:102CC00080B582B00020019043F63000C4F20200CB
:102CD0000168002241F4001101600068002100F445
:102CE0000010019001981020FEF7EEFB1020FEF777
:102CF000D9FB112000210022FEF7E6FB1120FEF790
:102D0000D1FB2F2000210022FEF7DEFB2F2002B096
:102D1000BDE88040FEF7C6BB2DE9F04786B000272E
:102D200043F630000597CDE90377CDE901770097A9
:102D3000C4F20200016840F2000A41F0040101609F
:102D40000168C4F2020A01F00401009100990097A1
:102D50000168002241F08001016001684FF0200805
:102D600001F08001009100990097016841F0010194
:102D70000160016801F0010100910099009701686C
:102D800041F008010160016801F00801009100991B
:102D90000097016841F0020101600068202100F005
:102DA0000200009000985046FDF710FE4FF40050CE
:102DB0000AF5006501AE01904FF40419284631462A
:102DC000CDE90297FDF732FD012450463146CDF89A
:102DD0000480CDE902470497FDF728FD4FF4006019
:102DE000CDE90109284631460394FDF71FFD28204F
:102DF00000210022FEF768FB2820FEF753FB06B0F7
:102E0000BDE8F08780B540F2341045F20041C2F2CF
:102E10000000C4F2000141F6802200234FF4804CF0
:102E2000C0F2060280E80E00C0E9033CC0E90533A9
:102E3000C0E90733FEF782F9002808BF80BDBDE86E
:102E40008040FDF789BA000080B540F2D01045F20D
:102E50000001C2F20000C4F2000100234FF00C0C8C
:102E60004FF4E13280E80E00C0E90333C0E905C346
:102E7000C361FFF751F9002808BF80BDBDE880405D
:102E8000FDF76ABA80B540F2881044F20041C2F200
:102E90000000C4F2000100234FF00C0C4FF4E132AB
:102EA00080E80E00C0E90333C0E905C3C361FFF742
:102EB00033F9002808BF80BDBDE88040FDF74CBA5B
:102EC000FEE70000FEE700007047000070470000CA
:102ED000FEF77CBA70B594B007AC20463421FDF7FC
:102EE000D7F9002543F640000695CDE90455CDE914
:102EF00002550195C4F202000168012241F080519F
:102F000001600068022600F080500190019847F2AD
:102F100000000195C4F20000016862F38F31016086
:102F2000006800F440400190019810200B900F9031
:102F30004FF4A87010900420CDE9110620460796A2
:102F40000A92CDE90D651396FEF726FC10B172B614
:102F5000FEE700BF0F20CDE902064FF48050CDE917
:102F6000050502A802210495FEF7EAFA10B172B62F
:102F7000FEE700BF14B070BD4EF68850CEF20000E0
:102F8000016841F4700101607047000040F2D01008
:102F9000C2F20000FEF708BE806B0021C185C1842B
:102FA000FEF700BE806B01684A6990F84130212B22
:102FB0002DD112F080022AD00021C184016851E88D
:102FC000031F026821F0C00142E80313DBB101686E
:102FD00051E8031F026821F0C00142E8031393B1D6
:102FE000016851E8031F026821F0C00142E80313A1
:102FF0004BB1016851E8031F026821F0C00142E8AB
:103000000313002BDAD1202180F8411001684969AF
:1030100090F84220222A40F07D8011F0400179D0C2
:103020000021C185016851E8031F026821F49071F5
:1030300042E80313BBB3016851E8031F026821F49F
:10304000907142E8031373B3016851E8031F0268EB
:1030500021F4907142E803132BB3016851E8031F78
:10306000026821F4907142E80313002BDAD11AE0D0
:10307000016851E8051F026821F0010142E80513CB
:10308000DBB1016851E8051F026821F0010142E847
:10309000051393B1016851E8051F026821F0010191
:1030A00042E805134BB1016851E8051F026821F0A1
:1030B000010142E80513002BDAD1016B012924D16B
:1030C000016851E8031F026821F0100142E8031370
:1030D000DBB1016851E8031F026821F0100142E8EA
:1030E000031393B1016851E8031F026821F0100136
:1030F00042E803134BB1016851E8031F026821F055
:10310000100142E80313002BDAD1202180F842108D
:1031100000210163416C41F010014164FEF742BDA2
:103120000168806B0968C90548BFFFF743BA0021F1
:10313000C18400BF016851E8051F026821F08001C9
:1031400042E8051383B3016851E8051F026821F0C6
:10315000800142E805133BB3016851E8051F02688E
:1031600021F0800142E80513F3B1016851E8051F21
:10317000026821F0800142E80513002BDAD113E048
:10318000016851E8031F026841F0400142E803135F
:10319000002B08BF7047016851E8031F026841F027
:1031A000400142E8031393B1016851E8031F02682C
:1031B00041F0400142E803134BB1016851E8031F9D
:1031C000026841F0400142E80313002BD8D1704758
:1031D000806BFFF7F1B9000070B540F21004C2F245
:1031E00000042178022913D0012903D0A9BBFF28AC
:1031F00036D070BD6188FF292FD84A1C628040F20A
:103200001922C2F2000250540220207070BD00BF8B
:103210006588FF2D08D840F21921C2F200014855F7
:103220000135658002E000BF002121700A2818BF27
:1032300070BD43F2EC50C0F6000000F087F940F298
:103240001920C2F20000461E16F8010F00F0A6F980
:10325000013DF9D10A2000F0A1F90020207070BDD5
:10326000012020700020608070BD000081B090F8C7
:103270004210222921D183680246B3F5805F09D12B
:1032800052F8281F52F8183C002B63D003685B6883
:103290000AE000BF52F8281F13B90369002BF5D0CC
:1032A00003685B6803F07F030B70116801311160E4
:1032B000C18D01390A04C18502D001B0704700BF39
:1032C0000168CA6822F02002CA60CA6822F48072CB
:1032D000CA604A6922F001024A61202180F8421046
:1032E00000214163026B012A3CD10163016851E86E
:1032F000031F026821F0100142E80313DBB10168EB
:1033000051E8031F026821F0100142E8031393B152
:10331000016851E8031F026821F0100142E803131D
:103320004BB1016851E8031F026821F0100142E827
:103330000313002BDAD101680A68D20606D50022F1
:1033400000920A680092496800910099818D01B04D
:10335000FEF726BC026852686FF35F2221F8022B49
:103360008162A5E701B0FEF7E3BF0000B0B50446F7
:10337000006804F108030ECB0569194325F4405594
:103380002A4302616269E3691143C268194349F241
:103390000C639A431143C1604169A26921F44071F1
:1033A00041F20043114340F48062C4F201039A42A7
:1033B000416103D1FEF78AF902E000BFFEF772F91E
:1033C000E1694FF69C7563681922C0F6FF75B1F587
:1033D000004FA0FB02011FD15A00DB0FFCF70EFFCC
:1033E00048F21F51C5F2EB11A0FB01235A0905F168
:1033F000805302FB0300322303EBC000A0FB01015A
:103400004FF4F87000EA111000EB0210C1F3421102
:10341000084421688860B0BD9A009B0FFCF7EEFE5F
:1034200048F21F51C5F2EB11A0FB01235A0902FB20
:103430000500322303EB0010A0FB0101F02000EA9D
:10344000511000EB0210C1F3431108442168886059
:10345000B0BD0000FEE7000080B582B0019040F2F0
:103460008810C2F2000001A901224FF0FF33FEF7DD
:1034700079FF019802B080BDC0B0FDF7B5FFFFF73E
:1034800029FDFFF749FCFFF71BFCFFF7BBFCFFF72B
:10349000F9FCFFF7D9FC14A000F086F840F2D01830
:1034A000C2F2000840F21821C2F200014046012297
:1034B000FEF714FFE94609F10106FF2413A70A25C8
:1034C000304639463F228DF80040FCF7C8FE4046A2
:1034D000494642228DF84050FFF70EF84FF4FA604B
:1034E000FDF782F9ECE700BF5374617274696E678F
:1034F000205541525420434F4D4D554E4943415460
:10350000494F4E204578616D706C65006A65207387
:10351000756973206C6120636172746520646575E0
:10352000782C206A65206E6520646F697320706155
:103530007320766F6972206D6F6E2070726F70727B
:1035400065206D6573736167650D0A00014A024964
:1035500000F013B8593400080000002002E008C849
:10356000121F08C1002AFAD170477047002001E0FD
:1035700001C1121F002AFBD170472DE9F041164608
:103580000F460446002503E03946B047641C6D1C15
:1035900020780028F8D12846BDE8F0810149FFF7DE
:1035A0005BBF00000000002010B5044601E0FFF7FB
:1035B00053FF14F8010B04490028F8D1BDE810406E
:1035C0000A20FFF749BF00000000002000000000B3
:1035D00000000000010203040607080900000000C3
:1035E00001020304000610160006101652656365FA
:1035F00069766564204D6573736167653A200000E4
:103600002036000800000020100000005C35000893
:103610003036000810000020100700006C3500084C
:103620000000000001000000100000000024F40071
:04000005080001C529
:00000001FF
