:020000040800F2
:10000000C8240020D901000871440008ED3200081E
:100010006D440008450900089548000800000000EC
:10002000000000000000000000000000ED46000895
:10003000350B00080000000075440008F146000878
:10004000F3010008F3010008F3010008F3010008C0
:10005000F3010008F3010008F3010008F3010008B0
:10006000F3010008F3010008F3010008F3010008A0
:10007000F3010008F3010008F3010008F301000890
:10008000050B0008110B0008F3010008F30100083C
:10009000F3010008F3010008F3010008F301000870
:1000A000F3010008F3010008F3010008F301000860
:1000B000F3010008F3010008F3010008FD32000815
:1000C000F1320008F3010008F30100087944000848
:1000D000F3010008F3010008F3010008F301000830
:1000E000390B0008F3010008F3010008F3010008D0
:1000F000F3010008F3010008F30100081D0B0008DC
:10010000F3010008F3010008F3010008F3010008FF
:10011000F3010008F3010008F3010008F3010008EF
:10012000F3010008F3010008F3010008290B00089F
:10013000F30100080000000000000000F3010008C7
:10014000F3010008F3010008F3010008F3010008BF
:10015000F3010008F3010008F3010008F3010008AF
:10016000F3010008F3010008F3010008F30100089F
:10017000F3010008F3010008F3010008000000008B
:1001800000000000F3010008000000000000000073
:10019000F30100080000000000000000F301000867
:1001A000000000000000000000000000F301000853
:1001B000F3010008F3010008F3010008F30100084F
:1001C000F3010008DFF80CD000F056FB00480047B0
:1001D0005D650008C824002006488047064800479F
:1001E000FEE7FEE7FEE7FEE7FEE7FEE7FEE7FEE7E7
:1001F000FEE7FEE799470008C50100082DE9F05F1A
:100200000546002092469B46884606468146402485
:100210001BE0284641464746224600F004FA534672
:100220005A46C01A914110D311461846224600F092
:10023000EBF92D1A67EB01084F46224601200021F9
:1002400000F0E2F917EB00094E41201EA4F1010471
:10025000DFDC484631462A464346BDE8F09F0000B1
:100260000649074A0868504343F2390210440860BF
:1002700040087047014908607047000000000020F6
:100280006D4EC641D2B201E000F8012B491EFBD2EF
:1002900070470022F6E710B513460A460446194691
:1002A000FFF7F0FF204610BD2DE9FE4F804681EAA2
:1002B0000300C00F0C46009021F0004123F00045E0
:1002C000B8EB0200A94105D24046214690461C46A3
:1002D0000B46024623F00040104347D0270DC7F3DA
:1002E0000A00C3F30A510290401A019040286BDAC9
:1002F000C3F3130040F4801B0098924620B1002302
:10030000D2EB030A63EB0B0B01985946C0F1400294
:10031000504600F079F906460D4650465946019A76
:1003200000F091F910EB08006141002487EA1152B6
:1003300084EAE7731A4340D0009A62B3019A012A13
:100340004FEA075215DC001B61EB02014FF000423F
:1003500002EA0752CDE90042001C41F58011324605
:100360002B4600F0C8F903B0BDE8F08F40462146A7
:10037000F9E7001B61EB0201001C41F58013001836
:100380005B412018A2F5001747EB030140EAD57046
:10039000B6196D4111E06D084FEA360645EAC075A1
:1003A0004FEA0752001B61EB0201001C41F580116E
:1003B00049084FEA30000019514132462B4603B03C
:1003C000BDE8F04F00F088B90098012240000023FA
:1003D000D0EB020263EBE073009821464FEAE07431
:1003E000B8EB000061EB0401E9E783F000435BE751
:1003F00081F0004158E72DE9F04D81EA030404F053
:10040000004B21F0004514464FF0000A23F0004154
:1004100050EA050220D054EA01021DD0C5F30A5764
:100420000246C5F31303C1F31300C1F30A5640F4A7
:10043000801543F48013A7EB0608101BD64608F27C
:10044000FD3873EB050002D308F1010801E09218B2
:100450005B41B8F1000F03DA00200146BDE8F08DE2
:1004600000204FF48011064684460EE0171B73EB04
:10047000050705D3121B63EB050306434CEA010C89
:1004800049084FEA300092185B4150EA0107EDD16C
:1004900052EA030012D082EA040083EA050108430D
:1004A00005D0101BAB4106D20122002306E000223A
:1004B0004FF0004302E06FF0010253101AEB060008
:1004C0004CEB085110EB0A0041EB0B01BDE8F04D7D
:1004D00000F002B930B5041E71F1000404DB4FF0E6
:1004E0000044404264EB0101141E73F1000405DB7B
:1004F0001C464FF00043524263EB0403101A8B4139
:1005000001D3012030BD002030BD30B5041E71F193
:10051000000404DB4FF00044404264EB0101141E70
:1005200073F1000405DB1C464FF00043524263EBBD
:100530000403801A994101D2012030BD002030BD52
:1005400070B5C1F30A5201F000450024C1F3130154
:1005500040F2FF3341F480119A4201DA002070BD6D
:1005600040F233439A42A2F2334203DC524200F09B
:100570005AF800E090402C43F1D0404270BD00F0AA
:10058000004230F000400AD0C10D01F56071C0F3A7
:10059000160042EA0151C20840071143704700208B
:1005A0000146704701F0004330B421F0004150EAA9
:1005B000010206D00A0DA2F56072C1F31301002AF0
:1005C00002DC30BC00207047440F44EAC104C10083
:1005D000E01830BC00EBC25000F047B830B50B4615
:1005E000014600202022012409E021FA02F59D4263
:1005F00005D303FA02F5491B04FA02F52844151E37
:10060000A2F10102F1DC30BD202A04DB203A00FA1D
:1006100002F1002070479140C2F1200320FA03F359
:10062000194390407047202A04DB203A21FA02F057
:100630000021704721FA02F3D040C2F1200291401C
:10064000084319467047202A06DBCB17203A41FAA7
:1006500002F043EAE07306E041FA02F3D040C2F14F
:10066000200291400843194670470029A8BF7047EF
:10067000401C490008BF20F00100704710B4B0FAD8
:1006800080FC00FA0CF050EA010404BF10BC704773
:1006900049B1CCF1200421FA04F411FA0CF118BF8D
:1006A000012121430843A3EB0C01CB1D4FEA00615C
:1006B0004FEA102042BF002010BC704700EBC3502F
:1006C00010440029A4BF10BC7047401C490008BF5B
:1006D00020F0010010BC704710B5141E73F1000427
:1006E00008DA401C41F1000192185B411A4301D124
:1006F00020F0010010BD2DE9F04D92469B4611B14E
:10070000B1FA81F202E0B0FA80F220329046FFF7AF
:100710007BFF04460F4640EA0A0041EA0B015346BC
:100720005A46084313D0114653EA010019D0C8F1C4
:1007300040025046FFF777FF05460E4650465946A1
:100740004246FFF761FF084305D0012004E0204640
:100750003946BDE8F08D0020054346EAE0762C439B
:1007600037430A986305E40AA0EB08000022FD0A5B
:1007700044EA47540A3002D500200146E9E7010562
:1007800010196941DDE9084500196941BDE8F04DDE
:10079000A2E72DE9FE4F81EA030404F0004421F0B2
:1007A000004100944FF0000B23F0004350EA010495
:1007B0005ED052EA03045BD0C3F30A54C1F30A5576
:1007C0002C44A4F2F3340194A0FB0254C1F31301AE
:1007D00041F48011C3F3130343F4801301FB02447B
:1007E00000FB034E840A970A44EA815447EA835780
:1007F000A4FB076802958D0A05FB07854FEA932C39
:1008000004FB0C542705029D4FEA065847EA1637A9
:10081000B5EB08056EEB070C870E920E47EA8117C1
:1008200042EA8312A7FB0201B6EB0B0164EB000462
:100830002B0D43EA0C335E1844EB1C50DA4651464C
:10084000E7FB0201C5F313044FEA0B3343EA1453E9
:100850004FEA0432019C43EA0603A4F10C0402941B
:10086000009CCDE900B4FFF746FF03B0BDE8F08F70
:1008700000200146F9E700001CB50948009009482E
:1008800001900546009C06E0E06840F0010394E812
:10089000070098471034AC42F6D3FFF797FC0000EE
:1008A0000C8900082C8900080EB5C10F80EAE070A1
:1008B0000844CA07002140F233438DE80E000A467F
:1008C0000B46FFF718FF03B000BD0EB540F23341F1
:1008D00002910021CDE900110A460B46FFF70BFFFC
:1008E00003B000BD70B58D1810F8014B14F0030271
:1008F00001D110F8012B231106D110F8013B03E0C0
:1009000010F8016B01F8016B521EF9D1ABB110F870
:10091000012B04F00C048A1A0C2C03D0A2EB8412D5
:100920009B1C08E010F8014BA2EB0422F8E712F838
:10093000014B01F8014B5B1EF9D5A942D4D300202D
:1009400070BD0000FEE7000070B586B080208DF815
:10095000170041F284504FF0FF3401250DF11706C6
:10096000C2F20000D0216B220123CDE90065029480
:1009700001F0EEFA18B945A0002106F077F96420DD
:1009800000F0E0FA08208DF8170041F28450C2F21E
:100990000000D0216B220123CDE90065029401F013
:1009A000D7FA18B1014641A006F060F901250DF112
:1009B0001600CDE9000541F2845000264FF0FF34C7
:1009C000C2F20000D0211B2201238DF81660029490
:1009D00001F0BEFA10B141A006F09CFF41F2A43034
:1009E000C2F200004FF4804101610DF11500CDE924
:1009F000000541F28450C2F20000D0211C220123E4
:100A00008DF81560029401F0A3FA28B148F69F0012
:100A1000C0F6000006F07EFF02208DF814000125CC
:100A200005A8CDE9000541F284504FF0FF34C2F231
:100A30000000D0211A220123029401F089FA28B182
:100A400048F67F00C0F6000006F064FF0DF11300C9
:100A5000CDE9000541F28450C2F20000D0213822D5
:100A600001238DF81350029401F072FA28B148F670
:100A70005B00C0F6000006F04DFF48F63600C0F6F9
:100A8000000006F047FF06B070BD00BF72657365D9
:100A900074206F6B205057525F4D474D542C20727D
:100AA0006574203D2025640D0A00000045727265C2
:100AB000757220646520636F6E6669677572617414
:100AC000696F6E205057525F4D474D545F312C2057
:100AD000726574203D2025640D0A00004572726520
:100AE000757220646520636F6E66696775726174E4
:100AF000696F6E204759524F5F434F4E4649470D2D
:100B00000000000041F20440C2F2000000F034B8DE
:100B100041F26440C2F2000000F02EB841F22450CD
:100B2000C2F2000000F028B841F2C440C2F2000056
:100B300000F022B8704700004FF4006000F03CBAAB
:100B400072B600BFFEE7000090F83510022909D107
:100B5000052180F835100068016821F0010101606D
:100B6000002070478021416501207047406D70472B
:100B700090F8350070470000F0B581B00021009179
:100B800040F21C01C2F200010B68D0E9166148F284
:100B9000B51537680822C1F64E358A403A42A3FBA4
:100BA00005350CD003681C68640708D51C6824F060
:100BB00004041C60B260426D42F0010242650122F1
:100BC0008A403A4208D003685B691B0604D5B260CC
:100BD000426D42F00202426504228A403A4208D045
:100BE00003681B689B0704D5B260426D42F00402A3
:100BF000426510228A403A4219D001680B681B07EF
:100C000015D5B2600B680A685B0309D4D20509D414
:100C10000A6822F008020A60016C29B907E000BFE7
:100C2000110341D4016C11B1044688472046C26DBE
:100C3000202101FA02F33B4243D001680F68FF060E
:100C40003FD5B36090F835700B68052F1CD123F0A9
:100C500016030B604B6923F080034B61036C0BB9E7
:100C6000836C1BB10B6823F008030B603F2191409C
:100C7000B160012180F83510016D0022002980F853
:100C8000342054D158E000BF0A685B0310D4D20569
:100C900012D40A6822F010020A60012180F835108F
:100CA000002180F8341007E0816C0029BCD1BEE738
:100CB000110301D4416C00E0C16B11B104468847B7
:100CC0002046416DC1B3416DC9072ED0052180F882
:100CD00035100168AA0A0B6823F001030B60009B22
:100CE0000133934200931AD80B68DB0717D0009B9F
:100CF00001339342009312D80B68DB070FD0009B9F
:100D00000133934200930AD80B68DB0707D0009B9E
:100D100001339342009302D80B68DB07DFD1012136
:100D200080F83510002180F83410C16C21B101B079
:100D3000BDE8F040084700BF01B0F0BD2DE9F0412B
:100D4000044600F01BFAECB10546022084F8350099
:100D50000020216884F83400086820F00100086051
:100D600021680868C00711D000F008FA401B052868
:100D7000F6D9032520230320636584F83550BDE8A8
:100D8000F08100BF0120BDE8F08100BF086848F293
:100D90003F02CFF21002D4E9013500EA020C04F15F
:100DA0000C0898E8C10143EA0C032B431843D4E92B
:100DB000072E304338431043626A40EA0E00042A8B
:100DC00040EA08031CD1206BD4E90A2E40EA0E0049
:100DD000184308604869BEF1000F20F0030040EAA4
:100DE000020040F0040C11D0B8F5005F36D0B8F125
:100DF000000F45D1022A46D0012A3BD032B942E049
:100E00000B60486920F0070040EA020C01F0F8008E
:100E10004AF6AB221038CAF6AA22A0FB02231A090E
:100E200047F68423C1F814C0C0F600039A5C40F270
:100E3000FF335F284FF03F0021EA030100FA02F080
:100E400088BF0431C4E91612886000230125002000
:100E5000636584F83550BDE8F08100BF032AD5D81A
:100E6000012540230120DFE802F0030E030500BF47
:100E700082E700BFAEF1C070B0FA80F0400904E034
:100E8000032A04D3C2D1CEF300600028BED00125CE
:100E900040230120636584F83550BDE8F0810000EF
:100EA00090F834C0BCF1010F04BF0220704770B548
:100EB0004FF0010C80F834C0D0F858E090F835C0FD
:100EC000BCF1010F38D14FF0020C80F835C04FF063
:100ED000000CC0F854C0D0F800C08468056CC06D28
:100EE000DCF80060402C26F48026CCF80060CCF8BA
:100EF00004300B4604BF13460A463F2101FA00F0B6
:100F0000CCF80830CCF80C20CEF80800DCF8000053
:100F100040F01600CCF800002DB1DCF8000040F0E5
:100F20000800CCF80000DCF8000040F00100CCF82C
:100F30000000002070BD00BF002180F834100220A6
:100F400070BD0000B0B5044600F018F9054640F247
:100F50001400C2F200000078611C18BF044400BFF6
:100F600000F00CF9401BA042FAD3B0BDB0F5006F01
:100F700020D141F28450C2F2000090F83D002028B8
:100F800018BF704780B582B041F2A430C2F20000B1
:100F900000F1180E41F284504FF0060CC2F200002E
:100FA000D0213B220123CDE900EC00F0AFFE02B0DE
:100FB00080BD00BF7047000043F61441C4F2010138
:100FC0000A68024214BF08607047FFF7CFBF0000F5
:100FD0002DE9F04F83B000F1200200F13E4741F6C9
:100FE0000005009207F1FF77C4F2020507224FEADD
:100FF000B726A84208BF062200254FF000084FF090
:101000000009062E38BF4FEAB72201920AE000BF5E
:1010100009F1010908F10208B9F1100F05F1040501
:1010200000F0A2800F68012202FA09FE17EA0E0AF8
:10103000EED0D1F804C003220CF003077E1E02FAA2
:1010400008F4012E6FEA040B12D88468CE6804EA13
:101050000B0406FA08F634438460446824EA0E065A
:10106000CCF3001404FA09F42643466004E000BF00
:10107000032F01D103271EE0C6688C6806EA0B0621
:1010800004FA08F42643022FC66014D16FF003025D
:10109000009E02EA590756F807C005F01C040F220B
:1010A0000B69A2402CEA0202A3401A43F251D1F884
:1010B00004C00CF00307026807FA08F302EA0B0207
:1010C0001A431CF4403F0260A2D0002243F64403BE
:1010D0000292C4F202031A6843F6004442F48042CA
:1010E0001A601A68C4F2010402F480420292029A61
:1010F00029F003024FF6084C2244CFF6FF7C52F849
:101100000C3005F00C070F26BE40B343019E06FAD3
:1011100007F73B4342F80C30A2684B6842EA0A07E3
:1011200043F60C4CDE0258BF22EA0A07A760C4F25D
:10113000010CDCF800209E0242EA0A0758BF22EAAE
:101140000A07CCF8007062689E0342EA0A0758BF9B
:1011500022EA0A0767602268DB0342EA0A0758BFEF
:1011600022EA0A07276053E703B0BDE8F08F0000CA
:10117000002A08BF090481617047000041F6C06081
:10118000C2F200000068704770470000704700001E
:10119000F0B581B00446006800254769426894F8BC
:1011A0003E1002F48076FA0505D5002E1EBF6FF4BE
:1011B000807242610125BA0505D5002E1EBF023599
:1011C0006FF4007242617A0516D5AEB1628D94F863
:1011D0003D30D4F830C0202908BF002A24D06FF455
:1011E0008062402905F10405426101D0102903D134
:1011F000016841F400710160380507D536B12068F7
:1012000008356FF40061416101E000BF55B1206C09
:1012100040EA05012046216401B0BDE8F04002F03B
:10122000C3B900BF01B0F0BD03F0F701212909D017
:10123000282B08BFBCF1210F04D06FF480614161FD
:101240000435D9E794F83D10E26AB2F1080318BFFB
:101250000123203A18BF0122134208BF282921D0B8
:10126000212939D10021CFF6FF71E16221212163CB
:10127000202184F83D10002184F83E10426822F4B9
:10128000E06242606FF480624261026822F4806230
:1012900002604269120648BF0161204600F092FFD9
:1012A000AAE700BF0021CFF6FF71E162416821F497
:1012B000E06141606FF480614161016821F4806107
:1012C000016000202021206384F83D1084F83E0056
:1012D000204600F0B7FB8FE76FF4806141618BE738
:1012E000F0B581B007687968C26A90F83E5090F80E
:1012F0003DE0402D01D0102D34D1BB697C69E6075B
:1013000018D1B2F12A4F00F06782B2F52A0F00F02F
:101310006382220701F4007240F10681002A00F086
:101320000381416B426C0029D2B23A6140F0B08037
:10133000B0E000BF8A0543D44FF0010C7A685B0728
:101340006ED4120500F1488204F04402402A40F0B5
:10135000598111F4806100F0558101B0BDE8F04081
:1013600002F064BA026C01F40073002A0CBFBC697D
:1013700000247D69AA0729D543B3016C002918BF51
:10138000BC6990F83D1001F02801282940F0C08088
:101390007968012221F48061796004F0040182EA15
:1013A000910122064FF0180258BF0C22825A0023E6
:1013B00080F83C3001B0BDE8F040FFF7E7BE00BF69
:1013C000C16AB1F52A0F3DD1012140E0EA066FD58F
:1013D000002B6DD090F83D50796821F4E061796080
:1013E0000021009179690091396841F0010139606B
:1013F0000099396821F4806139607968090540F104
:10140000798105F0F7010446222940F0498154F81A
:10141000381F0A68526824F80E2C34F80E2C47E165
:10142000120500F1D98104F08402802A40F0F8808E
:1014300011F4806100F0F48001B0BDE8F04002F0EA
:10144000DBBA00BFC16AB1F12A4F01D10821C162E4
:1014500090F83E1040290BD1016D406C002900F03E
:10146000FE0018BF40F00100386101B0F0BD00BFC0
:101470000169B1F5804F40F0898090F83D10426CD1
:10148000212902F0FE0218BF01323A61416B09B115
:10149000C96B39B9806B002800F09E81C06B0028B1
:1014A00000F09A81786840F40060786001B0F0BD87
:1014B0000EF0F702212A79D105F08402802A40F04B
:1014C000C18011F4806100F0BD8090F83D10428D24
:1014D000002A00F08181426A12F8013B3B614262BE
:1014E000428D013A4285428D002A08BF292940F0E9
:1014F0007381796821F48061796021210163282159
:1015000080F83D1001B0BDE8F04000F05BBE00BFC8
:10151000002100917A690092BA690092009A80F8DD
:101520003C1001B0F0BD00BF4FF0010CA6078CEAE3
:10153000522C7FF503AF002A3FF400AF90F83E2015
:10154000C16A036B90F83D60222E40F09F80066DCB
:10155000002E08BF402A00F09980026D002A40F05A
:101560003D810269B2F5404F40F038810021009181
:1015700079690091B96900910099396841F48071E5
:101580003960016D0131016501B0F0BD016D0029C7
:1015900000F00081016D012940F01E81406C0621A0
:1015A00001EAD010F130386101B0F0BD05F044021D
:1015B000402A57D111F4806154D090F83D10428DEB
:1015C000002A00F009813A69436A1A70426A0132BE
:1015D0004262428D013A4285428D002A08BF2A2983
:1015E00040F0FA8001684A6822F480624A60222151
:1015F0000163282180F83D1001B0BDE8F04000F003
:10160000DFBD00BF04F00401012282EA910151EA2A
:101610000C0140F0E18001B0BDE8F04002F08AB872
:1016200004F00401012282EA910151EA0C0140F028
:10163000D380BEF1210F40F0C78001B0BDE8F0407B
:1016400002F098B9690740F1C780002B00F0C48010
:10165000418D002900F0C080416A11F8012B3A61E8
:101660000FE000BF690740F1B780002B00F0B480A5
:10167000418D002900F0B0803969426A1170416AD9
:1016800001314162418D01394185A5E00020009082
:1016900078690090B8690090009801B0F0BD00BF73
:1016A00054F8341F0A68526824F80A2C34F80A2CBB
:1016B0001AB1026C42F0040202647A68064622F40F
:1016C000006208467A60FFF753FA01463046012966
:1016D00010D0206843F20931C0F600010165FFF720
:1016E00033FA0146304629B1216804460A6D08469E
:1016F00090472046418D61B101684A6952072FD455
:101700004A69520639D4418D19B1016C41F0040186
:101710000164016C21B101B0BDE8F04001F044BFAB
:101720002A2D08D100210163282180F83D100446AC
:1017300000F046FD204690F83D10282932D10021C6
:10174000CFF6FF71C16200212022016380F83D20A5
:1017500080F83E1001B0BDE8F04000F073B900BF62
:101760000969426A1170426A016801324262428D1F
:10177000013A42854A695206C5D50969426A117023
:10178000416A01314162418D01394185418D002914
:10179000BBD1BEE7406C062101EAD010F0303861C1
:1017A00001B0F0BD016B222918BF222D14D10021F8
:1017B0002022016380F83D2080F83E1001B0BDE892
:1017C000F04000F0FDBC00BF402D05D101B0BDE8E8
:1017D000F04002F06BB900BF01B0F0BD428D52B1D4
:1017E000428D012A16D1202918BF082926D139682F
:1017F00021F4806139600021009179690091B96913
:1018000000910099396841F4007139600021016547
:1018100001B0F0BD428D022A0CD1102932D801222C
:1018200014238A40C0F201031A422BD04FF4806285
:101830002EE000BF3A6842F480622BE011F5803F51
:101840000CD1396821F48061396079680905D2D5F5
:10185000396821F48061396030E000BF122B01D17A
:101860000129C4D11029F3D8012202FA01F114226E
:10187000C0F201021142EBD0396841F48061396055
:101880001CE000BF3A6822F480623A604FF40062C4
:101890003B681A433A607A6812050FD54A1E1F2A20
:1018A00018D8012303FA02F248F28103C8F20003B8
:1018B0001A420FD0796841F480517960002100917B
:1018C00079690091B969009100990021016501B021
:1018D000F0BD00BF11F5803FECD0EFE7704700008E
:1018E000002804BF01207047F0B581B0044690F88D
:1018F0003D0028B9002084F83C00204600F0D6FBCB
:10190000242084F83D002068016821F00101016075
:10191000016841F400410160016821F40041016067
:1019200000F0BEFD636848F2A16CC0F2010C40F605
:101930000011C0F23D0163453CBF48F28041C0F256
:101940001E01884202D2012001B0F0BD4DF6836134
:10195000C4F21B31A0FB01122168970CD1F804E0FE
:101960004FF496762EF03F0545EA92454D60774359
:1019700048F638160D6AC0F24106A7FB067625F038
:101980003F07634538BF960C721C3A430A62CA6926
:1019900048F2A0664CF6FF77C0F20106B34222EA95
:1019A00007020BD801385B00B0FBF3F001306FF396
:1019B0001F30042898BF04201BE000BFA76801382F
:1019C00057B119277B43B0FBF3F001306FF31F30A1
:1019D00070B100F5804007E003EB4303B0FBF3F088
:1019E00001306FF31F3018B100F5004001E000BF77
:1019F00001201043C8610868D4E9072320F0C00023
:101A0000104318430860886848F2FF3204F10C075D
:101A100090438CCF18431043A6698860C86820F0B3
:101A2000FF0038433043C860086840F00100086098
:101A300000202021206484F83D10206384F83E00BB
:101A400001B0F0BD70470000704700007047000013
:101A5000006845F20041C4F20001884218BF704797
:101A600041F2A430C2F20000018B428B838BC9BAD1
:101A7000D2BADBBA90ED041A00EE101A02EE102A68
:101A800003EE103AB8EEC00AB8EEC11AB8EEC22A98
:101A9000B8EEC33A80EE010A82EE012A83EE011A03
:101AA00080ED010A80ED022A80ED031A70470000E4
:101AB000704700002DE9F04784B0994616460F465E
:101AC0000446FFF75BFB94F83D10202927D105461B
:101AD000206800BF816989071CD5FFF74FFB411BB8
:101AE00020681A29F6D381698907F3D500202021BF
:101AF000206384F83D1084F83E00206C04F13C0A19
:101B000040F020002064022000218AF8001004B078
:101B1000BDE8F087A2461AF83C1F012904D1022033
:101B200004B0BDE8F08700BF01228AF800200368F6
:101B3000DDE90D180C9ADB0703D1036843F00103BC
:101B40000360036823F400630360222084F83D00EF
:101B5000402084F83E000020206462626185608D30
:101B6000394620850020CFF6FF70E06220463246DD
:101B70004B46CDE9008501F0F9FF18B1012004B012
:101B8000BDE8F087208D08B3022813D0012835D195
:101B900021680A6822F480620A60002203924A697E
:101BA00003928A690392039A0A6842F400720A60F7
:101BB0002CE000BF21680A6822F480620A600A688B
:101BC00042F400620A60002203921AE000200390AF
:101BD000206841690391816903910399016841F487
:101BE00000710160202084F83D00002084F83E0050
:101BF00000218AF8001004B0BDE8F08700210391AD
:101C000021684A6903928969039103990427C0F204
:101C100001070CE010690870606A218D0130606274
:101C2000481E2085618D013961850104DAD080B2BA
:101C300003280FD802284AD001282DD1204641463A
:101C40002A4602F031FA002898D12068616A0069BA
:101C5000E1E700BF204641462A4602F025FA002867
:101C60007FF48CAF2068616A00690870606A22683E
:101C7000411C208D616201382085638D013B6385A5
:101C800053695B07D1D580B20328C3D1106820F413
:101C900080601060BEE700BF204639460022434600
:101CA000009502F0AFF800287FF468AF2068616A01
:101CB000026822F48062026000690870606A218D07
:101CC00001306062481E2085608D013860852046A5
:101CD000394600224346009502F094F800287FF42C
:101CE0004DAF2068616A026842F4007202600069C8
:101CF0000870606A2268411C6162218D013921856A
:101D0000618D013961851169417085E72DE9F047E1
:101D100086B0984616460F460446FFF72FFA002174
:101D2000059194F83D10202940F0998040F21C0163
:101D3000C2F2000109684BF28952C908C1F2F842A7
:101D4000A1FB0215DDE90E23290A19256943059136
:101D50000599013905910599002975D021688D698A
:101D6000AD071DD5059901390591059900296BD05D
:101D700021688D69AD0713D505990139059105993C
:101D8000002961D021688D69AD0709D50599013910
:101D900005910599002957D021688D69AD07D7D4E1
:101DA00094F83C50012D5AD0012584F83C500D6820
:101DB000ED0703D10D6845F001050D600D684FF08A
:101DC000000C25F400650D60222584F83D50402567
:101DD00084F83E50C4F840C062626385638D00257C
:101DE000CFF6FF752385E5626764A664C4F84C806E
:101DF000C4F850C0C3B3A56B002D57D0814643F241
:101E00007940C0F6000043F22D4C4FF0000AC0F6B6
:101E1000000CC5E90F0A10312846C5E911AAC5E929
:101E200013CAFFF73DF8002850D0202084F83D0069
:101E300084F83EA0206C40F01000206484F83CA0A0
:101E4000012006B0BDE8F08700202021206384F83F
:101E50003D1084F83E00206C40F0200020640220F9
:101E600006B0BDE8F08700BF4FF0230C05462046C2
:101E7000394632464346CDE900C501F077FE0028D9
:101E8000DED10020039021684A6903928A69039297
:101E9000039A0A6842F400720A60202184F83D1017
:101EA00084F83C0006B0BDE8F08700BF202084F82D
:101EB0003D00002084F83E00216C41F08001216447
:101EC00084F83C00012006B0BDE8F08723252046B9
:101ED000394632464346CDE9005901F047FEA8B1E4
:101EE000A06BFEF731FEA16B20680022CA63016877
:101EF00021F48061016022856285016821F0010181
:101F00000160012006B0BDE8F08700BF208D216888
:101F1000012805D1086820F48060086004E000BF53
:101F2000486840F480504860002004904A69049258
:101F30008A690492049A84F83C004A6842F48072E8
:101F40004A604A6842F400624A6006B0BDE8F08721
:101F50002DE9F04383B0994616460F460446FFF735
:101F60000DF994F83D10202924D10546206800BFC2
:101F7000816989071AD5FFF701F9411B20681A29E1
:101F8000F6D381698907F3D500202021206384F8E6
:101F90003D1084F83E00216C41F02001216484F85A
:101FA0003C00022003B0BDE8F08300BF94F83C1071
:101FB000012903D1022003B0BDE8F083012284F897
:101FC0003C200368DDE90B180A9ADB0703D103689C
:101FD00043F001030360036823F4006303602120DE
:101FE00084F83D00402084F83E00002020646262B6
:101FF0006185608D394620850020CFF6FF70E06254
:10200000204632464B46CDE9008501F039FE18B135
:10201000012003B0BDE8F083208D98B920464146E9
:102020002A4601F091FE88B3206C0428F0D1206884
:10203000016841F400710160012003B0BDE8F08344
:102040000004EBD0204641462A4602F075F80028ED
:10205000EAD1616A2268084610F8013B1361238DBA
:102060006062581E2085678D013F678557697F072D
:10207000E6D50704E4D048781061881C6062981E99
:102080002085618D01396185DAE700BF206801682C
:1020900041F400710160202084F83D00002084F8A4
:1020A0003E0084F83C0003B0BDE8F0832DE9F04326
:1020B00087B0044645F200402168C4F200000026C3
:1020C00081420696CDE904660396029602D007B0D7
:1020D000BDE8F08343F630050196C4F20205296895
:1020E00046F2880841F002012960296800F5D830DD
:1020F00001F00201019101994FF440710291122106
:10210000CDE90316032105910421069102A9C4F229
:102110000208FEF75DFF019628694FF0007740F452
:1021200000102861286941F2044500F40010019074
:102130000198C2F200054FF480692846C5E900877E
:10214000C5E90266C5E90496C5E90666C5E90866FB
:10215000FEF7F4FD002818BFFEF7F2FCA563AC63A0
:1021600041F2644508F11800C2F200054021C5E9BA
:10217000000705F10800002280E806022846C5E9AC
:102180000522C5E907226A62FEF7D8FD002818BFBC
:10219000FEF7D6FC1F20002100226563AC6300F02F
:1021A00091F81F2000F07CF820200021002200F090
:1021B00089F8202000F074F807B0BDE8F083000033
:1021C000704700007047000040F2140041F6C06103
:1021D000C2F20000C2F2000100780A6810440860F0
:1021E0007047000080B543F60040C4F20200016869
:1021F00041F400710160016841F48061016001688F
:1022000041F480710160032000F088F8002000F0A4
:1022100005F800F027F8002080BD000070B540F2FE
:102220001406C2F2000640F21C013278C2F200012C
:102230004FF47A730968B3FBF2F20446B1FBF2F192
:10224000084600F099FE0F2C4FF0010508D838B968
:102250004FF0FF3021460022002500F033F8746073
:10226000284670BD82B0002043F640010190C4F2C0
:1022700002014A6842F480424A604A6802F480429D
:102280000192019A0090086840F080500860086848
:1022900000F0805000900098072002B000F03EB897
:1022A000002848BF704700F01F01012202FA01F127
:1022B0001C2202EAD0004EF20012CEF2000281503F
:1022C0007047000010B54EF60C5CCEF2000CDCF846
:1022D0000030C3F3022E8EF00704042C28BF042420
:1022E000BEF103034FF0FF3E0EFA04F438BF0023A3
:1022F000A14399400EFA03F39A43114300F00F02F1
:1023000000F160430901043A03F564436244002884
:1023100048BF02F10C03197010BD00004EF60C51BD
:10232000CEF200010A684FF6FF031A4060F30A225A
:1023300042F0806040F0FD7008607047002804BFE4
:10234000012070472DE9F04143F60808C4F2020865
:102350000446D8F8F8030D4600F00F00884207D273
:1023600088F8F853D8F8F80300F00F00A84277D1A6
:102370002068810717D5410705D5D8F8001041F42A
:10238000E051C8F80010010705D5D8F8001041F455
:102390006041C8F80010D8F80010A26821F0F001E0
:1023A0001143C8F80010C00740D1D8F8F80300F076
:1023B0000F00A84207D988F8F853D8F8F80300F0BE
:1023C0000F00A8424CD12068410707D5D8F800106B
:1023D000E26821F4E0511143C8F80010000708D565
:1023E000D8F80000216920F4604040EAC100C8F834
:1023F000000000F07DF8D8F8001047F66022C1F325
:102400000311C0F60002515C40F21C0220FA01F1F7
:1024100040F21800C2F200000068C2F2000211602F
:10242000FFF7FCFE0020BDE8F08100BF6068811E60
:10243000022907D258F8081C89015CBF0120BDE8B9
:10244000F08111E0012807D158F8081C89035CBF0E
:102450000120BDE8F08107E058F8081C890703D483
:102460000120BDE8F08100BFD8F8001021F0030181
:102470000843C8F80000FEF781FE064641F288379F
:10248000D8F80000616800F00C00B0EB810F8CD030
:10249000FEF774FE801BB842F2D90320BDE8F0813C
:1024A00040F21C0043F60801C2F20000C4F202012F
:1024B0000068096847F67022C1F38221C0F6000265
:1024C000515CC8407047000040F21C0043F6080110
:1024D000C2F20000C4F202010068096847F67022E7
:1024E000C1F34231C0F60002515CC84070470000A1
:1024F00010B543F60404C4F202046068C0F381011D
:1025000042F20040C0F2F400DFE801F04202081895
:1025100041F20020C0F27A0010BD00BF216801F036
:102520003F02216823684902C3F3881116D4A1FB36
:1025300000010023FDF762FE17E000BF216801F0F3
:102540003F02216823684902C3F3881114D4A1FB18
:1025500000010023FDF752FE15E000BF41F200200C
:10256000C0F27A004843B0FBF2F021680222C1F3C6
:10257000014102EB410109E041F20020C0F27A0082
:102580004843B0FBF2F02168C1F30271B0FBF1F0F7
:1025900010BD0000002804BF012070472DE9F04164
:1025A00082B00446007843F60006C007C4F2020673
:1025B0000CD0B06800F00C00042840F0898030682E
:1025C000800303D56068002800F0508120788007E0
:1025D00023D5B06810F00C0F11D0B06800F00C00DB
:1025E000082802D17068400209D5B06800F00C00DC
:1025F0000C2840F09F807068400200F19B8030689A
:10260000800703D5E068012840F0308130682169F7
:1026100020F0F80040EAC10030602078000713D4B1
:10262000207840072AD4A569002D00F01A81B068EF
:1026300000F00C00082840F0AB80012D40F0E8804D
:10264000012002B0BDE8F0816069002840F200007E
:10265000C4F2472000F088800121C0F8801EFEF7F8
:102660008DFD0546706F8007DAD4FEF787FD401BAD
:102670000228F7D9032002B0BDE8F081306C5FEA90
:10268000C0080AD400200190306C40F080503064C3
:10269000306C00F080500190019847F20007C4F2BE
:1026A00000073868C00537D4386840F48070386057
:1026B000FEF764FD054600BF3868C0052CD4FEF760
:1026C0005DFD401B0228F7D9032002B0BDE8F08170
:1026D000B06800F00C00082803D1706840023FF594
:1026E0006EAFB06800F00C000C2803D17068400297
:1026F0003FF565AF61683068B1F5803F07D0B1F54F
:10270000A02F40F0CB8040F480203060306840F44F
:1027100080303060CBE000BFA168306F012905D068
:10272000052957D140F004003067306F40F00100B8
:10273000306759E0E068002800F09C800020C4F277
:10274000472001210160FEF719FD0546306880072A
:102750003FF55CAFFEF712FD401B02284FF003006F
:10276000F4D902B0BDE8F0810021C0F8801EFEF768
:1027700005FD0546706F80077FF552AFFEF7FEFC42
:10278000401B0228F6D9032002B0BDE8F08100BF4B
:102790000027C4F2472700203866FEF7EFFC022D21
:1027A00005460BD13068800140F19280FEF7E6FCCF
:1027B000401B02284FF00300F4D9D2E730688001B3
:1027C0004FD5FEF7DBFC401B02284FF00300F5D984
:1027D000C7E700BF20F001003067306F002920F00C
:1027E0000400306700F09880FEF7C8FC054641F20F
:1027F000883700BF306F800700F1A080FEF7BEFC75
:10280000401BB842F6D9032002B0BDE8F08100BFFA
:102810007068E16900F480028A4227D1216A00F0E1
:102820003F028A4222D147F6C071626A0140B1EB91
:10283000821F1BD1A16A4FF6FF73C903994300F4AD
:102840004032A1F580318A4210D1E16A00F0706215
:10285000B2EB016F0AD1216B00F0E040B0EB017FD9
:1028600004D1002002B0BDE8F08100BF012002B019
:10287000BDE8F0810020C4F2472000210160FEF78E
:102880007DFC0546306880077FF5C7AEFEF776FC15
:10289000401B02284FF00300F4D962E720F4803097
:1028A00030603068002920F48020306050D0FEF77E
:1028B00065FC0546306880033FF588AEFEF75EFC98
:1028C000401B6428F6D9032002B0BDE8F08100BFA8
:1028D00004F11C052FCD246B084340EA8210D90374
:1028E0004FF6FF729143A1F5803140EA056008433D
:1028F00040EA0470706001203866FEF73FFC044631
:1029000030688001ADD4FEF739FC001B02284FF07F
:102910000300F5D925E700BFFEF730FC054641F27C
:10292000883700BF306F800708D5FEF727FC401BB3
:10293000B8424FF00300F5D913E700BFB8F1000F1C
:102940003FF571AE306C20F0805030646BE600BF14
:10295000FEF714FC054600BF306880037FF536AEF5
:10296000FEF70CFC401B64284FF00300F4D9F8E696
:1029700070470000B0B582B001684A688B6803F008
:102980004105012D08D112F0400505D0016C02B0BF
:10299000BDE8B040084700BF9D0707D512F080058D
:1029A00004D0416C02B0BDE8B040084713F4B07FDA
:1029B00018BF12F0200501D102B0B0BD5D0618D5D8
:1029C00090F85150032D09D100200190C868019062
:1029D00088680190019802B0B0BD00BF456D45F018
:1029E0000405456500250195CD6801958D68019523
:1029F000019D9D0604D4DB0511D4436DDBB9DBE7F3
:102A0000456D45F001054565002501958D680195E9
:102A10000D6825F040050D60019DDB05EDD5436D8A
:102A200043F008034365002301938B680193019BE6
:102A3000436D002BC0D04B68920723F0E0034B603E
:102A40004FF0010380F8513026D04A6844F28544A3
:102A500022F003024A60C16CC0F6000459B1054679
:102A600008460C65FEF770F80146284619B1416D1D
:102A700041F040014165816C00299DD00C65044600
:102A80000846FEF761F8002896D0606D40F04000DF
:102A9000606502B0B0BD00BF02B0BDE8B040FFF756
:102AA00067BF000070B528B1416A29B100210161FA
:102AB000142106E0012070BD4168B1F5827F02D08B
:102AC0001C21002242500026866290F8511029B93C
:102AD00080F85060054600F03DF82846022180F855
:102AE000511090E82E0002F482720C6803F4044343
:102AF00024F040040C601A4405F4006305691A448C
:102B000005F0020345691A4405F001038569C469AB
:102B10001A4405F400731A4404F03803046A1A4492
:102B200004F08003846A1A4304F400531A430A60D1
:102B3000436A042202EA154203F010031A444A6071
:102B4000CA6922F40062CA610121466580F8511009
:102B5000304670BD70B586B0044643F2000021686F
:102B6000C4F20100002681420596CDE90366029673
:102B7000019601D006B070BD43F630010096C4F254
:102B800002014A6900F5504042F480524A614A69A4
:102B900002F480520092009A00960A6842F0010204
:102BA0000A60096801F0010100910099E02101919A
:102BB0000221CDE90216032104910521059101A905
:102BC000FEF706FA41F2C44546F25840C2F200054B
:102BD000C4F202004FF0C06140224FF4806385E8E8
:102BE00047002846C5E90436C5E90666C5E9086612
:102BF000FEF7A4F8002818BFFDF7A2FF232000214C
:102C00000022A564AC63FFF75DFB2320FFF748FBC0
:102C100006B070BD2DE9F04184B01D4616460F4642
:102C20000446FEF7ABFA94F8511001290ED1804604
:102C3000002F4FF0010018BF002E03D104B0BDE8F3
:102C4000F08100BF94F85000012803D1022004B0A5
:102C5000BDE8F081012084F850000320002184F8B1
:102C6000510061652763A686E686A163A187E18797
:102C7000A0682164B0F5004F2068616407D1016845
:102C800021F040010160016841F480410160016868
:102C9000490603D4016841F0400101606168731E78
:102CA000E268B1FA81F1B3FA83F349095B09B2F53D
:102CB000006F41EA030139D131B137F8021BC1601D
:102CC0002763E08E0138E086E08E002870D0681C13
:102CD0000BD11AE0216B31F8022BC2602163E08E28
:102CE0000138E086E08E002862D02068816889077C
:102CF000F0D4FEF743FAA0EB0800A842F2D338E084
:102D0000FEF73CFAE08E002852D0206881688907DF
:102D1000F6D5216B31F8022BC2602163E08E0138B9
:102D2000E086E08E0028F0D142E000BF39B139786A
:102D30000173206B01302063E08E0138E086E08E65
:102D4000B0B3681C0BD123E0216B09780173206BB1
:102D500001302063E08E0138E086E08E40B32068C9
:102D600081688907F0D4FEF709FAA0EB0800A842B1
:102D7000F3D3012084F85100002084F85000032090
:102D800004B0BDE8F08100BFFEF7F8F9E08E78B13D
:102D9000206881688907F7D5216B09780173206B5A
:102DA00001302063E08E0138E086E08E0028EFD10C
:102DB0002046022101222B46CDF8008001F006FCBE
:102DC000E0B1606D40F02000606520206065A06883
:102DD00038B9002002902068C16802918068029092
:102DE0000298012084F85100002084F85000606DA2
:102DF000002818BF012004B0BDE8F08140F21C009B
:102E0000C2F20000006849F68171C1F25E61A0FB68
:102E10000101480D4FF47A71484303906068B0F5A2
:102E2000827F0BD12046802100222B46CDF80080E6
:102E300001F0CCFB0028C4D1C9E700BF03980028EB
:102E4000C5D0039801380390206880680006BED57D
:102E500003980028BBD0039801380390206880684D
:102E60000006B4D503980028B1D003980138039028
:102E7000206880680006AAD503980028A7D0039888
:102E800001380390206880680006D7D49FE70000CF
:102E900090F85130012B0BD100294FF0010318BFDE
:102EA000002A01D11846704790F85030012B03D109
:102EB00002231846704700BF10B5012380F8503038
:102EC000032380F851300023436501638286C28664
:102ED0008363C0E910338387C38784680268B4F5CD
:102EE000004F07D1146824F040041460146844F4BF
:102EF00080441460D0F848C044F2B14E44F2B94462
:102F0000C0F6000EC0F60004CCE90F4E44F2914426
:102F1000C0F60004CCE91343C38E04460C3260466D
:102F2000FDF7BEFF60B1606D012340F010006065E9
:102F3000002084F85000BDE810401846704700BFDC
:102F400020680168490603D4016841F0400101602E
:102F5000002384F85030416841F02001416041680D
:102F600041F002014160BDE8104018467047000082
:102F70007047000070470000411E0020B0EB116F49
:102F80001CBF012070474EF21002CEF200025160C9
:102F90004EF62351CEF20001F0230B700721906012
:102FA00011607047002804BF0120704710B5044627
:102FB00090F8410028B9002084F84000204600F035
:102FC00021F8242084F841002068C16821F40051D0
:102FD000C160204601F0EAFB2068016921F49041BC
:102FE0000161416921F02A014161C16841F4005148
:102FF000C16000202021606484F8411084F84210F0
:10300000606310BD2DE9F04786B0026844F20043CA
:10301000C4F2000300219A42CDE90411CDE9021166
:1030200001916FD045F20001C4F200018A4240F0E4
:1030300090808046002643F630000096C4F20200DD
:103040000169002541F4801101610169C4F20205A2
:1030500001F48011009100990096016801AC41F0E3
:103060000401016001684FF0020901F004010091C0
:103070000099009601684FF0030A41F008010160D1
:103080000068082700F00800009000984FF4805076
:10309000019005F500602146CDE90296CDF810A01B
:1030A0000597FDF795FF0420CDE9010905F540607E
:1030B0002146CDE9036A0597FDF78AFF41F22454C2
:1030C00046F2B800C2F20004C4F202004FF0006100
:1030D00040224FF4806384E847002046C4E9043668
:1030E000C4E90666C4E90866FDF728FE002818BF93
:1030F000FDF726FDC8F83840C4F8388006B0BDE8B2
:10310000F08700BF43F630000091C4F2020002696C
:1031100042F400320261026902F400320092009A25
:103120000091026842F001020260006800F00100B4
:10313000009000980C2001900220CDE902010320AC
:103140000490072005900020C4F2020001A9FDF7B9
:103150003FFF06B0BDE8F0872DE9F04381B004469B
:1031600090F84100202809D100294FF0010018BF34
:10317000002A07D101B0BDE8F08300BF022001B0F2
:10318000BDE8F0830020606421201D460E4684F8CF
:1031900041001746FDF7F2FFA784E784A168814646
:1031A000B1F5805F02D1206900285DD0374600204C
:1031B000E28C2168002A5DD06A1C24D0002D4AD000
:1031C000804600BF0868000608D4FDF7D7FFA0EBD3
:1031D0000900A8427AD82168C868F3E717B117F840
:1031E000010B04E038F8020B00276FF35F20486002
:1031F000E08C0138E084E08C0028E3D13AE000BFA5
:103200000A68120609D40A68120606D40A68120669
:103210005CBF0A685FEA0262F2D51FB117F8012BA2
:1032200005E000BF30F8022B00276FF35F224A60F1
:10323000E28C013AE284E28C002AE4D11AE000BF79
:1032400030F8022B00276FF35F224A60E28C013ACC
:10325000E284E28C72B10A68120635D5002FEFD0F5
:1032600017F8012BF1E700BF00273046E28C2168F8
:10327000002AA1D1086840061ED42DB3681C14D1C1
:10328000086840062AD40868400627D40868400623
:1032900024D4086840064FF00000F1D50DE000BFCF
:1032A0002068C1680068400618D4FDF767FFA0EBEE
:1032B0000900A842F4D909E00020202184F8411037
:1032C00001B0BDE8F08300BFFDF758FF03202021C7
:1032D00084F8411001B0BDE8F08300BF0020202138
:1032E00084F8411001B0BDE8F0830000FEE7000063
:1032F00041F28450C2F20000FDF74ABF41F284500F
:10330000C2F20000FDF7ECBF10B581B000210091C2
:10331000806B40F21C01C2F2000190F83DC00968C8
:103320004BF28952C908C1F2F842A1FB0212110AFC
:10333000232251430091009911B300990139009162
:103340000168096889051FD50099C9B1009901393B
:10335000009101680968890516D5009981B1009925
:10336000013900910168096889050DD5009939B1C5
:10337000009901390091016809688905DBD403E0EF
:10338000016C41F020010164446B4FF0000E002CF1
:103390001CBF0021E163816B00291CBF0022CA63AE
:1033A0000268002C136823F480631360A0F82AE0FD
:1033B00018BFC4F850E000291CBF00230B6511683A
:1033C00021F00101116090F83D1060290CD12021FD
:1033D00080F83D10002180F83E10016401B0BDE886
:1033E0001040FDF7D1BE00BF0CF02801282911D1F3
:1033F000116841F001011160116841F480611160B0
:1034000000210163282180F83D1001B0BDE8104083
:10341000FEF764BA202180F83D10002180F83E10AC
:1034200001B0BDE81040FEF759BA000010B5846B3A
:10343000616B00291CBF0022CA63A16B00291CBF5D
:103440000022CA63FDF792FB022808BF10BD206866
:10345000016821F48061016000202021608584F8EA
:103460003D1084F83E00206C40F01001204621649D
:10347000BDE81040FEF732BA10B5846B94F83D20D9
:1034800094F83EE0D4F82CC02168606B4B680028AB
:1034900023F440734B601CBF0023C363A06B002860
:1034A0001CBF0023C36302F02100212820D002F0BA
:1034B0002200222808BFBEF1200F19D094F83E0048
:1034C000002808BF10BD608D012803D1086820F4D2
:1034D000806008604868BCF1070F20F440704860C5
:1034E00028DCBCF12A4F2BD01CF5803F28D02BE0E4
:1034F00048682A2A20F4006048604FF00000608588
:103500000AD0292A10D121202063282084F83D00E8
:103510002046FEF757FE07E022202063282084F88B
:103520003D002046FEF74CFE2068416841F44071A2
:10353000416010BDBCF1200F02D0BCF1080F03D1D7
:10354000086840F400700860486820F480504860C3
:10355000486820F40060486000216185206C28B133
:103560002046BDE81040FEF7B9B900BF202084F81E
:103570003D0094F83E0084F83E10402806D12046D5
:103580002163BDE81040FEF763BA00BFBCF108003C
:1035900018BF1220BCF1200118BF0146204621634C
:1035A000BDE81040FEF750BA10B5044690F83D1043
:1035B00090F83E00B0F1100218BF0122403818BF49
:1035C0000120024208BF222934D001F02800282817
:1035D0003AD100202063282084F83D00206841680B
:1035E000090542D5416821F400614160606B90F8A3
:1035F0003510012958D1A06B43F20931C0F6000102
:103600000165FDF7A1FA002861D0206841694906EB
:1036100006D50069616A0870616A206801316162DB
:10362000016821F001010160202084F83D00A06BB9
:103630004BE000BF2068026822F40062026042682A
:10364000120505D50CE000BF20684268120507D4BA
:10365000602905D0202184F83D10002184F83E1017
:103660000021216341680905BCD494F83D1060290C
:1036700050D1202184F83D10002121644169490680
:1036800006D50069616A0870616A2068013161626B
:10369000016821F0010101602046FDF775FD206CF5
:1036A000000717D11BE000BF43F20931C0F600014B
:1036B0000165FDF749FA50B12168606B0A6822F094
:1036C00001020A60202184F83D10016D8847206CBA
:1036D000000704D02068416821F4E061416094F85B
:1036E0003D00216C490758BF10BD282810D100208B
:1036F000CFF6FF70E06200212020216384F83D00B6
:10370000204684F83E10BDE81040FEF79BB900BF8C
:1037100010BD00BF4169490605D50069616A08709E
:10372000606A013060622046FEF7D8F8206C00071E
:10373000D0D1D4E7C16A428D042A07D10168426A18
:103740004B6823F480634B60096911E0428D032AC2
:1037500016D102680229536823F48063536005D0B0
:10376000042903D0116821F4806111601169426A53
:103770001170416A01314162418D013941857047C3
:10378000428D022A12D14A1E0F2A19D8DFE802F010
:1037900008121812181818181818181818181808D5
:1037A0000268136823F480630EE000BF0168426A78
:1037B000CAE700BF0268136843F4806304E000BFF7
:1037C0000268136843F4007313601269436A1A7045
:1037D000426AD0F800C0531C4362438D013B4385CD
:1037E000DCF810305370426A036801324262428D45
:1037F000013A42855A6822F440725A60202280F8C9
:103800003D2090F83E300022402B80F83E2003D12E
:103810000263FEF71DB900BFB1F1080218BF122202
:10382000203918BF11460163FEF70EB981B090F838
:103830003D10222910D1C16A428D042A0ED301689D
:10384000426A09691170416A01314162418D013951
:103850004185418D03295DD001B07047C36A012ABB
:1038600058D8022B56D00022009240F21C02C2F21D
:10387000000212684BF28953D208C1F2F843A2FB4E
:1038800003231A0A02EB82020092009A013A009284
:10389000009A002A46D0026813689B051AD5009A40
:1038A000013A0092009AEAB3026813689B0511D5A9
:1038B000009A013A0092009AA2B3026813689B052D
:1038C00008D5009A013A0092009A5AB30268136828
:1038D0009B05DAD4136823F480631360536823F4E0
:1038E000E06353601269436A1A70426A01324262AD
:1038F000428D013A4285202280F83D2090F83E30EA
:103900000022402B80F83E2028D1026301B0FEF750
:103910009FB800BF0068416821F48061416001B038
:10392000704700BF016C41F0200101640168426AE8
:103930004B6823F4E0634B6009691170416A0131FF
:103940004162418D01394185202180F83D100021DF
:1039500080F83E1001B0FDF7C1BF00BFB1F1080211
:1039600018BF1222203918BF1146016301B0FEF7BB
:103970006BB80000C16A90F83D20212A18BF70473B
:10398000428D4AB1416A026811F8013B13614162FC
:10399000418D01394185704711F5803F18BF0829D5
:1039A00018D101684A6822F4E0624A600A6842F469
:1039B00000720A6000212022016380F83D2090F807
:1039C0003E2080F83E10402A08BFFEF771B8FEF78F
:1039D0003DB800BF2029E4D001684A6822F4E062C3
:1039E0004A6011210163002180F83E10202180F8F7
:1039F0003D10FEF72BB8000090F83D1090F83EC047
:103A0000C26A038D002B08BF212919D0212905D0B6
:103A1000BCF1400F08BF222900D07047418D69B327
:103A200090F83E10402908BF00F040B8416A026893
:103A300011F8013B13614162418D013941857047A5
:103A400012F5803F18BF082A1ED101684A6822F487
:103A5000E0624A600A6842F400720A600021202293
:103A6000016380F83D2090F83E2080F83E10402A07
:103A700008BFFEF71DB8FDF7E9BF00BF0068416849
:103A800021F4806141607047202ADED001684A68D5
:103A900022F4E0624A6011210163002180F83E10A7
:103AA000202180F83D10FDF7D1BF000090F83D10B7
:103AB000026D5AB1026D012A14D10168826CD2B232
:103AC0000A61016D01310165704700BFC26C816CF4
:103AD000012A15D10268C9B21161016D0231016577
:103AE000704700BF026D022A12D1222918D1016845
:103AF0000A6842F480720A60016D01310165704705
:103B00000268C1F307211161016D01310165704740
:103B100000684169090644BF00210161704700BF88
:103B2000428D5AB1212909D1416A026811F8013B3D
:103B300013614162418D013941857047428D002AF0
:103B400008BF2129EAD101684A6822F4E0624A608C
:103B50000A6842F400720A6000212022016380F8A2
:103B60003D2080F83E10FDF7A3BF00002DE9F0478F
:103B700082B0044600689A460B9D0A9E03689146EF
:103B800043F48062026002680F4642F48071016073
:103B900020464FF0011100223346009500F032F923
:103BA00050B120680068C00544BF4FF40070206425
:103BB000032002B0BDE8F08740F202082068C0F29E
:103BC000010807F0FE0707612046414632462B46B2
:103BD00000F0FEF920B1012002B0BDE8F08700BF7F
:103BE0000020019020682A46416901918069314690
:103BF00001900198204600F09FFAB0B92068BAF110
:103C0000010F09D04FEA19210161204631462A46A9
:103C100000F092FA48B920685FFA89F10161204604
:103C200031462A4600F088FA60B1206C0428D2D1CF
:103C30002068016841F400710160012002B0BDE814
:103C4000F08700BF206800220168334641F480718C
:103C5000016020464FF00111009500F0D3F80028D4
:103C60009FD147F0010C27682046414632462B463B
:103C7000C7F810C002B0BDE8F04700F0A9B90000D5
:103C80002DE9F04383B0044600680F4601680A9DA1
:103C90000B9E41F4807199469046016020464FF09A
:103CA000011100222B46009600F0ACF850B12068BC
:103CB0000068C00544BF4FF400702064032003B0C7
:103CC000BDE8F083206807F0FE0101610221C0F227
:103CD000010120462A46334600F07AF920B101203E
:103CE00003B0BDE8F08300BF002002902068324698
:103CF000416902918069294602900298204600F0AD
:103D00001BFA58B1206C0428E9D12068016841F4FD
:103D100000710160012003B0BDE8F0832068B9F1B3
:103D2000010F0AD04FEA1821016120462946324688
:103D300000F002FA0028E5D120685FFA88F10161FD
:103D4000002003B0BDE8F08370B50368044653F863
:103D5000140F400711D40E46481C29D086BB00BF63
:103D60001868400527D4FDF709FA236853F8140FA3
:103D7000400737D518684007F2D5002070BD00BF56
:103D800018684007F9D41868400514D4186840072B
:103D9000F3D4186840050ED418684007EDD41868AD
:103DA000400508D4186840074FF0000048BF70BDB8
:103DB00018684005E4D56FF480601860042012E0B4
:103DC000154603E053F8140F4007D6D41868400591
:103DD000F1D4FDF7D3F9401B2368B042F2D95869FA
:103DE0004007EFD4202000212022216384F83D20C9
:103DF00084F83E10226C10432064012084F83C10AB
:103E000070BD00002DE9F041054600681E461446CD
:103E100001F47F0201338FB242D0DDF81880B2F591
:103E2000803F40F0878040693840C01BB0FA80F086
:103E30004009A04240F0C8804EB924E040693840B3
:103E4000C01BB0FA80F04009A04240F0BD80FDF7F1
:103E500095F9A0EB08012868B142EFD941693940D2
:103E6000C91BB1FA81F14909A142E7D19BE000BF2A
:103E700040693840C01BB0FA80F04009A0424FF0C2
:103E8000000040F0A280FDF779F9286841693940C7
:103E9000C91BB1FA81F14909A142E9D183E000BF10
:103EA000B2F5803F24D100BF41693940C91BB1FA46
:103EB00081F14909A14240F0878041693940C91B1D
:103EC000B1FA81F14909A14240F07E80416939404F
:103ED000C91BB1FA81F14909A14275D14169394043
:103EE000C91BB1FA81F14909A142DDD06CE000BFE4
:103EF00081693940C91BB1FA81F14909A14263D1F5
:103F000081693940C91BB1FA81F14909A1425BD1EC
:103F100081693940C91BB1FA81F14909A14253D1E4
:103F200081693940C91BB1FA81F14909A142DFD049
:103F30004AE000BF80693840C01BB0FA80F04009F9
:103F4000A04241D146B923E080693840C01BB0FA95
:103F500080F04009A04237D1FDF710F9A0EB08012D
:103F60002868B142F0D981693940C91BB1FA81F1A1
:103F70004909A142E8D116E080693840C01BB0FA77
:103F800080F04009A0424FF0000018BFBDE8F0816A
:103F9000FDF7F4F8286881693940C91BB1FA81F14D
:103FA0004909A142E8D100202021286385F83D106D
:103FB00085F83E00296C41F02001296485F83C0019
:103FC0000120BDE8F08100BF0020BDE8F0810000C5
:103FD000F0B581B0044600681D4643698FB203EA1C
:103FE0000701B94202D1002001B0F0BD4169164677
:103FF00001323CD0490512D47EB300BFFDF7BEF8B4
:10400000411B2068B14203D941693940B9422BD1E3
:1040100041693940B942E6D041694905EED50168A8
:1040200041F4007101606FF480614161042000215E
:104030002022216384F83D2084F83E10226C104336
:10404000206484F83C10012001B0F0BD4169394082
:10405000B942C8D041694905E1D4FDF78FF820681D
:1040600041693940B942F1D02020E0E74169490572
:10407000D5D441693940B942B5D041694905CED45A
:1040800041693940B942AED041694905C7D4416957
:104090003940B942A7D041694905C0D44169394086
:1040A000B942E3D19FE7000070B5044600681546A9
:1040B00050F8143F5A063DD40E4629B926E000BFF9
:1040C00050F8141F490635D40168C90621D4FDF7FC
:1040D00055F8411B2068B142F2D941694906EFD435
:1040E00000202021206384F83D1084F83E00206CDD
:1040F00040F0200018E000BFFDF740F8206850F8BD
:10410000141F4906ECD50168490613D40168C90695
:10411000F2D56FF01001016000202021206384F8A7
:104120003D1084F83E00206C2064002084F83C00A0
:10413000012070BD002070BD70B50368044653F8BF
:10414000140F000611D40E46481C29D086BB00BFB0
:104150001868400527D4FDF711F8236853F8140FA9
:10416000000637D518680006F2D5002070BD00BFE4
:1041700018680006F9D41868400514D418680006B9
:10418000F3D4186840050ED418680006EDD41868FA
:10419000400508D4186800064FF0000048BF70BD05
:1041A00018684005E4D56FF480601860042012E0C0
:1041B000154603E053F8140F0006D6D418684005DE
:1041C000F1D4FCF7DBFF401B2368B042F2D95869F9
:1041D0000006EFD4202000212022216384F83D2016
:1041E00084F83E10226C10432064012084F83C10B7
:1041F00070BD000080B582B0002043F63001019010
:10420000C4F202010A6842F480020A600A6802F4F9
:1042100080020192019A00900868002240F4001088
:1042200008600868002100F4001000900098102039
:10423000FEF748F81020FEF733F811200021002285
:10424000FEF740F81120FEF72BF82F200021002266
:10425000FEF738F82F20FEF723F83B20002100223C
:10426000FEF730F83B2002B0BDE88040FEF718B8FA
:104270002DE9F04387B0002743F630000697CDE9DB
:104280000477CDE902770197C4F20200016840F695
:10429000000941F0040101600168C4F2020901F063
:1042A00004010191019901970168A9F5806541F028
:1042B000800101600168002201F0800101910199F3
:1042C000019701684FF4886641F0010101600168BF
:1042D00001F00101019101990197016841F002018A
:1042E0000160016801F002010191019901970168E3
:1042F00041F00801016000684FF4886100F0080097
:10430000019001982846FCF733FF4846802100229F
:104310004FF08008FCF72CFF029602AE01242846DD
:104320003146CDE903470597FCF752FE4846314632
:10433000CDE90284CDE90477FCF74AFE4FF4006032
:1043400002904FF48810CDE9030448463146FCF74B
:104350003FFE282000210022FDF7B4FF2820FDF7B2
:104360009FFF07B0BDE8F08380B541F2845045F26D
:104370000041C2F20000C4F2000141F68022002395
:104380004FF4804CC0F2060280E80E00C0E9033C06
:10439000C0E90533C0E90733FDF7A2FA002808BFDA
:1043A00080BDBDE88040FCF7CBBB000080B541F28A
:1043B000D85043F20001C2F20000C4F201014FF4F0
:1043C000827200234FF4007C80E80E000A21C0E9CD
:1043D0000333C0E9053CC361C0E90833C0E90A31D1
:1043E000FEF760FB002808BF80BDBDE88040FCF7F9
:1043F000A7BB000080B541F2786045F20001C2F22F
:104400000000C4F2000100234FF00C0C4FF4E13225
:1044100080E80E00C0E90333C0E905C3C361FEF7BD
:10442000C1FD002808BF80BDBDE88040FCF788BB07
:1044300080B541F2306044F20041C2F20000C4F2A3
:10444000000100234FF00C0C4FF4E13280E80E0025
:10445000C0E90333C0E905C3C361FEF7A3FD00282B
:1044600008BF80BDBDE88040FCF76ABBFEE70000E6
:10447000FEE700007047000041F2D850C2F2000091
:10448000FEF778BA806B0021C187C186FEF770BA4B
:10449000806B01684A6822F003024A60416D41F076
:1044A00010014165012180F85110FEF761BA00004A
:1044B000806BFEF75FBD0000B0B584B0846B05462D
:1044C000FCF75CFE29680968C90531D405462068F7
:1044D00001224168642321F020014160416821F0FC
:1044E0000201416020460221009500F06FF828B3D8
:1044F000606D40F020006065606D40F020006065F8
:10450000A06838B9002002902068C16802918068D4
:10451000029002980020E086012084F85100606D2E
:1045200030B1204604B0BDE8B040FEF721BA00BF6C
:10453000204604B0BDE8B040FEF71ABD40F21C00B2
:10454000C2F20000006849F68171C1F25E61A0FB11
:104550000101480D4FF47A71484303906068B0F54B
:10456000827F09D12046802100226423009500F03B
:104570002DF80028BCD1C3E703980028C0D00398C9
:1045800001380390206880680006B9D50398002898
:10459000B6D0039801380390206880680006AFD534
:1045A00003980028ACD003980138039020688068F5
:1045B0000006A5D503980028A2D0039801380390DF
:1045C000206880680006D7D49AE700002DE9F04300
:1045D00081B0089C984615460E468146FCF7CEFDF4
:1045E000201A00EB0804FCF7C9FD40F21C01C2F2DE
:1045F00000010968C1F3CB3161430091D9F8001083
:104600008A683240921BB2FA82F25209AA423DD025
:10461000074618F1010031D0FCF7B0FDC01BA042E5
:1046200038D2009800990028A1F101010091D9F831
:104630000010896808BF044601EA0600801BB0FA32
:1046400080F04009A842E7D120E000BF88683040F0
:10465000801BB0FA80F04009A84217D0886830402B
:10466000801BB0FA80F04009A8420FD08868304023
:10467000801BB0FA80F04009A84207D0886830401B
:10468000801BB0FA80F04009A842DFD1002001B0C1
:10469000BDE8F083D9E900014268B1F5827F22F0DC
:1046A000E00242600BD1D9F80810B1F5004F02D0FA
:1046B000B1F5806F03D1016821F040010160D9F8A4
:1046C0002810B1F5005F07D1016821F400510160A5
:1046D000016841F400510160012089F85100002077
:1046E00089F85000032001B0BDE8F0837047000056
:1046F000FDF76ABD70B594B007AC20463421FBF7D6
:10470000C8FD002543F640000695CDE90455CDE9E6
:1047100002550195C4F202000168012241F0805166
:1047200001600068022600F080500190019847F275
:1047300000000195C4F20000016862F38F3101604E
:10474000006800F440400190019810200B900F90F9
:104750004FF4A87010900420CDE91106204607966A
:104760000A92CDE90D651396FDF714FF10B172B6EC
:10477000FEE700BF0F20CDE902064FF48050CDE9DF
:10478000050502A802210495FDF7D8FD10B172B607
:10479000FEE700BF14B070BD4EF68850CEF20000A8
:1047A000016841F47001016070470000B0B5044633
:1047B000006804F108030ECB0569194325F4405540
:1047C0002A4302616269E3691143C268194349F2ED
:1047D0000C639A431143C1604169A26921F440719D
:1047E00041F20043114340F48062C4F201039A4253
:1047F000416103D1FDF768FE02E000BFFDF750FE06
:10480000E1694FF69C7563681922C0F6FF75B1F532
:10481000004FA0FB02011FD15A00DB0FFBF7EEFC9B
:1048200048F21F51C5F2EB11A0FB01235A0905F113
:10483000805302FB0300322303EBC000A0FB010105
:104840004FF4F87000EA111000EB0210C1F34211AE
:10485000084421688860B0BD9A009B0FFBF7CEFC2E
:1048600048F21F51C5F2EB11A0FB01235A0902FBCC
:104870000500322303EB0010A0FB0101F02000EA49
:10488000511000EB0210C1F3431108442168886005
:10489000B0BD0000FEE700002DE9F04F83B0002717
:1048A00088460546ADF80A70ADF8087000F0C2FA07
:1048B00047F67820C0F60000B0F800A041F2A0361C
:1048C000C2F200064FF00A0B0DF10809052442E080
:1048D0000130B6F900307080284651464FF491728D
:1048E000CDF800B0CDF804B001F0CCF8B8F8021063
:1048F0003BB228464FF49172CDF800B0CDF804B029
:1049000001F0C0F83780FBF7ABFC46F26761C6F2F6
:10491000666150FB01F18A1002EBD17101EB81015C
:10492000A0EB4101BDF808000529DCBF0130ADF85E
:104930000800B8F81210C0F1F00003B228460022B7
:10494000CDE900B401F09EF828460DF10A024B466D
:1049500000F006F9B0B91420FCF7F4FA70881A28B0
:10496000B6D3FBF77DFC4FF21101C1F2FE0150FB03
:1049700001F10A1102EBD171F12201FB12070020B3
:10498000A6E700BF03B0BDE8F08F00002DE9F04FAF
:10499000DDF824C0177C4FF00008ACF80080022F2F
:1049A000B2F9187046F2676606FB07F7B2F91A40CB
:1049B0004FEAA74505EBD77504FB06F74FEAA74674
:1049C00006EBD7744FF00D0E03EB841408BF4FF0C5
:1049D000100E24F815E0B2F908508CF8028046F267
:1049E000676A40F220088542C6F2666AC2F2000891
:1049F00014DA00F10A0555FB0AF5AE1006EBD57581
:104A00008E1C56FB0AF6B70807EBD67608EB86161F
:104A100006EB450601F1080714E000BF854235DDCD
:104A200046F267654543AE1406EBD5754E1C56FB42
:104A30000AF6B70807EBD67608EB861606EB4506AE
:104A400001F1090757FB0AF7BC0804EBD77408EB20
:104A5000841434F81590B6F800B05BEA0907B7FA89
:104A600087F44FEA541418BF01278CF80040B2F9BC
:104A70000A508D420FDA841C54FB0AF40A31A51047
:104A800051FB0AF105EBD4748D0810E00127B2F94F
:104A90000A508D42EFDB8D4224DD841C54FB0AF466
:104AA000A51005EBD47446F2676569438D1405EBD8
:104AB000D171083008EB811150FB0AF001EB44057D
:104AC000841004EBD07031F81080298851EA080472
:104AD000B4FA84F54FEA551518BF01248CF801503B
:104AE00001E000BF0124B2F91850B2F91A2046F2D1
:104AF00067667543A814724300EBD570951405EBF7
:104B0000D27203EB8213002223F8102087B11FFA20
:104B10008BF01FFA89F2A0EB0E00A2EB0E02B0FAA6
:104B200080F0B2FA82F24009520902438CF8022066
:104B3000002C08BFBDE8F08F88B21FFA88F1A0EB07
:104B40000E00A1EB0E01B0FA80F0B1FA81F140093C
:104B50004909084310438CF80200BDE8F08F0000BB
:104B60002DE9F0438DB0118815461F46F02905D177
:104B70004FF001090FF2B8081E2107E03988F0292B
:104B800050D14FF002090FF2B008A021A022064632
:104B900000F038FA47F678210020C0F6000128809E
:104BA0000D883880F0270A24304629460022002349
:104BB000CDE9004700F066FF304629464FF49B726E
:104BC0000023CDE9004700F05DFF304629464FF451
:104BD00091720023CDE9004700F054FF03AF38463F
:104BE0002821FBF756FB47F68020C0F6000000881E
:104BF00013A140EA05453846424602F047F847F619
:104C00008C21C0F6000130462A465023009700F060
:104C100077FE4FF47A70FCF795F948460DB0BDE881
:104C2000F08300BF4FF0000948460DB0BDE8F083A7
:104C300052696768740000004C65667400000000EB
:104C4000257320506C617965722057696E7321005D
:104C50002DE9F04F81B02DED0A8B84B08A4647F6DE
:104C60008221C0F600010D8847F67E21C0F60001C2
:104C70000C8847F67821C0F60001B1F800B006466E
:104C8000594600F0D1FF30461E218C222346039462
:104C90001E2400F03DF93046B4218C222B460295AB
:104CA00000F05AFB47F68020C0F600000788304627
:104CB00039464122B4230094019400F0EDFD3046C2
:104CC0003946D722B4230094019400F0E5FD9FED0E
:104CD000568A41F2A8389FED55AA9FED55BA912406
:104CE0001425C2F20008B6EE009AB1EE00CA00BF69
:104CF0001420FCF727F998ED000A28EE091A20EE97
:104D0000090A30EE018AB4EE4A8AF1EE10FA07DDA4
:104D100020B200EE100AB8EEC00A3AEE481A0CE0D3
:104D2000B4EE4B8AF1EE10FAA1460EDA20B200EE94
:104D3000100AB8EEC00A3BEE481A21EE0C1A31EE0A
:104D4000000ABDEEC00A10EE109A22B23046594653
:104D5000B9230095019500F095FE0FFA89F43046CD
:104D600039462246B9230095019500F08BFEDB2CD5
:104D700022DC472C4C46BBDA1E24304659464122E1
:104D8000B4230094019400F07DFE0094039D30460E
:104D900029464122B423019400F07EFD14273046B9
:104DA00029464622B9230097019700F06BFE029B2B
:104DB000012002211EE000BF1E2430465946D722A2
:104DC000B4230094019400F05DFE0094029D3046EF
:104DD0002946D722B423019400F05EFD1427304603
:104DE0002946DC22B9230097019700F04BFE039B74
:104DF000022001218AF8001000218AF810004FF4E7
:104E00007A708AF80110AAF80250AAF81230FCF75A
:104E100099F83046594604B0BDEC0A8B01B0BDE8A4
:104E2000F04F00F001BF00BF00000000CDCC4C3EB1
:104E3000CDCC4CBE70B58CB00D4647F67821C0F68F
:104E400000010E880446314600F0EEFE47F6802051
:104E5000C0F60000008847F68C2140EA0642002098
:104E60008DF82F00CDF82B00CDF82700CDF82300CA
:104E7000CDF81F00CDF81B00CDF81700CDF81300BA
:104E800046F64610C6F66700029042F27400C2F27F
:104E90002110039042F22110C0F22100CDF80F0042
:104EA000C0F6000102AE20467823009600F028FDEF
:104EB0002878012816D147F67E20C0F60000038826
:104EC00020461E21A02200F023F847F68220C0F6DB
:104ED000000003882046A021A02200F03DFA0CB07B
:104EE00070BD00BF47F68220C0F600000388204650
:104EF0001E21A02200F030FA47F67E20C0F6000006
:104F000003882046A021A02200F002F80CB070BD5A
:104F10002DE9F04782B00E46044601F13100A2F1BE
:104F20003C010FFA81F91D469046322702B2204615
:104F300019464B46009700F01BFD4FF0640C32B24F
:104F4000204629464B46CDE900C700F09BFDA8F15D
:104F50000F0106F114000FB24FF0140A02B22046FE
:104F600029463B46CDF800A000F002FD06F13200D4
:104F700002B2204629463B46CDF800A000F0F8FCDE
:104F800006F14F0002B2204629463B46CDF800A06C
:104F900000F0EEFC47F68020C0F60000058806F120
:104FA0001900082702B2204629464B46009700F018
:104FB000DFFC06F1410002B2204629464B4600972D
:104FC00000F0D6FC47F67820C0F60000058806F110
:104FD0001B00A8F13A01022702B20BB22046294673
:104FE000009700F0C5FC06F13F00A8F13E0102B2B7
:104FF0000BB220462946009700F0BAFC02B0BDE88B
:10500000F08700002DE9F04184B0044647F67A208D
:10501000C0F6000007880E46A1F10C0801F131002E
:10502000A2F1410115464FF0330C02B20BB22046FB
:105030003946CDF800C000F09BFCB01EA5F14B0135
:105040004FF0460C4FF0680E02B20BB220463946C4
:10505000CDE900EC00F016FDA5F119004FF0230C8E
:105060004FF07C0E0FFA88F203B220463946CDE9A4
:1050700000EC00F007FD47F6782142F65060C0F6DC
:105080000001039042F652600988C2F6496002901E
:1050900041EA074206F11200A5F13701C0EA0143D7
:1050A00047F68C21C0F6000102AF2046009700F0C1
:1050B00027FC04B0BDE8F0812DE9F04F87B00D4624
:1050C00047F67821C0F600010988044600F0ACFDDF
:1050D000294611F8100B0128884608BFA846022867
:1050E00047F68020C0F600000088029508BF2946D8
:1050F0000591019040F2200041F26035C2F20000BB
:10510000C2F200050021069009E000BF049906984C
:105110000131182900F14000069000F0B980049197
:1051200001EB810005214FEA400A01EB400000B28B
:105130004FF0000B039000BF28680699426831F8D1
:105140001B108A423CD0686842688A4238D0A868FE
:1051500042688A4234D0E86842688A4230D028697E
:1051600042688A422CD0686942688A4228D0A8697D
:1051700042688A4224D0E86942688A4220D0286A7C
:1051800042688A421CD0686A42688A4218D0A86A7B
:1051900042688A4214D0E86A42688A4210D0286B7A
:1051A00042688A420CD0686B42688A4208D0A86B79
:1051B00042688A4204D0E86B42688A4254D100BFF8
:1051C000A1F10C02042A0BD20BEB8B014900A8F8C9
:1051D0000810A8F80AA0D8F80820C8F804200AE0A7
:1051E00010293DD10BEB8B01059B49001981A3F8D8
:1051F0000AA09A685A60069B002223F81B200788A1
:10520000B0F802908668C819013809EB0A0295B215
:1052100083B289B21FFA8AF22046009501F0B6F8EF
:10522000204601F0ADF86069218B0122FBF7A0FF59
:1052300007FB09F0400081B220463246012301F00D
:1052400073F9204601F096F841F26035C2F200058C
:105250000BF1010BBBF1200F7FF46EAF56E700BFDF
:105260000BEB8B014900CAE70BEB8B00052101EB2F
:1052700040000199039B02B220460127009700F0ED
:1052800077FB0BF1010BBBF1200F7FF455AF3DE72E
:10529000029D4FF01009287801284FF0100008BF38
:1052A0000D2000F0A9F8B0F800A0A9684788D0F850
:1052B00008800AEB0100013807EB11430A0C9EB28B
:1052C00083B289B22046009601F060F8204601F0D2
:1052D00057F86069218B0122FBF74AFF0AFB07F0B0
:1052E000400081B220464246012301F01DF92046CC
:1052F00001F040F8287C012808BF4FF00D0948460E
:1053000000F07AF8B0F80090A9694788D0F80880D2
:1053100009EB0100013807EB11430A0C9EB283B27E
:1053200089B22046009601F031F8204601F028F8B5
:105330006069218B0122FBF71BFF09FB07F040008E
:1053400081B220464246012301F0EEF8204607B024
:10535000BDE8F04F01F00EB8F0B583B0044601F19E
:1053600032000E46A2F1320107B29FED190ADFEDBD
:10537000190A9C4615464FF0010E0AB220463946DE
:105380003223CDE900EC01F03BFA47F68020C0F66D
:1053900000000188A5F14B004FF0080C03B2204635
:1053A0003A46CDF800C000F0E3FA47F67820C0F6A0
:1053B0000000018806F13000A5F14E03022702B279
:1053C0001BB22046009700F0D3FA03B0F0BD00BF37
:1053D000000052430000164380B582B0019041F2B4
:1053E0003060C2F2000001A901224FF0FF33FDF747
:1053F000B3FE019802B080BD41F26032C2F20002F9
:1054000011684B6883423CD051684B68834238D066
:1054100091684B68834234D0D1684B68834230D066
:1054200011694B6883422CD051694B68834228D064
:1054300091694B68834224D0D1694B68834220D064
:10544000116A4B6883421CD0516A4B68834218D062
:10545000916A4B68834214D0D16A4B68834210D062
:10546000116B4B6883420CD0516B4B68834208D060
:10547000916B4B68834204D0D16B4A68824218BF5B
:1054800000210846704700002038C1B25F2928BFBC
:105490000020C0B2704700002DE9F04F87B0804671
:1054A000808B1EB286422FDAB8F81EA0BAEB234FCB
:1054B0002ADD91F800E0BEF1000F25D091F801C07F
:1054C000BCF1000F20D04FEA134B26EAE679002EFC
:1054D00058BF0026AEEB0607002B5C46664619FA5D
:1054E00087F544BF0024A6EB0B06854288BFA0EBDE
:1054F000090714FA86F0504588BFAAEB0406380461
:1055000018BF5FEA064003D107B0BDE8F08F00BFC7
:105510001098CDF804B0144602930CFB0EF90D461A
:10552000FFF7B2FF95F801A02978BAF1000F0490B7
:105530003AD020BAAC46030C4FF47F4041F2C06E23
:10554000224600EA14250CF102000027C2F2000EE8
:105550008B46039005E000BF4FF0000B0137574525
:1055600024D2BBF1000FF7D004980AFB0076039811
:1055700030F81640002600BF04FA06F007FB0B6166
:105580000004184658BF45EA12602EF811009CF836
:1055900000B001365E45EFD39CF801A059460137B3
:1055A0005745DED302E000BF4FF0000A029E019F84
:1055B0007018441E0AEB0700451E404600F0E0FE4E
:1055C000300A8DF81800200A8DF81A008DF81B405B
:1055D00006AC40464FF0FF312A2204238DF81960B3
:1055E000009400F049FF300E8DF81400280A8DF861
:1055F00015708DF8160005AF40464FF0FF312B2295
:1056000004238DF81750009700F036FF40464FF006
:10561000FF312C2200F0F8FE404600F0ABFE404681
:1056200000F0AEFED8F81400B8F818100122FBF70D
:105630009FFDB9F1000F21D041F2C065C2F2000513
:105640004E4601E0F61B19D0B145374638BF4F46EC
:10565000B7F5806F28BF4FF48067002FF2D0790034
:10566000D8F800008AB22946FDF712FCD8F80000ED
:10567000806CFBF77DFA0228F8D0E3E7404600F0A3
:1056800079FE07B0BDE8F08F2DE9F04F85B0DDE978
:105690000E7686469742A6EB03050FD19E4244D074
:1056A0002EB2012570463A46002E48BF7642CDE91B
:1056B000005600F0E7F905B0BDE8F08FB81A9E4239
:1056C00000B20DD1002848BF4042012785B2704684
:1056D0003346CDE9005700F0D5F905B0BDE8F08FAD
:1056E0000FFA85FCBCF1000F48BFCCF1000C00287C
:1056F00048BF4042604509D23C461746B3420BDCE6
:105700002246B2463C461E4608E000BF34463E46AE
:105710001F461346B342F3DD3A469A464FF0FF3533
:105720009442B8BF0125B24502DA05B0BDE8F08F5A
:10573000AAEB060B0FFA8BF3B2EB04094FEA6308EE
:1057400048BFC9F100096045CDE903E131D20CE061
:10575000A8EB09080FFA88F0002806F1010006B24C
:1057600044BFD8442C445645DFDC22B2002AEFD493
:10577000BEF81C00A3B28342EAD833B2002BE7D4B0
:10578000BEF81E00B7B28742E2D8704600F028F893
:10579000DDE903E1DCE700BFA8EB09080FFA88F0B8
:1057A000002806F1010006B244BFD8442C445645F7
:1057B000BBDC32B2002AEFD4BEF81C00B3B2834285
:1057C000EAD823B2002BE7D4BEF81E00A7B2874266
:1057D000E2D8704600F004F8DDE903E1DCE7000000
:1057E0002DE9F04184B0868BB24252DAC68BB342C7
:1057F0004FDA22EAE27723EAE37549BAADF80610F8
:105800007E1C05F10108044600F0BAFD380A8DF847
:105810000C00300A8DF80D708DF80E0003AF204695
:105820004FF0FF312A2204238DF80F60009700F01B
:1058300023FE280A8DF808004FEA18208DF80A0088
:1058400002AF20464FF0FF312B2204238DF8095080
:105850008DF80B80009700F00FFE20464FF0FF31CF
:105860002C2200F0D1FD204600F084FD204600F0FF
:1058700087FD6069218B0122FBF77AFC20680DF11E
:10588000060102224FF0FF33FDF7C4F9204600F075
:1058900071FD04B0BDE8F0812DE9F04F83B00646FC
:1058A000DDE90C091C4600EB02080FFA88FA3046C5
:1058B00017468B46CDE900A4FFF7E6FE09EB040589
:1058C000681E03B2304659463A46CDE900A3FFF7B9
:1058D000DBFE2DB2304659463A462346CDE90075E7
:1058E000FFF7D2FEA8F1010002B230465946234626
:1058F000CDE90025FFF7C8FE03B0BDE8F08F00003A
:105900002DE9F04F81B00A9D994690468A4683461C
:105910001C0C1E462F780A2F05D120E04E4601357B
:105920002F780A2F1BD00D2FF8D0EFB1BBF81C0039
:1059300031B2814218DCBBF81E0021B2814213DC77
:10594000C6EA04435846514642460097FFF7A4FD75
:105950009AF80000013506442F780A2FE3D19AF80F
:1059600001000444DAE700BF01B0BDE8F08F000099
:105970002DE9F04F89B0129C04939BB21E1B06EBDD
:10598000440301331FB233B2CDE902010592CDE9E0
:105990000027FFF779FE012C70DB4FF0000AAAEB1D
:1059A0004402C4F101050123264605E018B2831C18
:1059B0001D44B345DA4661DA28B2911CB0F1FF3FCD
:1059C000C2BF0D440A46013E36B20AF101000FFA89
:1059D0008AF18E420FFA80FB0894CDE9063222DD6F
:1059E00004990598891B01EB4602DDF80880DDF873
:1059F0000C905844531C0CB202B21FB240464946A8
:105A00002346CDE90027FFF73FFE05984946A0EB66
:105A10000B0002B240462346089CCDE90027FFF761
:105A200033FEDDE90632A0B2B1B28142BED00499A4
:105A3000DDF81490A1EB0A0104EB090001EB4A0226
:105A4000029C039F531C0FFA81F802B20FFA83FAEB
:105A5000204639464346CDE9002AFFF715FE08984F
:105A60003946A9EB000002B220464346CDE9002AA0
:105A7000FFF70AFEDDE90632344697E709B0BDE8D4
:105A8000F08F00002DE9F04784B0878BBA4229DA05
:105A9000DDF834C0BCF1000F24D004460C9808B3E4
:105AA000E58BAB421EDA22EAE27A0026002A58BFD2
:105AB0003246801A23EAE378002B48BF1E46ACEB3F
:105AC00006091AFA80F2BA4218FA89F288BFA7EBDF
:105AD0000A00AA4288BFA5EB0809020418BF5FEAC2
