:020000040800F2
:1000000000260020D9010008ED4700084538000807
:10001000E947000845090008855100080000000074
:10002000000000000000000000000000694A000815
:100030007909000800000000F14700086D4A000837
:10004000F3010008F3010008F3010008F3010008C0
:10005000F3010008F3010008F3010008F3010008B0
:10006000F3010008F3010008F30100084909000842
:10007000F3010008F3010008F3010008F301000890
:10008000F301000855090008F3010008F301000816
:10009000F3010008F3010008F3010008F301000870
:1000A000F3010008F3010008F3010008F301000860
:1000B000F3010008F3010008F301000855380008B7
:1000C00049380008F3010008F3010008F54700086B
:1000D000F3010008F3010008F3010008F301000830
:1000E0007D090008F3010008F3010008F30100088E
:1000F000F3010008294B0008F3010008610900081A
:10010000F3010008F3010008F3010008F3010008FF
:10011000F3010008794C0008F3010008F30100081E
:10012000F3010008F3010008F30100086D0900085D
:10013000F30100080000000000000000F3010008C7
:10014000F3010008F3010008F3010008F3010008BF
:10015000F3010008F3010008F3010008F3010008AF
:10016000F3010008F3010008F3010008F30100089F
:10017000F3010008F3010008F3010008000000008B
:1001800000000000F3010008000000000000000073
:10019000F30100080000000000000000F301000867
:1001A000000000000000000000000000F301000853
:1001B000F3010008F3010008F3010008F30100084F
:1001C000F3010008DFF80CD000F056FB00480047B0
:1001D000816E000800260020064880470648004738
:1001E000FEE7FEE7FEE7FEE7FEE7FEE7FEE7FEE7E7
:1001F000FEE7FEE7154B0008C50100082DE9F05F9A
:100200000546002092469B46884606468146402485
:100210001BE0284641464746224600F004FA534672
:100220005A46C01A914110D311461846224600F092
:10023000EBF92D1A67EB01084F46224601200021F9
:1002400000F0E2F917EB00094E41201EA4F1010471
:10025000DFDC484631462A464346BDE8F09F0000B1
:100260000649074A0868504343F2390210440860BF
:1002700040087047014908607047000000000020F6
:100280006D4EC641D2B201E000F8012B491EFBD2EF
:1002900070470022F6E710B513460A460446194691
:1002A000FFF7F0FF204610BD2DE9FE4F804681EAA2
:1002B0000300C00F0C46009021F0004123F00045E0
:1002C000B8EB0200A94105D24046214690461C46A3
:1002D0000B46024623F00040104347D0270DC7F3DA
:1002E0000A00C3F30A510290401A019040286BDAC9
:1002F000C3F3130040F4801B0098924620B1002302
:10030000D2EB030A63EB0B0B01985946C0F1400294
:10031000504600F079F906460D4650465946019A76
:1003200000F091F910EB08006141002487EA1152B6
:1003300084EAE7731A4340D0009A62B3019A012A13
:100340004FEA075215DC001B61EB02014FF000423F
:1003500002EA0752CDE90042001C41F58011324605
:100360002B4600F0C8F903B0BDE8F08F40462146A7
:10037000F9E7001B61EB0201001C41F58013001836
:100380005B412018A2F5001747EB030140EAD57046
:10039000B6196D4111E06D084FEA360645EAC075A1
:1003A0004FEA0752001B61EB0201001C41F580116E
:1003B00049084FEA30000019514132462B4603B03C
:1003C000BDE8F04F00F088B90098012240000023FA
:1003D000D0EB020263EBE073009821464FEAE07431
:1003E000B8EB000061EB0401E9E783F000435BE751
:1003F00081F0004158E72DE9F04D81EA030404F053
:10040000004B21F0004514464FF0000A23F0004154
:1004100050EA050220D054EA01021DD0C5F30A5764
:100420000246C5F31303C1F31300C1F30A5640F4A7
:10043000801543F48013A7EB0608101BD64608F27C
:10044000FD3873EB050002D308F1010801E09218B2
:100450005B41B8F1000F03DA00200146BDE8F08DE2
:1004600000204FF48011064684460EE0171B73EB04
:10047000050705D3121B63EB050306434CEA010C89
:1004800049084FEA300092185B4150EA0107EDD16C
:1004900052EA030012D082EA040083EA050108430D
:1004A00005D0101BAB4106D20122002306E000223A
:1004B0004FF0004302E06FF0010253101AEB060008
:1004C0004CEB085110EB0A0041EB0B01BDE8F04D7D
:1004D00000F002B930B5041E71F1000404DB4FF0E6
:1004E0000044404264EB0101141E73F1000405DB7B
:1004F0001C464FF00043524263EB0403101A8B4139
:1005000001D3012030BD002030BD30B5041E71F193
:10051000000404DB4FF00044404264EB0101141E70
:1005200073F1000405DB1C464FF00043524263EBBD
:100530000403801A994101D2012030BD002030BD52
:1005400070B5C1F30A5201F000450024C1F3130154
:1005500040F2FF3341F480119A4201DA002070BD6D
:1005600040F233439A42A2F2334203DC524200F09B
:100570005AF800E090402C43F1D0404270BD00F0AA
:10058000004230F000400AD0C10D01F56071C0F3A7
:10059000160042EA0151C20840071143704700208B
:1005A0000146704701F0004330B421F0004150EAA9
:1005B000010206D00A0DA2F56072C1F31301002AF0
:1005C00002DC30BC00207047440F44EAC104C10083
:1005D000E01830BC00EBC25000F047B830B50B4615
:1005E000014600202022012409E021FA02F59D4263
:1005F00005D303FA02F5491B04FA02F52844151E37
:10060000A2F10102F1DC30BD202A04DB203A00FA1D
:1006100002F1002070479140C2F1200320FA03F359
:10062000194390407047202A04DB203A21FA02F057
:100630000021704721FA02F3D040C2F1200291401C
:10064000084319467047202A06DBCB17203A41FAA7
:1006500002F043EAE07306E041FA02F3D040C2F14F
:10066000200291400843194670470029A8BF7047EF
:10067000401C490008BF20F00100704710B4B0FAD8
:1006800080FC00FA0CF050EA010404BF10BC704773
:1006900049B1CCF1200421FA04F411FA0CF118BF8D
:1006A000012121430843A3EB0C01CB1D4FEA00615C
:1006B0004FEA102042BF002010BC704700EBC3502F
:1006C00010440029A4BF10BC7047401C490008BF5B
:1006D00020F0010010BC704710B5141E73F1000427
:1006E00008DA401C41F1000192185B411A4301D124
:1006F00020F0010010BD2DE9F04D92469B4611B14E
:10070000B1FA81F202E0B0FA80F220329046FFF7AF
:100710007BFF04460F4640EA0A0041EA0B015346BC
:100720005A46084313D0114653EA010019D0C8F1C4
:1007300040025046FFF777FF05460E4650465946A1
:100740004246FFF761FF084305D0012004E0204640
:100750003946BDE8F08D0020054346EAE0762C439B
:1007600037430A986305E40AA0EB08000022FD0A5B
:1007700044EA47540A3002D500200146E9E7010562
:1007800010196941DDE9084500196941BDE8F04DDE
:10079000A2E72DE9FE4F81EA030404F0004421F0B2
:1007A000004100944FF0000B23F0004350EA010495
:1007B0005ED052EA03045BD0C3F30A54C1F30A5576
:1007C0002C44A4F2F3340194A0FB0254C1F31301AE
:1007D00041F48011C3F3130343F4801301FB02447B
:1007E00000FB034E840A970A44EA815447EA835780
:1007F000A4FB076802958D0A05FB07854FEA932C39
:1008000004FB0C542705029D4FEA065847EA1637A9
:10081000B5EB08056EEB070C870E920E47EA8117C1
:1008200042EA8312A7FB0201B6EB0B0164EB000462
:100830002B0D43EA0C335E1844EB1C50DA4651464C
:10084000E7FB0201C5F313044FEA0B3343EA1453E9
:100850004FEA0432019C43EA0603A4F10C0402941B
:10086000009CCDE900B4FFF746FF03B0BDE8F08F70
:1008700000200146F9E700001CB50948009009482E
:1008800001900546009C06E0E06840F0010394E812
:10089000070098471034AC42F6D3FFF797FC0000EE
:1008A0002C9300084C9300080EB5C10F80EAE0704D
:1008B0000844CA07002140F233438DE80E000A467F
:1008C0000B46FFF718FF03B000BD0EB540F23341F1
:1008D00002910021CDE900110A460B46FFF70BFFFC
:1008E00003B000BD70B58D1810F8014B14F0030271
:1008F00001D110F8012B231106D110F8013B03E0C0
:1009000010F8016B01F8016B521EF9D1ABB110F870
:10091000012B04F00C048A1A0C2C03D0A2EB8412D5
:100920009B1C08E010F8014BA2EB0422F8E712F838
:10093000014B01F8014B5B1EF9D5A942D4D300202D
:1009400070BD0000FEE7000041F2F830C2F2000086
:1009500000F07CB841F25840C2F2000000F076B8D6
:1009600041F21850C2F2000000F070B841F2B840F5
:10097000C2F2000000F06AB8704700004FF4006057
:1009800000F09ABA72B600BFFEE7000070B5866D3F
:10099000044600F073FB94F83510022928D105466F
:1009A0002068216C026822F016020260426922F07F
:1009B0008002426109B9A16C19B1016821F00801F6
:1009C0000160016821F00101016000BF206800683A
:1009D000C00715D000F052FB401B0628F6D320209C
:1009E0006065032084F83500002184F8341070BD60
:1009F000802060650120002184F8341070BD00BFA4
:100A0000E06D3F2101FA00F0B060012084F835006C
:100A10000020002184F8341070BD000090F83510DB
:100A2000022909D1052180F835100068016821F0FC
:100A3000010101600020704780214165012070475D
:100A4000406D704790F8350070470000F0B581B0F8
:100A50000021009140F21C01C2F200010B68D0E9B4
:100A6000166148F2B51537680822C1F64E358A403E
:100A70003A42A3FB05350CD003681C68640708D50F
:100A80001C6824F004041C60B260426D42F0010254
:100A9000426501228A403A4208D003685B691B061E
:100AA00004D5B260426D42F00202426504228A40DF
:100AB0003A4208D003681B689B0704D5B260426DB8
:100AC00042F00402426510228A403A4219D001687D
:100AD0000B681B0715D5B2600B680A685B0309D465
:100AE000D20509D40A6822F008020A60016C29B90B
:100AF00007E000BF110341D4016C11B104468847DF
:100B00002046C26D202101FA02F33B4243D0016826
:100B10000F68FF063FD5B36090F835700B68052F5E
:100B20001CD123F016030B604B6923F080034B614B
:100B3000036C0BB9836C1BB10B6823F008030B60CB
:100B40003F219140B160012180F83510016D0022F4
:100B5000002980F8342054D158E000BF0A685B03B4
:100B600010D4D20512D40A6822F010020A600121C2
:100B700080F83510002180F8341007E0816C0029DE
:100B8000BCD1BEE7110301D4416C00E0C16B11B1CF
:100B9000044688472046416DC1B3416DC9072ED038
:100BA000052180F835100168AA0A0B6823F00103BB
:100BB0000B60009B0133934200931AD80B68DB074C
:100BC00017D0009B01339342009312D80B68DB07C8
:100BD0000FD0009B0133934200930AD80B68DB07C8
:100BE00007D0009B01339342009302D80B68DB07C8
:100BF000DFD1012180F83510002180F83410C16C5C
:100C000021B101B0BDE8F040084700BF01B0F0BD20
:100C10002DE9F041044600F031FAECB1054602201E
:100C200084F835000020216884F83400086820F03A
:100C30000100086021680868C00711D000F01EFAA2
:100C4000401B0528F6D9032520230320636584F87B
:100C50003550BDE8F08100BF0120BDE8F08100BF44
:100C6000086848F23F02CFF21002D4E9013500EAE9
:100C7000020C04F10C0898E8C10143EA0C032B4371
:100C80001843D4E9072E304338431043626A40EAE0
:100C90000E00042A40EA08031CD1206BD4E90A2E76
:100CA00040EA0E00184308604869BEF1000F20F0CA
:100CB000030040EA020040F0040C11D0B8F5005FD8
:100CC00036D0B8F1000F45D1022A46D0012A3BD0D8
:100CD00032B942E00B60486920F0070040EA020C9C
:100CE00001F0F8004AF6AB221038CAF6AA22A0FB9F
:100CF00002231A0948F28C53C1F814C0C0F600034D
:100D00009A5C40F2FF335F284FF03F0021EA030175
:100D100000FA02F088BF0431C4E91612886000238B
:100D200001250020636584F83550BDE8F08100BFDF
:100D3000032AD5D8012540230120DFE802F0030E65
:100D4000030500BF82E700BFAEF1C070B0FA80F0CB
:100D5000400904E0032A04D3C2D1CEF30060002886
:100D6000BED0012540230120636584F83550BDE8DD
:100D7000F081000090F834C0BCF1010F04BF0220E4
:100D8000704770B54FF0010C80F834C0D0F858E0CF
:100D900090F835C0BCF1010F38D14FF0020C80F84B
:100DA00035C04FF0000CC0F854C0D0F800C08468C3
:100DB000056CC06DDCF80060402C26F48026CCF871
:100DC0000060CCF804300B4604BF13460A463F21AE
:100DD00001FA00F0CCF80830CCF80C20CEF808006E
:100DE000DCF8000040F01600CCF800002DB1DCF873
:100DF000000040F00800CCF80000DCF8000040F0F3
:100E00000100CCF80000002070BD00BF002180F878
:100E10003410022070BD0000B0B5044600F02EF979
:100E2000054640F21400C2F200000078611C18BFB1
:100E3000044400BF00F022F9401BA042FAD3B0BD29
:100E4000B0F5006F2CD141F2AC30C2F20000416825
:100E50000131416041681E2922D10021416041F2E7
:100E60007851C2F2000191F83D10202918BF704757
:100E700080B582B000F1240E41F278504FF0060C9C
:100E8000C2F20000D0213B220123CDE900EC00F0AA
:100E900095FD02B0BDE8804010B102A007F0BCBAD9
:100EA000704700BF493243207265616420657272E9
:100EB0006F72210D0000000043F61441C4F20101DD
:100EC0000A68024214BF08607047FFF7B9BF00000C
:100ED0002DE9F04F83B000F1200200F13E4741F6CA
:100EE0000005009207F1FF77C4F2020507224FEADE
:100EF000B726A84208BF062200254FF000084FF091
:100F00000009062E38BF4FEAB72201920AE000BF5F
:100F100009F1010908F10208B9F1100F05F1040502
:100F200000F0A2800F68012202FA09FE17EA0E0AF9
:100F3000EED0D1F804C003220CF003077E1E02FAA3
:100F400008F4012E6FEA040B12D88468CE6804EA14
:100F50000B0406FA08F634438460446824EA0E065B
:100F6000CCF3001404FA09F42643466004E000BF01
:100F7000032F01D103271EE0C6688C6806EA0B0622
:100F800004FA08F42643022FC66014D16FF003025E
:100F9000009E02EA590756F807C005F01C040F220C
:100FA0000B69A2402CEA0202A3401A43F251D1F885
:100FB00004C00CF00307026807FA08F302EA0B0208
:100FC0001A431CF4403F0260A2D0002243F64403BF
:100FD0000292C4F202031A6843F6004442F48042CB
:100FE0001A601A68C4F2010402F480420292029A62
:100FF00029F003024FF6084C2244CFF6FF7C52F84A
:101000000C3005F00C070F26BE40B343019E06FAD4
:1010100007F73B4342F80C30A2684B6842EA0A07E4
:1010200043F60C4CDE0258BF22EA0A07A760C4F25E
:10103000010CDCF800209E0242EA0A0758BF22EAAF
:101040000A07CCF8007062689E0342EA0A0758BF9C
:1010500022EA0A0767602268DB0342EA0A0758BFF0
:1010600022EA0A07276053E703B0BDE8F08F0000CB
:10107000002A08BF090481617047000041F6FC7036
:10108000C2F200000068704770470000704700001F
:10109000F0B581B00446006800254769426894F8BD
:1010A0003E1002F48076FA0505D5002E1EBF6FF4BF
:1010B000807242610125BA0505D5002E1EBF02359A
:1010C0006FF4007242617A0516D5AEB1628D94F864
:1010D0003D30D4F830C0202908BF002A24D06FF456
:1010E0008062402905F10405426101D0102903D135
:1010F000016841F400710160380507D536B12068F8
:1011000008356FF40061416101E000BF55B1206C0A
:1011100040EA05012046216401B0BDE8F04002F03C
:10112000EFBC00BF01B0F0BD03F0F701212909D0E9
:10113000282B08BFBCF1210F04D06FF480614161FE
:101140000435D9E794F83D10E26AB2F1080318BFFC
:101150000123203A18BF0122134208BF282921D0B9
:10116000212939D10021CFF6FF71E16221212163CC
:10117000202184F83D10002184F83E10426822F4BA
:10118000E06242606FF480624261026822F4806231
:1011900002604269120648BF0161204600F0BCFDB2
:1011A000AAE700BF0021CFF6FF71E162416821F498
:1011B000E06141606FF480614161016821F4806108
:1011C000016000202021206384F83D1084F83E0057
:1011D000204600F0B7FB8FE76FF4806141618BE739
:1011E000F0B581B007687968C26A90F83E5090F80F
:1011F0003DE0402D01D0102D34D1BB697C69E6075C
:1012000018D1B2F12A4F00F06782B2F52A0F00F030
:101210006382220701F4007240F10681002A00F087
:101220000381416B426C0029D2B23A6140F0B08038
:10123000B0E000BF8A0543D44FF0010C7A685B0729
:101240006ED4120500F1488204F04402402A40F0B6
:10125000598111F4806100F0558101B0BDE8F04082
:1012600002F090BD026C01F40073002A0CBFBC694F
:1012700000247D69AA0729D543B3016C002918BF52
:10128000BC6990F83D1001F02801282940F0C08089
:101290007968012221F48061796004F0040182EA16
:1012A000910122064FF0180258BF0C22825A0023E7
:1012B00080F83C3001B0BDE8F040FFF7E7BE00BF6A
:1012C000C16AB1F52A0F3DD1012140E0EA066FD590
:1012D000002B6DD090F83D50796821F4E061796081
:1012E0000021009179690091396841F0010139606C
:1012F0000099396821F4806139607968090540F105
:10130000798105F0F7010446222940F0498154F81B
:10131000381F0A68526824F80E2C34F80E2C47E166
:10132000120500F1D98104F08402802A40F0F8808F
:1013300011F4806100F0F48001B0BDE8F04002F0EB
:1013400007BE00BFC16AB1F12A4F01D10821C162B5
:1013500090F83E1040290BD1016D406C002900F03F
:10136000FE0018BF40F00100386101B0F0BD00BFC1
:101370000169B1F5804F40F0898090F83D10426CD2
:10138000212902F0FE0218BF01323A61416B09B116
:10139000C96B39B9806B002800F09E81C06B0028B2
:1013A00000F09A81786840F40060786001B0F0BD88
:1013B0000EF0F702212A79D105F08402802A40F04C
:1013C000C18011F4806100F0BD8090F83D10428D25
:1013D000002A00F08181426A12F8013B3B614262BF
:1013E000428D013A4285428D002A08BF292940F0EA
:1013F0007381796821F4806179602121016328215A
:1014000080F83D1001B0BDE8F04000F085BC00BFA1
:10141000002100917A690092BA690092009A80F8DE
:101420003C1001B0F0BD00BF4FF0010CA6078CEAE4
:10143000522C7FF503AF002A3FF400AF90F83E2016
:10144000C16A036B90F83D60222E40F09F80066DCC
:10145000002E08BF402A00F09980026D002A40F05B
:101460003D810269B2F5404F40F038810021009182
:1014700079690091B96900910099396841F48071E6
:101480003960016D0131016501B0F0BD016D0029C8
:1014900000F00081016D012940F01E81406C0621A1
:1014A00001EAD010F130386101B0F0BD05F044021E
:1014B000402A57D111F4806154D090F83D10428DEC
:1014C000002A00F009813A69436A1A70426A0132BF
:1014D0004262428D013A4285428D002A08BF2A2984
:1014E00040F0FA8001684A6822F480624A60222152
:1014F0000163282180F83D1001B0BDE8F04000F004
:1015000009BC00BF04F00401012282EA910151EA02
:101510000C0140F0E18001B0BDE8F04002F0B6BB44
:1015200004F00401012282EA910151EA0C0140F029
:10153000D380BEF1210F40F0C78001B0BDE8F0407C
:1015400002F0C4BC690740F1C780002B00F0C480E2
:10155000418D002900F0C080416A11F8012B3A61E9
:101560000FE000BF690740F1B780002B00F0B480A6
:10157000418D002900F0B0803969426A1170416ADA
:1015800001314162418D01394185A5E00020009083
:1015900078690090B8690090009801B0F0BD00BF74
:1015A00054F8341F0A68526824F80A2C34F80A2CBC
:1015B0001AB1026C42F0040202647A68064622F410
:1015C000006208467A60FFF73DFA0146304601297D
:1015D00010D0206843F66101C0F600010165FFF7F5
:1015E0001DFA0146304629B1216804460A6D0846B5
:1015F00090472046418D61B101684A6952072FD456
:101600004A69520639D4418D19B1016C41F0040187
:101610000164016C21B101B0BDE8F04002F070BA84
:101620002A2D08D100210163282180F83D100446AD
:1016300000F070FB204690F83D10282932D100219F
:10164000CFF6FF71C16200212022016380F83D20A6
:1016500080F83E1001B0BDE8F04000F073B900BF63
:101660000969426A1170426A016801324262428D20
:10167000013A42854A695206C5D50969426A117024
:10168000416A01314162418D01394185418D002915
:10169000BBD1BEE7406C062101EAD010F0303861C2
:1016A00001B0F0BD016B222918BF222D14D10021F9
:1016B0002022016380F83D2080F83E1001B0BDE893
:1016C000F04000F027BB00BF402D05D101B0BDE8C0
:1016D000F04002F097BC00BF01B0F0BD428D52B1A6
:1016E000428D012A16D1202918BF082926D1396830
:1016F00021F4806139600021009179690091B96914
:1017000000910099396841F4007139600021016548
:1017100001B0F0BD428D022A0CD1102932D801222D
:1017200014238A40C0F201031A422BD04FF4806286
:101730002EE000BF3A6842F480622BE011F5803F52
:101740000CD1396821F48061396079680905D2D5F6
:10175000396821F48061396030E000BF122B01D17B
:101760000129C4D11029F3D8012202FA01F114226F
:10177000C0F201021142EBD0396841F48061396056
:101780001CE000BF3A6822F480623A604FF40062C5
:101790003B681A433A607A6812050FD54A1E1F2A21
:1017A00018D8012303FA02F248F28103C8F20003B9
:1017B0001A420FD0796841F480517960002100917C
:1017C00079690091B969009100990021016501B022
:1017D000F0BD00BF11F5803FECD0EFE7704700008F
:1017E000002804BF01207047F0B581B0044690F88E
:1017F0003D0028B9002084F83C00204600F000FAA3
:10180000242084F83D002068016821F00101016076
:10181000016841F400410160016821F40041016068
:1018200000F0E8FB636848F2A16CC0F2010C40F6DE
:101830000011C0F23D0163453CBF48F28041C0F257
:101840001E01884202D2012001B0F0BD4DF6836135
:10185000C4F21B31A0FB01122168970CD1F804E0FF
:101860004FF496762EF03F0545EA92454D6077435A
:1018700048F638160D6AC0F24106A7FB067625F039
:101880003F07634538BF960C721C3A430A62CA6927
:1018900048F2A0664CF6FF77C0F20106B34222EA96
:1018A00007020BD801385B00B0FBF3F001306FF397
:1018B0001F30042898BF04201BE000BFA768013830
:1018C00057B119277B43B0FBF3F001306FF31F30A2
:1018D00070B100F5804007E003EB4303B0FBF3F089
:1018E00001306FF31F3018B100F5004001E000BF78
:1018F00001201043C8610868D4E9072320F0C00024
:10190000104318430860886848F2FF3204F10C075E
:1019100090438CCF18431043A6698860C86820F0B4
:10192000FF0038433043C860086840F00100086099
:1019300000202021206484F83D10206384F83E00BC
:1019400001B0F0BD70470000704700007047000014
:10195000006845F20041C4F20001884218BF704798
:1019600041F2AC30C2F20000818CC28CC9BA038D46
:1019700000EE101A40F22061C2F20001D2BADBBAC6
:1019800091ED001A02EE102A03EE103AB8EEC00AEA
:10199000B8EEC11AB8EEC22AB8EEC33A80EE010A18
:1019A00082EE012A83EE011A80ED020A80ED032AFD
:1019B00080ED041A70470000704700002DE9F047E1
:1019C00086B0984616460F460446FFF757FB00219F
:1019D000059194F83D10202940F0998040F21C01B7
:1019E000C2F2000109684BF28952C908C1F2F842FB
:1019F000A1FB0215DDE90E23290A1925694305918A
:101A00000599013905910599002975D021688D69DD
:101A1000AD071DD5059901390591059900296BD0B0
:101A200021688D69AD0713D505990139059105998F
:101A3000002961D021688D69AD0709D50599013963
:101A400005910599002957D021688D69AD07D7D434
:101A500094F83C50012D5AD0012584F83C500D6873
:101A6000ED0703D10D6845F001050D600D684FF0DD
:101A7000000C25F400650D60222584F83D504025BA
:101A800084F83E50C4F840C062626385638D0025CF
:101A9000CFF6FF752385E5626764A664C4F84C80C1
:101AA000C4F850C0C3B3A56B002D57D0814643F690
:101AB000D110C0F6000043F6851C4FF0000AC0F6B6
:101AC000000CC5E90F0A10312846C5E911AAC5E97D
:101AD00013CAFFF74FF9002850D0202084F83D00AA
:101AE00084F83EA0206C40F01000206484F83CA0F4
:101AF000012006B0BDE8F08700202021206384F893
:101B00003D1084F83E00206C40F02000206402204C
:101B100006B0BDE8F08700BF4FF0230C0546204615
:101B2000394632464346CDE900C502F0CBFA0028DB
:101B3000DED10020039021684A6903928A690392EA
:101B4000039A0A6842F400720A60202184F83D106A
:101B500084F83C0006B0BDE8F08700BF202084F880
:101B60003D00002084F83E00216C41F0800121649A
:101B700084F83C00012006B0BDE8F087232520460C
:101B8000394632464346CDE9005902F09BFAA8B1E6
:101B9000A06BFEF743FFA16B20680022CA630168B7
:101BA00021F48061016022856285016821F00101D4
:101BB0000160012006B0BDE8F08700BF208D2168DC
:101BC000012805D1086820F48060086004E000BFA7
:101BD000486840F480504860002004904A690492AC
:101BE0008A690492049A84F83C004A6842F480723C
:101BF0004A604A6842F400624A6006B0BDE8F08775
:101C00002DE9F04387B0044645F200402168C4F254
:101C10000000002681420696CDE9046603960296EE
:101C200002D007B0BDE8F08343F630050196C4F258
:101C30000205296846F2100841F00201296029686E
:101C400000F5D83001F00201019101994FF4407183
:101C500002911221CDE90316032105910421069179
:101C600002A9C4F20208FFF733F9019628694FF080
:101C7000007740F400102861286941F2F83500F43B
:101C8000001001900198C2F200054FF480692846C7
:101C9000C5E90087C5E90266C5E90496C5E9066697
:101CA000C5E90866FEF7B4FF002818BFFEF76AFE14
:101CB000A563AC6341F2584508F19000C2F20005FB
:101CC0004021C5E9000705F10800002280E806026E
:101CD0002846C5E90522C5E907226A62FEF798FF92
:101CE000002818BFFEF74EFE1F200021002265636A
:101CF000AC6300F091F81F2000F07CF82020002158
:101D0000002200F089F8202000F074F807B0BDE848
:101D1000F0830000704700007047000040F214009C
:101D200041F6FC71C2F20000C2F2000100780A68BC
:101D3000104408607047000080B543F60040C4F2CC
:101D40000200016841F400710160016841F48061A2
:101D50000160016841F480710160032000F088F89F
:101D6000002000F005F800F027F8002080BD0000FA
:101D700070B540F21406C2F2000640F21C0132783F
:101D8000C2F200014FF47A730968B3FBF2F2044621
:101D9000B1FBF2F1084600F099FE0F2C4FF001055F
:101DA00008D838B94FF0FF3021460022002500F056
:101DB00033F87460284670BD82B0002043F64001BD
:101DC0000190C4F202014A6842F480424A604A68C3
:101DD00002F480420192019A0090086840F080501D
:101DE0000860086800F0805000900098072002B05A
:101DF00000F03EB8002848BF704700F01F010122E4
:101E000002FA01F11C2202EAD0004EF20012CEF2D8
:101E1000000281507047000010B54EF60C5CCEF207
:101E2000000CDCF80030C3F3022E8EF00704042C03
:101E300028BF0424BEF103034FF0FF3E0EFA04F462
:101E400038BF0023A14399400EFA03F39A4311438C
:101E500000F00F0200F160430901043A03F5644306
:101E60006244002848BF02F10C03197010BD000045
:101E70004EF60C51CEF200010A684FF6FF031A40ED
:101E800060F30A2242F0806040F0FD700860704705
:101E9000002804BF012070472DE9F04143F60808EF
:101EA000C4F202080446D8F8F8030D4600F00F000B
:101EB000884207D288F8F853D8F8F80300F00F00EA
:101EC000A84277D12068810717D5410705D5D8F8F2
:101ED000001041F4E051C8F80010010705D5D8F80A
:101EE000001041F46041C8F80010D8F80010A26852
:101EF00021F0F0011143C8F80010C00740D1D8F814
:101F0000F80300F00F00A84207D988F8F853D8F872
:101F1000F80300F00F00A8424CD12068410707D514
:101F2000D8F80010E26821F4E0511143C8F800101D
:101F3000000708D5D8F80000216920F4604040EA85
:101F4000C100C8F8000000F07DF8D8F8001048F291
:101F50006852C1F30311C0F60002515C40F21C024A
:101F600020FA01F140F21800C2F200000068C2F24B
:101F700000021160FFF7FCFE0020BDE8F08100BF09
:101F80006068811E022907D258F8081C89015CBFCD
:101F90000120BDE8F08111E0012807D158F8081CA4
:101FA00089035CBF0120BDE8F08107E058F8081CF8
:101FB000890703D40120BDE8F08100BFD8F80010E4
:101FC00021F003010843C8F80000FFF757F8064660
:101FD00041F28837D8F80000616800F00C00B0EBDF
:101FE000810F8CD0FFF74AF8801BB842F2D903204A
:101FF000BDE8F08140F21C0043F60801C2F2000087
:10200000C4F202010068096848F27852C1F38221E3
:10201000C0F60002515CC8407047000040F21C004E
:1020200043F60801C2F20000C4F202010068096828
:1020300048F27852C1F34231C0F60002515CC84008
:102040007047000010B543F60404C4F2020460684F
:10205000C0F3810142F20040C0F2F400DFE801F079
:102060004202081841F20020C0F27A0010BD00BF01
:10207000216801F03F02216823684902C3F38811F7
:1020800016D4A1FB00010023FEF7B8F817E000BF4B
:10209000216801F03F02216823684902C3F38811D7
:1020A00014D4A1FB00010023FEF7A8F815E000BF3F
:1020B00041F20020C0F27A004843B0FBF2F0216800
:1020C0000222C1F3014102EB410109E041F200208B
:1020D000C0F27A004843B0FBF2F02168C1F302710C
:1020E000B0FBF1F010BD0000002804BF01207047D4
:1020F0002DE9F04182B00446007843F60006C0079F
:10210000C4F202060CD0B06800F00C00042840F0C5
:1021100089803068800303D56068002800F0508112
:102120002078800723D5B06810F00C0F11D0B0686C
:1021300000F00C00082802D17068400209D5B06890
:1021400000F00C000C2840F09F807068400200F105
:102150009B803068800703D5E068012840F030811B
:102160003068216920F0F80040EAC1003060207832
:10217000000713D4207840072AD4A569002D00F069
:102180001A81B06800F00C00082840F0AB80012DE7
:1021900040F0E880012002B0BDE8F08160690028CD
:1021A00040F20000C4F2472000F088800121C0F80E
:1021B000801EFEF763FF0546706F8007DAD4FEF7D6
:1021C0005DFF401B0228F7D9032002B0BDE8F08173
:1021D000306C5FEAC0080AD400200190306C40F0F7
:1021E00080503064306C00F080500190019847F2CC
:1021F0000007C4F200073868C00537D4386840F4D7
:1022000080703860FEF73AFF054600BF3868C005A9
:102210002CD4FEF733FF401B0228F7D9032002B06D
:10222000BDE8F081B06800F00C00082803D17068A8
:1022300040023FF56EAFB06800F00C000C2803D1EF
:10224000706840023FF565AF61683068B1F5803F66
:1022500007D0B1F5A02F40F0CB8040F48020306053
:10226000306840F480303060CBE000BFA168306F50
:10227000012905D0052957D140F004003067306F9F
:1022800040F00100306759E0E068002800F09C80D1
:102290000020C4F2472001210160FEF7EFFE054651
:1022A000306880073FF55CAFFEF7E8FE401B022870
:1022B0004FF00300F4D902B0BDE8F0810021C0F86E
:1022C000801EFEF7DBFE0546706F80077FF552AF7C
:1022D000FEF7D4FE401B0228F6D9032002B0BDE869
:1022E000F08100BF0027C4F2472700203866FEF7C0
:1022F000C5FE022D05460BD13068800140F1928069
:10230000FEF7BCFE401B02284FF00300F4D9D2E7D1
:10231000306880014FD5FEF7B1FE401B02284FF018
:102320000300F5D9C7E700BF20F001003067306F28
:10233000002920F00400306700F09880FEF79EFE30
:10234000054641F2883700BF306F800700F1A0805A
:10235000FEF794FE401BB842F6D9032002B0BDE858
:10236000F08100BF7068E16900F480028A4227D1E1
:10237000216A00F03F028A4222D147F6C071626AA8
:102380000140B1EB821F1BD1A16A4FF6FF73C90355
:10239000994300F44032A1F580318A4210D1E16ABC
:1023A00000F07062B2EB016F0AD1216B00F0E040E7
:1023B000B0EB017F04D1002002B0BDE8F08100BF86
:1023C000012002B0BDE8F0810020C4F247200021C6
:1023D0000160FEF753FE0546306880077FF5C7AE03
:1023E000FEF74CFE401B02284FF00300F4D962E7D1
:1023F00020F4803030603068002920F48020306084
:1024000050D0FEF73BFE0546306880033FF588AEAE
:10241000FEF734FE401B6428F6D9032002B0BDE865
:10242000F08100BF04F11C052FCD246B084340EA66
:102430008210D9034FF6FF729143A1F5803140EA33
:102440000560084340EA0470706001203866FEF7BA
:1024500015FE044630688001ADD4FEF70FFE001B68
:1024600002284FF00300F5D925E700BFFEF706FE6E
:10247000054641F2883700BF306F800708D5FEF768
:10248000FDFD401BB8424FF00300F5D913E700BF34
:10249000B8F1000F3FF571AE306C20F08050306421
:1024A0006BE600BFFEF7EAFD054600BF306880031B
:1024B0007FF536AEFEF7E2FD401B64284FF00300C7
:1024C000F4D9F8E670470000B0B582B001684A68F8
:1024D0008B6803F04105012D08D112F0400505D0AD
:1024E000016C02B0BDE8B040084700BF9D0707D5AA
:1024F00012F0800504D0416C02B0BDE8B04008473E
:1025000013F4B07F18BF12F0200501D102B0B0BDA6
:102510005D0618D590F85150032D09D10020019087
:10252000C868019088680190019802B0B0BD00BFF2
:10253000456D45F00405456500250195CD6801957B
:102540008D680195019D9D0604D4DB0511D4436D72
:10255000DBB9DBE7456D45F00105456500250195D3
:102560008D6801950D6825F040050D60019DDB0526
:10257000EDD5436D43F008034365002301938B6859
:102580000193019B436D002BC0D04B68920723F051
:10259000E0034B604FF0010380F8513026D04A68C9
:1025A00044F6010422F003024A60C16CC0F6000444
:1025B00059B1054608460C65FEF730FA0146284633
:1025C00019B1416D41F040014165816C00299DD0F8
:1025D0000C6504460846FEF721FA002896D0606D87
:1025E00040F04000606502B0B0BD00BF02B0BDE881
:1025F000B040FFF767BF000070B528B1416A29B14C
:1026000000210161142106E0012070BD4168B1F58F
:10261000827F02D01C21002242500026866290F860
:10262000511029B980F85060054600F03DF8284661
:10263000022180F8511090E82E0002F482720C689A
:1026400003F4044324F040040C601A4405F40063CE
:1026500005691A4405F0020345691A4405F00103AF
:102660008569C4691A4405F400731A4404F03803F8
:10267000046A1A4404F08003846A1A4304F4005381
:102680001A430A60436A042202EA154203F0100367
:102690001A444A60CA6922F40062CA61012146658F
:1026A00080F85110304670BD70B586B0044643F2D4
:1026B00000002168C4F20100002681420596CDE9A0
:1026C00003660296019601D006B070BD43F6300154
:1026D0000096C4F202014A6900F5504042F480526B
:1026E0004A614A6902F480520092009A00960A6890
:1026F00042F001020A60096801F0010100910099AD
:10270000E02101910221CDE9021603210491052166
:10271000059101A9FEF7DCFB41F2B84546F25840AD
:10272000C2F20005C4F202004FF0C06140224FF433
:10273000806385E847002846C5E90436C5E9066692
:10274000C5E90866FEF764FA002818BFFEF71AF913
:10275000232000210022A564AC63FFF75DFB23204A
:10276000FFF748FB06B070BD2DE9F04184B01D466F
:1027700016460F460446FEF781FC94F851100129D5
:102780000ED18046002F4FF0010018BF002E03D15C
:1027900004B0BDE8F08100BF94F85000012803D1D7
:1027A000022004B0BDE8F081012084F8500003202D
:1027B000002184F8510061652763A686E686A1633F
:1027C000A187E187A0682164B0F5004F20686164AB
:1027D00007D1016821F040010160016841F48041A6
:1027E00001600168490603D4016841F040010160BD
:1027F0006168731EE268B1FA81F1B3FA83F34909A3
:102800005B09B2F5006F41EA030139D131B137F804
:10281000021BC1602763E08E0138E086E08E00284D
:1028200070D0681C0BD11AE0216B31F8022BC2600A
:102830002163E08E0138E086E08E002862D02068B7
:1028400081688907F0D4FEF719FCA0EB0800A842C4
:10285000F2D338E0FEF712FCE08E002852D0206858
:1028600081688907F6D5216B31F8022BC26021639C
:10287000E08E0138E086E08E0028F0D142E000BF13
:1028800039B139780173206B01302063E08E013853
:10289000E086E08EB0B3681C0BD123E0216B097891
:1028A0000173206B01302063E08E0138E086E08EFA
:1028B00040B3206881688907F0D4FEF7DFFBA0EB06
:1028C0000800A842F3D3012084F85100002084F8C6
:1028D0005000032004B0BDE8F08100BFFEF7CEFB3E
:1028E000E08E78B1206881688907F7D5216B097877
:1028F0000173206B01302063E08E0138E086E08EAA
:102900000028EFD12046022101222B46CDF800807D
:1029100002F01AF8E0B1606D40F020006065202000
:102920006065A06838B9002002902068C1680291F3
:10293000806802900298012084F85100002084F8F9
:102940005000606D002818BF012004B0BDE8F08180
:1029500040F21C00C2F20000006849F68171C1F229
:102960005E61A0FB0101480D4FF47A71484303906A
:102970006068B0F5827F0BD12046802100222B4673
:10298000CDF8008001F0E0FF0028C4D1C9E700BF06
:1029900003980028C5D00398013803902068806808
:1029A0000006BED503980028BBD0039801380390D9
:1029B000206880680006B4D503980028B1D0039839
:1029C00001380390206880680006AAD50398002883
:1029D000A7D0039801380390206880680006D7D4F8
:1029E0009FE7000090F85130012B0BD100294FF0E8
:1029F000010318BF002A01D11846704790F85030E3
:102A0000012B03D102231846704700BF10B50123E4
:102A100080F85030032380F8513000234365016370
:102A20008286C2868363C0E910338387C387846844
:102A30000268B4F5004F07D1146824F04004146014
:102A4000146844F480441460D0F848C044F62D0E55
:102A500044F63504C0F6000EC0F60004CCE90F4E73
:102A600044F60D04C0F60004CCE91343C38E0446BB
:102A70000C326046FEF77EF960B1606D012340F0D4
:102A800010006065002084F85000BDE81040184632
:102A9000704700BF20680168490603D4016841F00F
:102AA00040010160002384F85030416841F020016A
:102AB0004160416841F002014160BDE810401846A4
:102AC000704700007047000070470000411E002062
:102AD000B0EB116F1CBF012070474EF21002CEF216
:102AE000000251604EF62351CEF20001F0230B702C
:102AF0000721906011607047704700007047000028
:102B0000002804BF0120704710B5044690F83D002E
:102B100028B9002084F83C00204600F01FF802206D
:102B200084F83D002068211D02F004F8012084F89B
:102B3000460084F83E0084F83F0084F8400084F8A2
:102B4000410084F8420084F8430084F8440084F88B
:102B5000450084F83D00002010BD0000006842F2EE
:102B60000001C4F20001884218BF704780B582B0EE
:102B70000020019043F64000C4F2020001680022E8
:102B800041F4807101600068002100F480700190C0
:102B900001982D20FFF740F92D2002B0BDE88040BC
:102BA000FFF728B990F83D1001291CBF012070479C
:102BB000022180F83D10006841F2FF72C168C4F242
:102BC0000002904241F00101C1600DDC40F2FF7152
:102BD000C4F20001884215DCB0F1804F2AD040F2E7
:102BE0000041C4F2000123E040F2FF31C4F20101D0
:102BF000884213DC41F60001C4F20001884219D07A
:102C0000002113E040F60001C4F20001884211D017
:102C100040F60041C4F200010AE000BF44F20001A6
:102C2000C4F20101884205D040F20041C4F2010122
:102C3000884206D1816801F00701062904BF0020FF
:102C40007047016841F001010160002070470000F9
:102C50007047000070B504460068C5680669B10792
:102C600016D515F0020113D06FF0020101610121A8
:102C700021778069800703D02046FFF7E9FF05E050
:102C8000204600F08FF8204600F08EF800202077D4
:102C9000700719D515F0040016D020686FF00401F4
:102CA000016102212177806910F4407F04D0204621
:102CB000FFF7CEFF06E000BF204600F073F8204685
:102CC00000F072F800202077300717D515F00800C3
:102CD00014D020686FF00801016104212177C069D8
:102CE000800703D02046FFF7B3FF05E0204600F041
:102CF00059F8204600F058F800202077F00619D542
:102D000015F0100016D020686FF010010161082145
:102D10002177C06910F4407F04D02046FFF798FF68
:102D200006E000BF204600F03DF8204600F03CF8E9
:102D300000202077F00718BF15F0010002D13006FF
:102D400009D412E020686FF001010161204600F013
:102D50002DF8300609D515F0800006D020686FF0F8
:102D6000800101612046FFF7C7FE700609D515F006
:102D7000400006D020686FF040010161204600F05D
:102D800025F8B00658BF70BD15F0200008D02168A6
:102D90006FF0200220460A61BDE87040FFF7AEBE2A
:102DA00070BD00007047000070470000006842F2EC
:102DB0000001C4F20001884218BF704741F2AC30F4
:102DC000C2F200000121416170470000704700001D
:102DD0007047000070470000B0B582B001680A6813
:102DE000CC684B6902F02F05202D04F0200505D199
:102DF00025B102B0BDE8B04002F0D0B85FEA027C75
:102E00001EBF03F0010E04F4907313EB0E0341D1C7
:102E1000036BD50618D5012B16D114F0100313D06F
:102E2000002201920A6801924A680192019A496956
:102E300049064BD4818DC28DC38D002B18BF9142A2
:102E400040F0F48102B0B0BD13062DD514F080031C
:102E50002AD090F84120212AF4D18268B2F5805F0F
:102E600003D10269002A00F06782026A531C0362E0
:102E700012784A60C28C013A1304C284E2D1C86855
:102E800020F08000C860C86840F04000C86002B010
:102E9000B0BD00BFD30718BF14F4807340F0D080DA
:102EA000530700F1D380D8E05206CBD514F040028E
:102EB000C8D0CA6822F04002CA60202180F84110C0
:102EC00002B0BDE8B04000F0A7BC00BFC16B0A680B
:102ED000526893B2002BB5D0858DAB42B2D2C28579
:102EE000C969B1F5807F00F0A080016851E8031F37
:102EF000026821F4807142E80313DBB1016851E8F4
:102F0000031F026821F4807142E8031393B1016842
:102F100051E8031F026821F4807142E803134BB1AA
:102F2000016851E8031F026821F4807142E803132D
:102F3000002BDAD1016851E8051F026821F0010178
:102F400042E80513BBB3016851E8051F026821F090
:102F5000010142E8051373B3016851E8051F0268D7
:102F600021F0010142E805132BB3016851E8051F68
:102F7000026821F0010142E80513002BDAD11AE0C2
:102F8000016851E8051F026821F0400142E805137D
:102F9000DBB1016851E8051F026821F0400142E8F9
:102FA000051393B1016851E8051F026821F0400143
:102FB00042E805134BB1016851E8051F026821F092
:102FC000400142E80513002BDAD1202180F842109D
:102FD00000210163016851E8031F026821F010011C
:102FE00042E80313DBB1016851E8031F026821F0D6
:102FF000100142E8031393B1016851E8031F02680E
:1030000021F0100142E803134BB1016851E8031F9E
:10301000026821F0100142E80313002BDAD1C16BE2
:1030200004460846FDF7B2FC204602214163818D2B
:10303000C28D891A89B202B0BDE8B040FFF7C8BEA0
:10304000436C43F001034364530706D5BEF1000F00
:1030500003D0436C43F002034364930706D5BEF1EB
:10306000000F03D0436C43F004034364BCF1000F32
:1030700006D55EEA050303D0436C43F008034364BE
:10308000436C002B3FF4DEAE920605D525B1044615
:1030900001F084FF216820464969426C01F040013B
:1030A00002F00802891800F0B98000BF016851E8F9
:1030B000031F026821F4907142E80313BBB3016857
:1030C00051E8031F026821F4907142E8031373B3BF
:1030D000016851E8031F026821F4907142E803136C
:1030E0002BB3016851E8031F026821F4907142E894
:1030F0000313002BDAD11AE0016851E8051F0268BA
:1031000021F0010142E80513DBB1016851E8051F18
:10311000026821F0010142E8051393B1016851E80A
:10312000051F026821F0010142E805134BB1016857
:1031300051E8051F026821F0010142E80513002B48
:10314000DAD1016B012924D1016851E8031F02681B
:1031500021F0100142E80313DBB1016851E8031FBD
:10316000026821F0100142E8031393B1016851E8AD
:10317000031F026821F0100142E803134BB10168FC
:1031800051E8031F026821F0100142E80313002BED
:10319000DAD1202180F842100021016301684969D9
:1031A000490640F1C380016851E8051F026821F01B
:1031B000400142E80513DBB1016851E8051F0268D0
:1031C00021F0400142E8051393B1016851E8051F61
:1031D000026821F0400142E805134BB1016851E853
:1031E000051F026821F0400142E80513002BDAD1E7
:1031F000C16B002900F09A8044F68542C0F60002B7
:10320000044608460A65FDF709FC00283FF41AAE9B
:10321000E06B016D02B0BDE8B04008470446FFF71F
:10322000D9FD0020606402B0B0BD00BF891A00BFA4
:10323000026852E8032F036822F4907243E80325E2
:10324000BDB3026852E8032F036822F4907243E88A
:10325000032575B3026852E8032F036822F49072C5
:1032600043E803252DB3026852E8032F036822F4D4
:10327000907243E80325002DDAD11AE0026852E883
:10328000052F036822F0010243E80525DDB102683D
:1032900052E8052F036822F0010243E8052595B1A5
:1032A000026852E8052F036822F0010243E8052571
:1032B0004DB1026852E8052F036822F0010243E88D
:1032C0000525002DDAD1202280F842200022026359
:1032D000026852E8032F036822F0100243E8032536
:1032E000DDB1026852E8032F036822F0100243E8C0
:1032F000032595B1026852E8032F036822F01002FB
:1033000043E803254DB1026852E8032F036822F019
:10331000100243E80325002DDAD1022289B242636C
:1033200002B0BDE8B040FFF753BD00BF02B0BDE83A
:10333000B040FFF74FBD00BF026A32F8023B6FF3A7
:103340005F234B60026295E5002804BF01207047AF
:1033500010B5044690F8410028B9002084F84000D8
:10336000204600F021F8242084F841002068C1683C
:1033700021F40051C160204601F090FE20680169EF
:1033800021F490410161416921F02A014161C16844
:1033900041F40051C16000202021606484F8411094
:1033A00084F84210606310BD2DE9F04786B00268D2
:1033B00044F20043C4F2000300219A42CDE9041113
:1033C000CDE90211019177D045F20001C4F200016C
:1033D0008A4240F098808046002643F630000096EE
:1033E000C4F202000169002541F480110161016904
:1033F000C4F2020501F48011009100990096016861
:1034000001AC41F00401016001684FF0020901F0D4
:10341000040100910099009601684FF0030A41F001
:10342000080101600068082700F00800009000987B
:103430004FF48050019005F500602146CDE90296D9
:10344000CDF810A00597FDF743FD0420CDE9010953
:1034500005F540602146CDE9036A0597FDF738FD83
:1034600041F2185446F2B800C2F20004C4F202005D
:103470004FF0006140224FF4806384E8470020460B
:10348000C4E90436C4E90666C4E90866FDF7C0FB72
:10349000002818BFFDF776FA352000210022C8F871
:1034A0003840C4F83880FEF7B7FC3520FEF7A2FCA0
:1034B00006B0BDE8F08700BF43F630000091C4F2CB
:1034C0000200026942F400320261026902F4003231
:1034D0000092009A0091026842F0010202600068C6
:1034E00000F00100009000980C2001900220CDE92E
:1034F000020103200490072005900020C4F202007E
:1035000001A9FDF7E5FC06B0BDE8F08790F8423070
:10351000202B07D100294FF0010318BF002A05D145
:103520001846704702231846704700BF0023036304
:10353000816222218285C285436480F8421001693C
:10354000006819B1C16841F48071C160416941F0FE
:1035500001014161C16841F02001C1601846704716
:10356000006845F20001C4F20001884218BF7047AC
:1035700010B541F2AC34C2F2000414F8011F08A0E7
:1035800004F0F0F8207801F09DFC41F2B460C2F242
:10359000000021460122BDE81040FFF7B7BF00BF81
:1035A000525820696E7465727275707420747269F5
:1035B0006767657265642052656365697665643A1C
:1035C0002025630A000000002DE9F04381B0044685
:1035D00090F84100202809D100294FF0010018BFC0
:1035E000002A07D101B0BDE8F08300BF022001B07E
:1035F000BDE8F0830020606421201D460E4684F85B
:1036000041001746FDF73AFDA784E784A16881468B
:10361000B1F5805F02D1206900285DD037460020D7
:10362000E28C2168002A5DD06A1C24D0002D4AD08B
:10363000804600BF0868000608D4FDF71FFDA0EB18
:103640000900A8427AD82168C868F3E717B117F8CB
:10365000010B04E038F8020B00276FF35F2048608D
:10366000E08C0138E084E08C0028E3D13AE000BF30
:103670000A68120609D40A68120606D40A681206F5
:103680005CBF0A685FEA0262F2D51FB117F8012B2E
:1036900005E000BF30F8022B00276FF35F224A607D
:1036A000E28C013AE284E28C002AE4D11AE000BF05
:1036B00030F8022B00276FF35F224A60E28C013A58
:1036C000E284E28C72B10A68120635D5002FEFD081
:1036D00017F8012BF1E700BF00273046E28C216884
:1036E000002AA1D1086840061ED42DB3681C14D14D
:1036F000086840062AD40868400627D408684006AF
:1037000024D4086840064FF00000F1D50DE000BF5A
:103710002068C1680068400618D4FDF7AFFCA0EB34
:103720000900A842F4D909E00020202184F84110C2
:1037300001B0BDE8F08300BFFDF7A0FC032020210D
:1037400084F8411001B0BDE8F08300BF00202021C3
:1037500084F8411001B0BDE8F0830000B0B590F8E6
:103760004140202C1CBF0220B0BD134600294FF061
:10377000010218BF002B01D11046B0BD0022212448
:1037800001628384C384426480F84140D0F838C029
:1037900044F60D6E44F6BD65C0F6000EC0F6000599
:1037A0000468CCE90FE544F69145C0F60005CCE984
:1037B0001352221D04466046FDF7DCFA21682046BC
:1037C0006FF040020A6000BF016851E8051F0268FF
:1037D00041F0800142E80513DBB1016851E8051FA3
:1037E000026841F0800142E8051393B1016851E895
:1037F000051F026841F0800142E805134BB10168E2
:1038000051E8051F026841F0800142E80513002BD2
:10381000DAD100221046B0BD006845F20001C4F2C2
:103820000001884218BF704701A004F0F5BD00BF39
:10383000444D4120545820436F6D706C6574650091
:1038400070470000FEE7000041F27850C2F200002D
:10385000FDF71EBC41F27850C2F20000FDF7C0BC7B
:1038600010B581B000210091806B40F21C01C2F2C2
:10387000000190F83DC009684BF28952C908C1F2B5
:10388000F842A1FB0212110A232251430091009930
:1038900011B30099013900910168096889051FD5A4
:1038A0000099C9B100990139009101680968890539
:1038B00016D5009981B10099013900910168096814
:1038C00089050DD5009939B1009901390091016838
:1038D00009688905DBD403E0016C41F02001016433
:1038E000446B4FF0000E002C1CBF0021E163816B84
:1038F00000291CBF0022CA630268002C136823F44D
:1039000080631360A0F82AE018BFC4F850E00029D3
:103910001CBF00230B65116821F00101116090F8B4
:103920003D1060290CD1202180F83D10002180F845
:103930003E10016401B0BDE81040FDF7A5BB00BF1B
:103940000CF02801282911D1116841F00101116002
:10395000116841F48061116000210163282180F821
:103960003D1001B0BDE81040FDF738BF202180F8C0
:103970003D10002180F83E1001B0BDE81040FDF779
:103980002DBF000010B5846B616B00291CBF0022A5
:10399000CA63A16B00291CBF0022CA63FDF750F85F
:1039A000022808BF10BD2068016821F48061016011
:1039B00000202021608584F83D1084F83E00206CB2
:1039C00040F0100120462164BDE81040FDF706BF1D
:1039D00010B5846B94F83D2094F83EE0D4F82CC0E8
:1039E0002168606B4B68002823F440734B601CBF58
:1039F0000023C363A06B00281CBF0023C36302F035
:103A00002100212820D002F02200222808BFBEF188
:103A1000200F19D094F83E00002808BF10BD608D1B
:103A2000012803D1086820F4806008604868BCF170
:103A3000070F20F44070486028DCBCF12A4F2BD0DF
:103A40001CF5803F28D02BE048682A2A20F400602B
:103A500048604FF0000060850AD0292A10D121204B
:103A60002063282084F83D002046FEF755F907E042
:103A700022202063282084F83D002046FEF74AF9E2
:103A80002068416841F44071416010BDBCF1200FD5
:103A900002D0BCF1080F03D1086840F40070086040
:103AA000486820F480504860486820F4006048600E
:103AB00000216185206C28B12046BDE81040FDF74B
:103AC0008DBE00BF202084F83D0094F83E0084F8AD
:103AD0003E10402806D120462163BDE81040FDF786
:103AE00037BF00BFBCF1080018BF1220BCF1200195
:103AF00018BF014620462163BDE81040FDF724BFF2
:103B000010B5044690F83D1090F83E00B0F1100258
:103B100018BF0122403818BF0120024208BF2229E5
:103B200034D001F0280028283AD100202063282032
:103B300084F83D0020684168090542D5416821F4B8
:103B400000614160606B90F83510012958D1A06B7D
:103B500043F66101C0F600010165FCF75FFF002834
:103B600061D020684169490606D50069616A08701C
:103B7000616A206801316162016821F00101016020
:103B8000202084F83D00A06B4BE000BF2068026855
:103B900022F4006202604268120505D50CE000BF05
:103BA00020684268120507D4602905D0202184F8D6
:103BB0003D10002184F83E10002121634168090571
:103BC000BCD494F83D10602950D1202184F83D10D8
:103BD000002121644169490606D50069616A0870BF
:103BE000616A206801316162016821F001010160B0
:103BF0002046FDF749FA206C000717D11BE000BFF3
:103C000043F66101C0F600010165FCF707FF50B102
:103C10002168606B0A6822F001020A60202184F8A2
:103C20003D10016D8847206C000704D02068416872
:103C300021F4E061416094F83D00216C490758BFD0
:103C400010BD282810D10020CFF6FF70E0620021BF
:103C50002020216384F83D00204684F83E10BDE812
:103C60001040FDF76FBE00BF10BD00BF416949069F
:103C700005D50069616A0870606A0130606220469B
:103C8000FDF7ACFD206C0007D0D1D4E7C16A428DAE
:103C9000042A07D10168426A4B6823F480634B60B1
:103CA000096911E0428D032A16D10268022953687E
:103CB00023F48063536005D0042903D0116821F4F4
:103CC000806111601169426A1170416A013141627B
:103CD000418D013941857047428D022A12D14A1E19
:103CE0000F2A19D8DFE802F008121812181818184D
:103CF00018181818181818080268136823F4806335
:103D00000EE000BF0168426ACAE700BF026813689C
:103D100043F4806304E000BF0268136843F4007357
:103D200013601269436A1A70426AD0F800C0531CCB
:103D30004362438D013B4385DCF810305370426A87
:103D4000036801324262428D013A42855A6822F488
:103D500040725A60202280F83D2090F83E300022C8
:103D6000402B80F83E2003D10263FDF7F1BD00BF78
:103D7000B1F1080218BF1222203918BF11460163A1
:103D8000FDF7E2BD81B090F83D10222910D1C16A43
:103D9000428D042A0ED30168426A09691170416A92
:103DA00001314162418D01394185418D03295DD049
:103DB00001B07047C36A012A58D8022B56D000229E
:103DC000009240F21C02C2F2000212684BF28953C8
:103DD000D208C1F2F843A2FB03231A0A02EB8202C3
:103DE0000092009A013A0092009A002A46D0026896
:103DF00013689B051AD5009A013A0092009AEAB31B
:103E0000026813689B0511D5009A013A0092009A46
:103E1000A2B3026813689B0508D5009A013A009284
:103E2000009A5AB3026813689B05DAD4136823F426
:103E300080631360536823F4E06353601269436A3C
:103E40001A70426A01324262428D013A4285202252
:103E500080F83D2090F83E300022402B80F83E2034
:103E600028D1026301B0FDF773BD00BF006841684F
:103E700021F48061416001B0704700BF016C41F0E6
:103E8000200101640168426A4B6823F4E0634B60DF
:103E900009691170416A01314162418D01394185E1
:103EA000202180F83D10002180F83E1001B0FDF780
:103EB00095BC00BFB1F1080218BF1222203918BF0B
:103EC0001146016301B0FDF73FBD0000C16A90F8E3
:103ED0003D20212A18BF7047428D4AB1416A0268CD
:103EE00011F8013B13614162418D013941857047F1
:103EF00011F5803F18BF082918D101684A6822F4DB
:103F0000E0624A600A6842F400720A6000212022DE
:103F1000016380F83D2090F83E2080F83E10402A52
:103F200008BFFDF749BDFDF711BD00BF2029E4D052
:103F300001684A6822F4E0624A60112101630021AD
:103F400080F83E10202180F83D10FDF7FFBC0000F6
:103F500090F83D1090F83EC0C26A038D002B08BF58
:103F6000212919D0212905D0BCF1400F08BF2229F1
:103F700000D07047418D69B390F83E10402908BFCA
:103F800000F040B8416A026811F8013B13614162D8
:103F9000418D01394185704712F5803F18BF082ACD
:103FA0001ED101684A6822F4E0624A600A6842F45D
:103FB00000720A6000212022016380F83D2090F801
:103FC0003E2080F83E10402A08BFFDF7F5BCFDF703
:103FD000BDBC00BF0068416821F48061416070474A
:103FE000202ADED001684A6822F4E0624A6011218A
:103FF0000163002180F83E10202180F83D10FDF77C
:10400000A5BC000090F83D10026D5AB1026D012A66
:1040100014D10168826CD2B20A61016D013101656F
:10402000704700BFC26C816C012A15D10268C9B209
:104030001161016D02310165704700BF026D022AF6
:1040400012D1222918D101680A6842F480720A60EC
:10405000016D0131016570470268C1F307211161EB
:10406000016D01310165704700684169090644BF6F
:1040700000210161704700BF428D5AB1212909D149
:10408000416A026811F8013B13614162418D0139B7
:1040900041857047428D002A08BF2129EAD1016875
:1040A0004A6822F4E0624A600A6842F400720A60D8
:1040B00000212022016380F83D2080F83E10FDF7AA
:1040C0007BBC00002DE9F04782B0044600689A46A8
:1040D0000B9D0A9E0368914643F480620260026869
:1040E0000F4642F48071016020464FF0011100221A
:1040F0003346009500F070F850B120680068C005A4
:1041000044BF4FF400702064032002B0BDE8F08784
:1041100040F202082068C0F2010807F0FE070761BC
:104120002046414632462B4600F03CF920B10120A2
:1041300002B0BDE8F08700BF0020019020682A4649
:10414000416901918069314601900198204600F053
:1041500095F9B0B92068BAF1010F09D04FEA1921D9
:104160000161204631462A4600F088F948B92068A6
:104170005FFA89F10161204631462A4600F07EF956
:1041800060B1206C0428D2D12068016841F400712C
:104190000160012002B0BDE8F08700BF2068002266
:1041A0000168334641F48071016020464FF00111EF
:1041B000009500F011F800289FD147F0010C276806
:1041C0002046414632462B46C7F810C002B0BDE833
:1041D000F04700F0E7B800002DE9F041054600681F
:1041E0001E46144601F47F0201338FB242D0DDF83F
:1041F0001880B2F5803F40F0878040693840C01B8E
:10420000B0FA80F04009A04240F0C8804EB924E0E6
:1042100040693840C01BB0FA80F04009A04240F02D
:10422000BD80FCF72BFFA0EB08012868B142EFD955
:1042300041693940C91BB1FA81F14909A142E7D16D
:104240009BE000BF40693840C01BB0FA80F04009D5
:10425000A0424FF0000040F0A280FCF70FFF28685A
:1042600041693940C91BB1FA81F14909A142E9D13B
:1042700083E000BFB2F5803F24D100BF41693940DF
:10428000C91BB1FA81F14909A14240F08780416917
:104290003940C91BB1FA81F14909A14240F07E8041
:1042A00041693940C91BB1FA81F14909A14275D16F
:1042B00041693940C91BB1FA81F14909A142DDD0F8
:1042C0006CE000BF81693940C91BB1FA81F149092D
:1042D000A14263D181693940C91BB1FA81F1490911
:1042E000A1425BD181693940C91BB1FA81F1490909
:1042F000A14253D181693940C91BB1FA81F1490901
:10430000A142DFD04AE000BF80693840C01BB0FA4C
:1043100080F04009A04241D146B923E0806938408D
:10432000C01BB0FA80F04009A04237D1FCF7A6FECE
:10433000A0EB08012868B142F0D981693940C91B56
:10434000B1FA81F14909A142E8D116E0806938400B
:10435000C01BB0FA80F04009A0424FF0000018BF27
:10436000BDE8F081FCF78AFE286881693940C91BE5
:10437000B1FA81F14909A142E8D100202021286346
:1043800085F83D1085F83E00296C41F02001296434
:1043900085F83C000120BDE8F08100BF0020BDE8A9
:1043A000F0810000F0B581B0044600681D46436905
:1043B0008FB203EA0701B94202D1002001B0F0BD7B
:1043C0004169164601323CD0490512D47EB300BF84
:1043D000FCF754FE411B2068B14203D941693940C2
:1043E000B9422BD141693940B942E6D0416949050A
:1043F000EED5016841F4007101606FF480614161A4
:10440000042000212022216384F83D2084F83E10FE
:10441000226C1043206484F83C10012001B0F0BDF0
:1044200041693940B942C8D041694905E1D4FCF736
:1044300025FE206841693940B942F1D02020E0E7EB
:1044400041694905D5D441693940B942B5D041697E
:104450004905CED441693940B942AED041694905D8
:10446000C7D441693940B942A7D041694905C0D490
:1044700041693940B942E3D19FE7000070B5036854
:10448000044653F8140F000611D40E46481C29D0D8
:1044900086BB00BF1868400527D4FCF7EFFD2368F2
:1044A00053F8140F000637D518680006F2D500201F
:1044B00070BD00BF18680006F9D41868400514D410
:1044C00018680006F3D4186840050ED41868000672
:1044D000EDD41868400508D4186800064FF00000B5
:1044E00048BF70BD18684005E4D56FF4806018605F
:1044F000042012E0154603E053F8140F0006D6D44A
:1045000018684005F1D4FCF7B9FD401B2368B042A0
:10451000F2D958690006EFD420200021202221631F
:1045200084F83D2084F83E10226C10432064012062
:1045300084F83C1070BD000080B582B0002043F6C6
:1045400030010190C4F202010A6842F480020A605C
:104550000A6802F480020192019A00900868002221
:1045600040F4001008600868002100F4001000907A
:1045700000980B20FDF750FC0B20FDF73BFC1120B1
:1045800000210022FDF748FC1120FDF733FC2F200D
:1045900000210022FDF740FC2F20FDF72BFC3B20E3
:1045A00000210022FDF738FC3B2002B0BDE880402E
:1045B000FDF720BC2DE9F04387B0002743F630001B
:1045C0000697CDE90477CDE902770197C4F202009E
:1045D000016840F6000941F0040101600168C4F27D
:1045E000020901F004010191019901970168A9F5FF
:1045F000806541F0800101600168002201F08001C6
:1046000001910199019701684FF4886641F0010119
:104610000160016801F001010191019901970168B0
:1046200041F002010160016801F00201019101996C
:104630000197016841F00801016000684FF488614A
:1046400000F00800019001982846FCF711FD48464B
:10465000802100224FF08008FCF70AFD029602AE8E
:10466000012428463146CDE903470597FCF730FC85
:1046700048463146CDE90284CDE90477FCF728FCB1
:104680004FF4006002904FF40410CDE90304484653
:104690003146FCF71DFC282000210022FDF7BCFB61
:1046A0002820FDF7A7FB07B0BDE8F08380B541F2F5
:1046B000785045F20041C2F20000C4F2000141F618
:1046C000802200234FF4804CC0F2060280E80E00E6
:1046D000C0E9033CC0E90533C0E90733FDF780F8C2
:1046E000002808BF80BDBDE88040FCF74BB9000042
:1046F00080B541F2CC5043F20001C2F20000C4F296
:1047000001014FF4827200234FF4007C80E80E0018
:104710000A21C0E90333C0E9053CC361C0E908339D
:10472000C0E90A31FDF768FF002808BF80BDBDE879
:104730008040FCF727B9000080B541F2246042F2C6
:104740000001C2F20000C4F20001002342F2CF02D5
:104750004FF0C70C80E80E1003618361FEF7D0F9BB
:10476000002808BF80BDBDE88040FCF70BB9000001
:1047700080B541F2B46045F20001C2F20000C4F21B
:10478000000100234FF00C0C4FF4E13280E80E00E2
:10479000C0E90333C0E905C3C361FEF7D5FD0028B6
:1047A00008BF80BDBDE88040FCF7ECB880B541F2A1
:1047B0006C6044F20041C2F20000C4F20001002328
:1047C0004FF00C0C4FF4E13280E80E00C0E90333E7
:1047D000C0E905C3C361FEF7B7FD002808BF80BD6F
:1047E000BDE88040FCF7CEB8FEE70000FEE7000021
:1047F0007047000041F2CC50C2F20000FDF764BEE9
:10480000806B0021C187C186FDF75CBE806B0168AB
:104810004A6822F003024A60416D41F0100141658F
:10482000012180F85110FDF74DBE0000806BFEF7AE
:104830004BB90000B0B584B0846B0546FCF71EFC94
:1048400029680968C90531D40546206801224168F4
:10485000642321F020014160416821F002014160A0
:1048600020460221009500F06FF828B3606D40F0FB
:1048700020006065606D40F020006065A06838B978
:10488000002002902068C16802918068029002981E
:104890000020E086012084F85100606D30B1204690
:1048A00004B0BDE8B040FDF70DBE00BF204604B027
:1048B000BDE8B040FEF706B940F21C00C2F20000AD
:1048C000006849F68171C1F25E61A0FB0101480DEB
:1048D0004FF47A71484303906068B0F5827F09D144
:1048E0002046802100226423009500F02DF8002846
:1048F000BCD1C3E703980028C0D0039801380390C7
:10490000206880680006B9D503980028B6D00398BF
:1049100001380390206880680006AFD5039800280E
:10492000ACD0039801380390206880680006A5D5B4
:1049300003980028A2D0039801380390206880686B
:104940000006D7D49AE700002DE9F04381B0089C17
:10495000984615460E468146FCF790FB201A00EB60
:104960000804FCF78BFB40F21C01C2F2000109684D
:10497000C1F3CB3161430091D9F800108A6832400D
:10498000921BB2FA82F25209AA423DD0074618F1B0
:10499000010031D0FCF772FBC01BA04238D2009856
:1049A00000990028A1F101010091D9F8001089684F
:1049B00008BF044601EA0600801BB0FA80F04009F7
:1049C000A842E7D120E000BF88683040801BB0FAE1
:1049D00080F04009A84217D088683040801BB0FAA8
:1049E00080F04009A8420FD088683040801BB0FAA0
:1049F00080F04009A84207D088683040801BB0FA98
:104A000080F04009A842DFD1002001B0BDE8F0836A
:104A1000D9E900014268B1F5827F22F0E0024260EC
:104A20000BD1D9F80810B1F5004F02D0B1F5806F65
:104A300003D1016821F040010160D9F82810B1F5D7
:104A4000005F07D1016821F400510160016841F461
:104A500000510160012089F85100002089F85000C0
:104A6000032001B0BDE8F08370470000FDF756B9A0
:104A700070B594B007AC20463421FBF70AFC002542
:104A800043F640000695CDE90455CDE90255019560
:104A9000C4F202000168012241F080510160006807
:104AA000022600F080500190019847F20000019525
:104AB000C4F20000016862F38F310160006800F405
:104AC00040400190019810200B900F904FF4A87077
:104AD00010900420CDE91106204607960A92CDE9F0
:104AE0000D651396FDF700FB10B172B6FEE700BF2F
:104AF0000F20CDE902064FF48050CDE9050502A84C
:104B000002210495FDF7C4F910B172B6FEE700BFAB
:104B100014B070BD4EF68850CEF20000016841F42A
:104B2000700101607047000041F22460C2F2000091
:104B3000FEF790B810B540F6FF3E0368C4F2000ED1
:104B400040F2004C7045C4F2010C25DCB0F1804FFE
:104B50002FD040F20042C4F20002904229D040F629
:104B60000002C4F20002904223D041F6FF72C4F268
:104B70000002904227DC70453ADCB0F1804F5BD0F8
:104B800040F20042C4F20002904255D040F60002CA
:104B9000C4F200024EE000BF40F60042C4F2000240
:104BA000904206D0604504D00022C4F20102904237
:104BB000DBD14A6823F07003134341F6FF72C4F25D
:104BC00000029042D7DD43F6FF72C4F20102904228
:104BD00020DC42F20002C4F2000290422CD00022FB
:104BE000C4F20102904227D0604525D028E000BFE2
:104BF00040F60042C4F2000290421DD041F600028D
:104C0000C4F20002904217D041F60042C4F2000202
:104C100010E000BF44F20002C4F2010290420BD047
:104C200044F60002C4F20102904205D044F2004270
:104C3000C4F20102904203D1CA6823F440731343C3
:104C400023F080024B69D1F800E08C681A430260BF
:104C5000C46240F48062C0F828E0624504BF09697C
:104C60000163012141610169C90708BF10BD0169E4
:104C700021F00101016110BD41F2B460C2F20000F7
:104C8000FEF7AAB8806B0021C185C184FEF7A2B8E7
:104C9000806B01684A6990F84130212B2DD112F0C8
:104CA00080022AD00021C184016851E8031F0268F4
:104CB00021F0C00142E80313DBB1016851E8031F92
:104CC000026821F0C00142E8031393B1016851E882
:104CD000031F026821F0C00142E803134BB10168D1
:104CE00051E8031F026821F0C00142E80313002BC2
:104CF000DAD1202180F841100168496990F84220FA
:104D0000222A40F07D8011F0400179D00021C18538
:104D1000016851E8031F026821F4907142E803130F
:104D2000BBB3016851E8031F026821F4907142E8A7
:104D3000031373B3016851E8031F026821F49071F3
:104D400042E803132BB3016851E8031F026821F402
:104D5000907142E80313002BDAD11AE0016851E8A0
:104D6000051F026821F0010142E80513DBB101686B
:104D700051E8051F026821F0010142E8051393B1D3
:104D8000016851E8051F026821F0010142E805139E
:104D90004BB1016851E8051F026821F0010142E8AA
:104DA0000513002BDAD1016B012924D1016851E8E8
:104DB000031F026821F0100142E80313DBB1016810
:104DC00051E8031F026821F0100142E8031393B178
:104DD000016851E8031F026821F0100142E8031343
:104DE0004BB1016851E8031F026821F0100142E84D
:104DF0000313002BDAD1202180F842100021016337
:104E0000416C41F010014164FDF7E4BF0168806B23
:104E10000968C90548BFFEF7FFBC0021C18400BF77
:104E2000016851E8051F026821F0800142E805137E
:104E300083B3016851E8051F026821F0800142E850
:104E400005133BB3016851E8051F026821F080019A
:104E500042E80513F3B1016851E8051F026821F02B
:104E6000800142E80513002BDAD113E0016851E814
:104E7000031F026841F0400142E80313002B08BF02
:104E80007047016851E8031F026841F0400142E8A1
:104E9000031393B1016851E8031F026841F0400118
:104EA00042E803134BB1016851E8031F026841F067
:104EB000400142E80313002BD8D17047806BFEF706
:104EC000BFBC000070B5044649F22230C0F60000B5
:104ED000214602F047FC41F2AC35C2F200052878C9
:104EE00002281DD0012805D0002846D1FF2C47D02C
:104EF00070BD00BF6888FE283FD849F22230C0F656
:104F00000000214602F02EFC6888411C698041F6B1
:104F1000FC61C2F200010C540220287070BD00BF79
:104F20006E88FE2E0CD819A002F01CFC688841F691
:104F3000FC61461CC2F200016E800C5402E000BF0E
:104F4000002028700A2C18BF70BD49F20B30C0F643
:104F5000000002F007FC30040CD041F6FC60C2F205
:104F60000000441EB6B200BF14F8010F03F04EFA61
:104F7000013EF9D10A2003F049FA0020287070BDE3
:104F8000012028700020688070BD00BF5354415438
:104F9000455F5245434549564500000081B090F8B1
:104FA0004210222921D183680246B3F5805F09D1DE
:104FB00052F8281F52F8183C002B63D003685B6836
:104FC0000AE000BF52F8281F13B90369002BF5D07F
:104FD00003685B6803F07F030B7011680131116097
:104FE000C18D01390A04C18502D001B0704700BFEC
:104FF0000168CA6822F02002CA60CA6822F480727E
:10500000CA604A6922F001024A61202180F84210F8
:1050100000214163026B012A3CD10163016851E820
:10502000031F026821F0100142E80313DBB101689D
:1050300051E8031F026821F0100142E8031393B105
:10504000016851E8031F026821F0100142E80313D0
:105050004BB1016851E8031F026821F0100142E8DA
:105060000313002BDAD101680A68D20606D50022A4
:1050700000920A680092496800910099818D01B000
:10508000FDF7A6BE026852686FF35F2221F8022B7B
:105090008162A5E701B0FEF763BA0000B0B504462F
:1050A000006804F108030ECB0569194325F4405547
:1050B0002A4302616269E3691143C268194349F2F4
:1050C0000C639A431143C1604169A26921F44071A4
:1050D00041F20043114340F48062C4F201039A425A
:1050E000416103D1FCF79AFF02E000BFFCF782FFA9
:1050F000E1694FF69C7563681922C0F6FF75B1F53A
:10510000004FA0FB02011FD15A00DB0FFBF776F81E
:1051100048F21F51C5F2EB11A0FB01235A0905F11A
:10512000805302FB0300322303EBC000A0FB01010C
:105130004FF4F87000EA111000EB0210C1F34211B5
:10514000084421688860B0BD9A009B0FFBF756F8B1
:1051500048F21F51C5F2EB11A0FB01235A0902FBD3
:105160000500322303EB0010A0FB0101F02000EA50
:10517000511000EB0210C1F343110844216888600C
:10518000B0BD0000FEE700002DE9F04F83B000271E
:1051900088460546ADF80A70ADF8087000F0DCFAF4
:1051A00048F28050C0F60000B0F800A041F2A836E6
:1051B000C2F200064FF00A0B0DF10809052442E087
:1051C0000130B6F900307080284651464FF4917294
:1051D000CDF800B0CDF804B001F0E6F8B8F8021050
:1051E0003BB228464FF49172CDF800B0CDF804B030
:1051F00001F0DAF83780FBF733F846F26761C6F260
:10520000666150FB01F18A1002EBD17101EB810163
:10521000A0EB4101BDF808000529DCBF0130ADF865
:105220000800B8F81210C0F1F00003B228460022BE
:10523000CDE900B401F0B8F828460DF10A024B465A
:1052400000F006F9B0B91420FBF7E6FD70881A28C3
:10525000B6D3FBF705F84FF21101C1F2FE0150FB86
:1052600001F10A1102EBD171F12201FB12070020BA
:10527000A6E700BF03B0BDE8F08F00002DE9F04FB6
:10528000DDF824C0177C4FF00008ACF80080022F36
:10529000B2F9187046F2676606FB07F7B2F91A40D2
:1052A0004FEAA74505EBD77504FB06F74FEAA7467B
:1052B00006EBD7744FF00D0E03EB841408BF4FF0CC
:1052C000100E24F815E0B2F908508CF8028046F26E
:1052D000676A40F220088542C6F2666AC2F2000898
:1052E00014DA00F10A0555FB0AF5AE1006EBD57588
:1052F0008E1C56FB0AF6B70807EBD67608EB861627
:1053000006EB450601F1080714E000BF854235DDD4
:1053100046F267654543AE1406EBD5754E1C56FB49
:105320000AF6B70807EBD67608EB861606EB4506B5
:1053300001F1090757FB0AF7BC0804EBD77408EB27
:10534000841434F81590B6F800B05BEA0907B7FA90
:1053500087F44FEA541418BF01278CF80040B2F9C3
:105360000A508D420FDA841C54FB0AF40A31A5104E
:1053700051FB0AF105EBD4748D0810E00127B2F956
:105380000A508D42EFDB8D4224DD841C54FB0AF46D
:10539000A51005EBD47446F2676569438D1405EBDF
:1053A000D171083008EB811150FB0AF001EB440584
:1053B000841004EBD07031F81080298851EA080479
:1053C000B4FA84F54FEA551518BF01248CF8015042
:1053D00001E000BF0124B2F91850B2F91A2046F2D8
:1053E00067667543A814724300EBD570951405EBFE
:1053F000D27203EB8213002223F8102087B11FFA28
:105400008BF01FFA89F2A0EB0E00A2EB0E02B0FAAD
:1054100080F0B2FA82F24009520902438CF802206D
:10542000002C08BFBDE8F08F88B21FFA88F1A0EB0E
:105430000E00A1EB0E01B0FA80F0B1FA81F1400943
:105440004909084310438CF80200BDE8F08F0000C2
:105450002DE9F0438DB0118815461F46F02905D17E
:105460004FF001090FF2B8081E2107E03988F02932
:1054700050D14FF002090FF2B008A021A022064639
:1054800000F052FA48F280510020C0F60001288056
:105490000D883880F0270A24304629460022002350
:1054A000CDE9004700F080FF304629464FF49B725B
:1054B0000023CDE9004700F077FF304629464FF43E
:1054C00091720023CDE9004700F06EFF03AF38462C
:1054D0002821FAF7DEFE48F28850C0F60000008866
:1054E00013A140EA05453846424602F04BF948F21E
:1054F0009451C0F6000130462A465023009700F030
:1055000091FE4FF47A70FBF787FC48460DB0BDE87A
:10551000F08300BF4FF0000948460DB0BDE8F083AE
:1055200052696768740000004C65667400000000F2
:10553000257320506C617965722057696E73210064
:105540002DE9F04F81B02DED0A8B86B0059148F220
:105550008A51C0F600010E8848F28651C0F600015B
:105560000C8848F28051C0F60001B1F800B0054641
:10557000594600F0EBFF28461E218C222346049456
:105580001E2400F057F92846B4218C223346039696
:1055900000F074FB48F28850C0F6000006882846E8
:1055A00031464122B4230094019400F007FE2846BE
:1055B0003146D722B4230094019400F0FFFD9FED03
:1055C000638A41F2C0379FED62AA9FED62CA9120C3
:1055D000C2F20007B6EE009AB1EE00BA4FF014091D
:1055E0004FF0000A3968012908D03968012905D02F
:1055F0003968012902D039680129F3D141F2B43167
:10560000C2F2000191ED000A28EE091A20EE090A03
:1056100030EE018AB4EE4A8AF1EE10FA08DD01B2EA
:1056200000EE101AB8EEC00A3AEE481A0DE000BFBC
:10563000B4EE4C8AF1EE10FA80460EDA01B200EEBA
:10564000101AB8EEC00A3CEE481A21EE0B1A31EEE1
:10565000000ABDEEC00A10EE108A02B22846594672
:10566000B923CDF80090CDF8049000F09DFE0FFA1C
:1056700088F4284631462246B923CDF80090CDF86B
:10568000049000F091FEDC2C06DA472C24DBC7F8EE
:1056900000A04046A6E700BF1E2428465946D72250
:1056A000B4230094019400F07FFE0094039E2846EA
:1056B0003146D722B423019400F080FD14242846FB
:1056C0003146DC22B9230094019400F06DFE32468D
:1056D000049E022001211EE01E2428465946412234
:1056E000B4230094019400F05FFE0094049E2846C9
:1056F00031464122B423019400F060FD1424284671
:1057000031464622B9230094019400F04DFE324602
:10571000039E0120022100233B60059F38744FF453
:105720007A7039707B707A807E82FBF775FB48F265
:105730008450C0F600000188284606B0BDEC0A8BF4
:1057400001B0BDE8F04F00F001BF00BF0000000055
:10575000CDCC4C3ECDCC4CBE70B58CB00D4648F295
:105760008051C0F600010E880446314600F0EEFE7E
:1057700048F28850C0F60000008848F2945140EA90
:10578000064200208DF82F00CDF82B00CDF8270021
:10579000CDF82300CDF81F00CDF81B00CDF8170081
:1057A000CDF8130046F64610C6F66700029042F2A6
:1057B0007400C2F22110039042F22110C0F22100C5
:1057C000CDF80F00C0F6000102AE20467823009607
:1057D00000F028FD2878012816D148F28650C0F63E
:1057E0000000038820461E21A02200F023F848F282
:1057F0008A50C0F6000003882046A021A02200F0B5
:105800003DFA0CB070BD00BF48F28A50C0F60000EF
:10581000038820461E21A02200F030FA48F286506C
:10582000C0F6000003882046A021A02200F002F864
:105830000CB070BD2DE9F04782B00E46044601F170
:105840003100A2F13C010FFA81F91D469046322742
:1058500002B2204619464B46009700F01BFD4FF060
:10586000640C32B2204629464B46CDE900C700F011
:105870009BFDA8F10F0106F114000FB24FF0140ABE
:1058800002B2204629463B46CDF800A000F002FDBA
:1058900006F1320002B2204629463B46CDF800A070
:1058A00000F0F8FC06F14F0002B2204629463B46C4
:1058B000CDF800A000F0EEFC48F28850C0F60000E1
:1058C000058806F11900082702B2204629464B46F2
:1058D000009700F0DFFC06F1410002B220462946A5
:1058E0004B46009700F0D6FC48F28050C0F600000E
:1058F000058806F11B00A8F13A01022702B20BB29B
:1059000020462946009700F0C5FC06F13F00A8F1AB
:105910003E0102B20BB220462946009700F0BAFCC5
:1059200002B0BDE8F08700002DE9F04184B00446E4
:1059300048F28250C0F6000007880E46A1F10C081C
:1059400001F13100A2F1410115464FF0330C02B2D2
:105950000BB220463946CDF800C000F09BFCB01ECB
:10596000A5F14B014FF0460C4FF0680E02B20BB29E
:1059700020463946CDE900EC00F016FDA5F11900EE
:105980004FF0230C4FF07C0E0FFA88F203B2204642
:105990003946CDE900EC00F007FD48F2805142F6AF
:1059A0005060C0F60001039042F652600988C2F6CA
:1059B0004960029041EA074206F11200A5F1370161
:1059C000C0EA014348F29451C0F6000102AF2046FC
:1059D000009700F027FC04B0BDE8F0812DE9F04FFE
:1059E00087B00D4648F28051C0F600010988044690
:1059F00000F0ACFD294611F8100B0128884608BFBD
:105A0000A846022848F28850C0F600000088029597
:105A100008BF29460591019040F2200041F264350B
:105A2000C2F20000C2F200050021069009E000BFAA
:105A3000049906980131182900F14000069000F001
:105A4000B980049101EB810005214FEA400A01EB86
:105A5000400000B24FF0000B039000BF2868069989
:105A6000426831F81B108A423CD0686842688A421A
:105A700038D0A86842688A4234D0E86842688A42CE
:105A800030D0286942688A422CD0686942688A42CC
:105A900028D0A86942688A4224D0E86942688A42CC
:105AA00020D0286A42688A421CD0686A42688A42CA
:105AB00018D0A86A42688A4214D0E86A42688A42CA
:105AC00010D0286B42688A420CD0686B42688A42C8
:105AD00008D0A86B42688A4204D0E86B42688A42C8
