:020000040800F2
:10000000D0220020D9010008411F0008BD1D0008B2
:100010003D1F0008190900086523000800000000C2
:10002000000000000000000000000000BD210008EA
:100030002909000800000000451F0008C121000830
:10004000F3010008F3010008F3010008F3010008C0
:10005000F3010008F3010008F3010008F3010008B0
:10006000F3010008F3010008F3010008F3010008A0
:10007000F3010008F3010008F3010008F301000890
:10008000F3010008F3010008F3010008F301000880
:10009000F3010008F3010008F3010008F301000870
:1000A000F3010008F3010008F3010008F301000860
:1000B000F3010008F3010008F3010008F301000850
:1000C000F3010008F3010008F3010008491F0008CC
:1000D000F3010008F3010008F3010008F301000830
:1000E000F3010008F3010008F3010008F301000820
:1000F000F3010008F3010008F3010008F301000810
:10010000F3010008F3010008F3010008F3010008FF
:10011000F3010008F3010008F3010008F3010008EF
:10012000F3010008F3010008F30100081D090008AD
:10013000F30100080000000000000000F3010008C7
:10014000F3010008F3010008F3010008F3010008BF
:10015000F3010008F3010008F3010008F3010008AF
:10016000F3010008F3010008F3010008F30100089F
:10017000F3010008F3010008F3010008000000008B
:1001800000000000F3010008000000000000000073
:10019000F30100080000000000000000F301000867
:1001A000000000000000000000000000F301000853
:1001B000F3010008F3010008F3010008F30100084F
:1001C000F3010008DFF80CD000F040FB00480047C6
:1001D000893F0008D0220020064880470648004793
:1001E000FEE7FEE7FEE7FEE7FEE7FEE7FEE7FEE7E7
:1001F000FEE7FEE769220008C50100082DE9F05F6F
:100200000546002092469B46884606468146402485
:100210001BE0284641464746224600F0EEF9534689
:100220005A46C01A914110D311461846224600F092
:10023000D5F92D1A67EB01084F462246012000210F
:1002400000F0CCF917EB00094E41201EA4F1010487
:10025000DFDC484631462A464346BDE8F09F0000B1
:100260000649074A0868504343F2390210440860BF
:1002700040087047014908607047000000000020F6
:100280006D4EC641D2B201E000F8012B491EFBD2EF
:1002900070470022F6E710B513460A460446194691
:1002A000FFF7F0FF204610BD2DE9FE4F804681EAA2
:1002B0000300C00F0C46009021F0004123F00045E0
:1002C000B8EB0200A94105D24046214690461C46A3
:1002D0000B46024623F00040104347D0270DC7F3DA
:1002E0000A00C3F30A510290401A019040286BDAC9
:1002F000C3F3130040F4801B0098924620B1002302
:10030000D2EB030A63EB0B0B01985946C0F1400294
:10031000504600F063F906460D4650465946019A8C
:1003200000F07BF910EB08006141002487EA1152CC
:1003300084EAE7731A4340D0009A62B3019A012A13
:100340004FEA075215DC001B61EB02014FF000423F
:1003500002EA0752CDE90042001C41F58011324605
:100360002B4600F0B2F903B0BDE8F08F40462146BD
:10037000F9E7001B61EB0201001C41F58013001836
:100380005B412018A2F5001747EB030140EAD57046
:10039000B6196D4111E06D084FEA360645EAC075A1
:1003A0004FEA0752001B61EB0201001C41F580116E
:1003B00049084FEA30000019514132462B4603B03C
:1003C000BDE8F04F00F072B9009801224000002310
:1003D000D0EB020263EBE073009821464FEAE07431
:1003E000B8EB000061EB0401E9E783F000435BE751
:1003F00081F0004158E72DE9F04D81EA030404F053
:10040000004B21F0004514464FF0000A23F0004154
:1004100050EA050220D054EA01021DD0C5F30A5764
:100420000246C5F31303C1F31300C1F30A5640F4A7
:10043000801543F48013A7EB0608101BD64608F27C
:10044000FD3873EB050002D308F1010801E09218B2
:100450005B41B8F1000F03DA00200146BDE8F08DE2
:1004600000204FF48011064684460EE0171B73EB04
:10047000050705D3121B63EB050306434CEA010C89
:1004800049084FEA300092185B4150EA0107EDD16C
:1004900052EA030012D082EA040083EA050108430D
:1004A00005D0101BAB4106D20122002306E000223A
:1004B0004FF0004302E06FF0010253101AEB060008
:1004C0004CEB085110EB0A0041EB0B01BDE8F04D7D
:1004D00000F0ECB830B5041E71F1000404DB4FF0FD
:1004E0000044404264EB0101141E73F1000405DB7B
:1004F0001C464FF00043524263EB0403101A8B4139
:1005000001D3012030BD002030BD30B5041E71F193
:10051000000404DB4FF00044404264EB0101141E70
:1005200073F1000405DB1C464FF00043524263EBBD
:100530000403801A994101D2012030BD002030BD52
:1005400070B5C1F30A5201F000450024C1F3130154
:1005500040F2FF3341F480119A4201DA002070BD6D
:1005600040F233439A42A2F2334203DC524200F09B
:1005700044F800E090402C43F1D0404270BD00F0C0
:10058000004230F000400AD0C10D01F56071C0F3A7
:10059000160042EA0151C20840071143704700208B
:1005A0000146704701F0004330B421F0004150EAA9
:1005B000010206D00A0DA2F56072C1F31301002AF0
:1005C00002DC30BC00207047440F44EAC104C10083
:1005D000E01830BC00EBC25000F031B8202A04DB38
:1005E000203A00FA02F1002070479140C2F1200346
:1005F00020FA03F3194390407047202A04DB203A85
:1006000021FA02F00021704721FA02F3D040C2F132
:1006100020029140084319467047202A06DBCB1779
:10062000203A41FA02F043EAE07306E041FA02F3AD
:10063000D040C2F12002914008431946704700297A
:10064000A8BF7047401C490008BF20F00100704758
:1006500010B4B0FA80FC00FA0CF050EA010404BFB8
:1006600010BC704749B1CCF1200421FA04F411FA0E
:100670000CF118BF012121430843A3EB0C01CB1D52
:100680004FEA00614FEA102042BF002010BC7047C3
:1006900000EBC35010440029A4BF10BC7047401C9D
:1006A000490008BF20F0010010BC704710B5141EAF
:1006B00073F1000408DA401C41F1000192185B411B
:1006C0001A4301D120F0010010BD2DE9F04D9246F2
:1006D0009B4611B1B1FA81F202E0B0FA80F2203209
:1006E0009046FFF77BFF04460F4640EA0A0041EAC6
:1006F0000B0153465A46084313D0114653EA0100F2
:1007000019D0C8F140025046FFF777FF05460E4664
:10071000504659464246FFF761FF084305D0012085
:1007200004E020463946BDE8F08D0020054346EA46
:10073000E0762C4337430A986305E40AA0EB0800EF
:100740000022FD0A44EA47540A3002D5002001463F
:10075000E9E7010510196941DDE90845001969411A
:10076000BDE8F04DA2E72DE9FE4F81EA030404F055
:10077000004421F0004100944FF0000B23F00043AF
:1007800050EA01045ED052EA03045BD0C3F30A547A
:10079000C1F30A552C44A4F2F3340194A0FB025493
:1007A000C1F3130141F48011C3F3130343F4801325
:1007B00001FB024400FB034E840A970A44EA815479
:1007C00047EA8357A4FB076802958D0A05FB078556
:1007D0004FEA932C04FB0C542705029D4FEA065860
:1007E00047EA1637B5EB08056EEB070C870E920E3D
:1007F00047EA811742EA8312A7FB0201B6EB0B011D
:1008000064EB00042B0D43EA0C335E1844EB1C50E0
:10081000DA465146E7FB0201C5F313044FEA0B33F6
:1008200043EA14534FEA0432019C43EA0603A4F15D
:100830000C040294009CCDE900B4FFF746FF03B01E
:10084000BDE8F08F00200146F9E700001CB509481B
:100850000090094801900546009C06E0E06840F0E1
:10086000010394E8070098471034AC42F6D3FFF731
:10087000ADFC000068600008886000080EB5C10F7C
:1008800080EAE0700844CA07002140F233438DE853
:100890000E000A460B46FFF718FF03B000BD0EB569
:1008A00040F2334102910021CDE900110A460B4686
:1008B000FFF70BFF03B000BD70B58D1810F8014BAA
:1008C00014F0030201D110F8012B231106D110F806
:1008D000013B03E010F8016B01F8016B521EF9D1E6
:1008E000ABB110F8012B04F00C048A1A0C2C03D0C5
:1008F000A2EB84129B1C08E010F8014BA2EB04222F
:10090000F8E712F8014B01F8014B5B1EF9D5A9423B
:10091000D4D3002070BD0000FEE7000041F2CC30CF
:10092000C2F2000000F01CB87047000072B600BFB1
:10093000FEE7000090F83510022909D1052180F862
:1009400035100068016821F0010101600020704746
:10095000802141650120704790F835007047000004
:10096000F0B581B00021009140F21801C2F20001FF
:100970000B68D0E9166148F2B51537680822C1F650
:100980004E358A403A42A3FB05350CD003681C68FB
:10099000640708D51C6824F004041C60B260426D32
:1009A00042F00102426501228A403A4208D00368BF
:1009B0005B691B0604D5B260426D42F002024265DB
:1009C00004228A403A4208D003681B689B0704D57A
:1009D000B260426D42F00402426510228A403A42FF
:1009E00019D001680B681B0715D5B2600B680A683F
:1009F0005B0309D4D20509D40A6822F008020A6010
:100A0000016C29B907E000BF110341D4016C11B199
:100A1000044688472046C26D202101FA02F33B427A
:100A200043D001680F68FF063FD5B36090F835707A
:100A30000B68052F1CD123F016030B604B6923F0C4
:100A400080034B61036C0BB9836C1BB10B6823F003
:100A500008030B603F219140B160012180F83510FF
:100A6000016D0022002980F8342054D158E000BFE5
:100A70000A685B0310D4D20512D40A6822F010026F
:100A80000A60012180F83510002180F8341007E059
:100A9000816C0029BCD1BEE7110301D4416C00E098
:100AA000C16B11B1044688472046416DC1B3416D09
:100AB000C9072ED0052180F835100168AA0A0B68F5
:100AC00023F001030B60009B0133934200931AD87B
:100AD0000B68DB0717D0009B01339342009312D8B9
:100AE0000B68DB070FD0009B0133934200930AD8B9
:100AF0000B68DB0707D0009B01339342009302D8B9
:100B00000B68DB07DFD1012180F83510002180F868
:100B10003410C16C21B101B0BDE8F040084700BFFE
:100B200001B0F0BD2DE9F041044600F0E9F9ECB167
:100B30000546022084F835000020216884F834003E
:100B4000086820F00100086021680868C00711D01B
:100B500000F0D6F9401B0528F6D9032520230320F1
:100B6000636584F83550BDE8F08100BF0120BDE821
:100B7000F08100BF086848F23F02CFF21002D4E9CA
:100B8000013500EA020C04F10C0898E8C10143EABF
:100B90000C032B431843D4E9072E3043384310434A
:100BA000626A40EA0E00042A40EA08031CD1206B66
:100BB000D4E90A2E40EA0E00184308604869BEF1E5
:100BC000000F20F0030040EA020040F0040C11D0B6
:100BD000B8F5005F36D0B8F1000F45D1022A46D0F3
:100BE000012A3BD032B942E00B60486920F007008F
:100BF00040EA020C01F0F8004AF6AB221038CAF6BF
:100C0000AA22A0FB02231A0945F20233C1F814C03C
:100C1000C0F600039A5C40F2FF335F284FF03F00BC
:100C200021EA030100FA02F088BF0431C4E9161278
:100C30008860002301250020636584F83550BDE8F5
:100C4000F08100BF032AD5D8012540230120DFE829
:100C500002F0030E030500BF82E700BFAEF1C070D3
:100C6000B0FA80F0400904E0032A04D3C2D1CEF3E5
:100C700000600028BED0012540230120636584F870
:100C80003550BDE8F081000090F834C0BCF1010F90
:100C900004BF0220704770B54FF0010C80F834C0DB
:100CA000D0F858E090F835C0BCF1010F38D14FF0C2
:100CB000020C80F835C04FF0000CC0F854C0D0F8DA
:100CC00000C08468056CC06DDCF80060402C26F420
:100CD0008026CCF80060CCF804300B4604BF1346E5
:100CE0000A463F2101FA00F0CCF80830CCF80C207D
:100CF000CEF80800DCF8000040F01600CCF8000048
:100D00002DB1DCF8000040F00800CCF80000DCF861
:100D1000000040F00100CCF80000002070BD00BFD2
:100D2000002180F83410022070BD0000B0B50446E8
:100D300000F0E6F8054640F21000C2F2000000782C
:100D4000611C18BF044400BF00F0DAF8401BA04249
:100D5000FAD3B0BD2DE9F04F83B000F1200200F1CD
:100D60003E4741F60005009207F1FF77C4F2020505
:100D700007224FEAB726A84208BF062200254FF0F7
:100D800000084FF00009062E38BF4FEAB722019243
:100D90000AE000BF09F1010908F10208B9F1100FDA
:100DA00005F1040500F0A2800F68012202FA09FE95
:100DB00017EA0E0AEED0D1F804C003220CF00307A4
:100DC0007E1E02FA08F4012E6FEA040B12D8846822
:100DD000CE6804EA0B0406FA08F6344384604468DB
:100DE00024EA0E06CCF3001404FA09F42643466004
:100DF00004E000BF032F01D103271EE0C6688C6802
:100E000006EA0B0604FA08F42643022FC66014D142
:100E10006FF00302009E02EA590756F807C005F07A
:100E20001C040F220B69A2402CEA0202A3401A43C1
:100E3000F251D1F804C00CF00307026807FA08F376
:100E400002EA0B021A431CF4403F0260A2D00022C7
:100E500043F644030292C4F202031A6843F60044C4
:100E600042F480421A601A68C4F2010402F480421B
:100E70000292029A29F003024FF6084C2244CFF660
:100E8000FF7C52F80C3005F00C070F26BE40B34330
:100E9000019E06FA07F73B4342F80C30A2684B6804
:100EA00042EA0A0743F60C4CDE0258BF22EA0A0760
:100EB000A760C4F2010CDCF800209E0242EA0A0797
:100EC00058BF22EA0A07CCF8007062689E0342EA23
:100ED0000A0758BF22EA0A0767602268DB0342EA72
:100EE0000A0758BF22EA0A07276053E703B0BDE8A4
:100EF000F08F0000002A08BF0904816170470000DC
:100F000041F6CC40C2F200000068704740F2100089
:100F100041F6CC41C2F20000C2F2000100780A683A
:100F2000104408607047000080B543F60040C4F2EA
:100F30000200016841F400710160016841F48061C0
:100F40000160016841F480710160032000F088F8BD
:100F5000002000F005F800F027F8002080BD000018
:100F600070B540F21006C2F2000640F21801327865
:100F7000C2F200014FF47A730968B3FBF2F204463F
:100F8000B1FBF2F1084600F099FE0F2C4FF001057D
:100F900008D838B94FF0FF3021460022002500F074
:100FA00033F87460284670BD82B0002043F64001DB
:100FB0000190C4F202014A6842F480424A604A68E1
:100FC00002F480420192019A0090086840F080503B
:100FD0000860086800F0805000900098072002B078
:100FE00000F03EB8002848BF704700F01F01012202
:100FF00002FA01F11C2202EAD0004EF20012CEF2F7
:10100000000281507047000010B54EF60C5CCEF225
:10101000000CDCF80030C3F3022E8EF00704042C21
:1010200028BF0424BEF103034FF0FF3E0EFA04F480
:1010300038BF0023A14399400EFA03F39A431143AA
:1010400000F00F0200F160430901043A03F5644324
:101050006244002848BF02F10C03197010BD000063
:101060004EF60C51CEF200010A684FF6FF031A400B
:1010700060F30A2242F0806040F0FD700860704723
:10108000002804BF012070472DE9F04143F608080D
:10109000C4F202080446D8F8F8030D4600F00F0029
:1010A000884207D288F8F853D8F8F80300F00F0008
:1010B000A84277D12068810717D5410705D5D8F810
:1010C000001041F4E051C8F80010010705D5D8F828
:1010D000001041F46041C8F80010D8F80010A26870
:1010E00021F0F0011143C8F80010C00740D1D8F832
:1010F000F80300F00F00A84207D988F8F853D8F891
:10110000F80300F00F00A8424CD12068410707D532
:10111000D8F80010E26821F4E0511143C8F800103B
:10112000000708D5D8F80000216920F4604040EAA3
:10113000C100C8F8000000F07DF8D8F8001045F2B2
:10114000E022C1F30311C0F60002515C40F2180224
:1011500020FA01F140F21400C2F200000068C2F26D
:1011600000021160FFF7FCFE0020BDE8F08100BF27
:101170006068811E022907D258F8081C89015CBFEB
:101180000120BDE8F08111E0012807D158F8081CC2
:1011900089035CBF0120BDE8F08107E058F8081C16
:1011A000890703D40120BDE8F08100BFD8F8001002
:1011B00021F003010843C8F80000FFF7A1FE06462E
:1011C00041F28837D8F80000616800F00C00B0EBFD
:1011D000810F8CD0FFF794FE801BB842F2D9032018
:1011E000BDE8F08140F2180043F60801C2F20000A9
:1011F000C4F202010068096845F2F022C1F38221BD
:10120000C0F60002515CC8407047000040F2180070
:1012100043F60801C2F20000C4F202010068096846
:1012200045F2F022C1F34231C0F60002515CC840E1
:101230007047000010B543F60404C4F2020460686D
:10124000C0F3810142F20040C0F2F400DFE801F097
:101250004202081841F20020C0F27A0010BD00BF1F
:10126000216801F03F02216823684902C3F3881115
:1012700016D4A1FB00010023FEF7C0FF17E000BF5A
:10128000216801F03F02216823684902C3F38811F5
:1012900014D4A1FB00010023FEF7B0FF15E000BF4E
:1012A00041F20020C0F27A004843B0FBF2F021681E
:1012B0000222C1F3014102EB410109E041F20020A9
:1012C000C0F27A004843B0FBF2F02168C1F302712A
:1012D000B0FBF1F010BD0000002804BF01207047F2
:1012E0002DE9F04182B00446007843F60006C007BD
:1012F000C4F202060CD0B06800F00C00042840F0E4
:1013000089803068800303D56068002800F0508130
:101310002078800723D5B06810F00C0F11D0B0688A
:1013200000F00C00082802D17068400209D5B068AE
:1013300000F00C000C2840F09F807068400200F123
:101340009B803068800703D5E068012840F0308139
:101350003068216920F0F80040EAC1003060207850
:10136000000713D4207840072AD4A569002D00F087
:101370001A81B06800F00C00082840F0AB80012D05
:1013800040F0E880012002B0BDE8F08160690028EB
:1013900040F20000C4F2472000F088800121C0F82C
:1013A000801EFFF7ADFD0546706F8007DAD4FFF7AA
:1013B000A7FD401B0228F7D9032002B0BDE8F08149
:1013C000306C5FEAC0080AD400200190306C40F015
:1013D00080503064306C00F080500190019847F2EA
:1013E0000007C4F200073868C00537D4386840F4F5
:1013F00080703860FFF784FD054600BF3868C0057F
:101400002CD4FFF77DFD401B0228F7D9032002B042
:10141000BDE8F081B06800F00C00082803D17068C6
:1014200040023FF56EAFB06800F00C000C2803D10D
:10143000706840023FF565AF61683068B1F5803F84
:1014400007D0B1F5A02F40F0CB8040F48020306071
:10145000306840F480303060CBE000BFA168306F6E
:10146000012905D0052957D140F004003067306FBD
:1014700040F00100306759E0E068002800F09C80EF
:101480000020C4F2472001210160FFF739FD054625
:10149000306880073FF55CAFFFF732FD401B022844
:1014A0004FF00300F4D902B0BDE8F0810021C0F88C
:1014B000801EFFF725FD0546706F80077FF552AF50
:1014C000FFF71EFD401B0228F6D9032002B0BDE83D
:1014D000F08100BF0027C4F2472700203866FFF7DD
:1014E0000FFD022D05460BD13068800140F192803E
:1014F000FFF706FD401B02284FF00300F4D9D2E7A6
:10150000306880014FD5FFF7FBFC401B02284FF0ED
:101510000300F5D9C7E700BF20F001003067306F46
:10152000002920F00400306700F09880FFF7E8FC05
:10153000054641F2883700BF306F800700F1A08078
:10154000FFF7DEFC401BB842F6D9032002B0BDE82D
:10155000F08100BF7068E16900F480028A4227D1FF
:10156000216A00F03F028A4222D147F6C071626AC6
:101570000140B1EB821F1BD1A16A4FF6FF73C90373
:10158000994300F44032A1F580318A4210D1E16ADA
:1015900000F07062B2EB016F0AD1216B00F0E04005
:1015A000B0EB017F04D1002002B0BDE8F08100BFA4
:1015B000012002B0BDE8F0810020C4F247200021E4
:1015C0000160FFF79DFC0546306880077FF5C7AED8
:1015D000FFF796FC401B02284FF00300F4D962E7A6
:1015E00020F4803030603068002920F480203060A2
:1015F00050D0FFF785FC0546306880033FF588AE84
:10160000FFF77EFC401B6428F6D9032002B0BDE83A
:10161000F08100BF04F11C052FCD246B084340EA84
:101620008210D9034FF6FF729143A1F5803140EA51
:101630000560084340EA0470706001203866FFF7D7
:101640005FFC044630688001ADD4FFF759FC001BF5
:1016500002284FF00300F5D925E700BFFFF750FC43
:10166000054641F2883700BF306F800708D5FFF785
:1016700047FC401BB8424FF00300F5D913E700BF09
:10168000B8F1000F3FF571AE306C20F0805030643F
:101690006BE600BFFFF734FC054600BF30688003EF
:1016A0007FF536AEFFF72CFC401B64284FF003009B
:1016B000F4D9F8E670470000B0B582B001684A6816
:1016C0008B6803F04105012D08D112F0400505D0CB
:1016D000016C02B0BDE8B040084700BF9D0707D5C8
:1016E00012F0800504D0416C02B0BDE8B04008475C
:1016F00013F4B07F18BF12F0200501D102B0B0BDC5
:101700005D0618D590F85150032D09D100200190A5
:10171000C868019088680190019802B0B0BD00BF10
:10172000456D45F00405456500250195CD68019599
:101730008D680195019D9D0604D4DB0511D4436D90
:10174000DBB9DBE7456D45F00105456500250195F1
:101750008D6801950D6825F040050D60019DDB0544
:10176000EDD5436D43F008034365002301938B6877
:101770000193019B436D002BC0D04B68920723F06F
:10178000E0034B604FF0010380F8513026D04A68E7
:1017900041F6557422F003024A60C16CC0F60004A1
:1017A00059B1054608460C65FFF7C4F801462846BE
:1017B00019B1416D41F040014165816C00299DD016
:1017C0000C6504460846FFF7B5F8002896D0606D12
:1017D00040F04000606502B0B0BD00BF02B0BDE89F
:1017E000B040FFF767BF000070B528B1416A29B16A
:1017F00000210161142106E0012070BD4168B1F5AE
:10180000827F02D01C21002242500026866290F87E
:10181000511029B980F85060054600F03DF828467F
:10182000022180F8511090E82E0002F482720C68B8
:1018300003F4044324F040040C601A4405F40063EC
:1018400005691A4405F0020345691A4405F00103CD
:101850008569C4691A4405F400731A4404F0380316
:10186000046A1A4404F08003846A1A4304F400539F
:101870001A430A60436A042202EA154203F0100385
:101880001A444A60CA6922F40062CA6101214665AD
:1018900080F85110304670BD70B586B0044643F2F2
:1018A00000002168C4F20100002681420596CDE9BE
:1018B00003660296019601D006B070BD43F6300172
:1018C0000096C4F202014A6900F5504042F4805289
:1018D0004A614A6902F480520092009A00960A68AE
:1018E00042F001020A60096801F0010100910099CB
:1018F000E02101910221CDE9021603210491052185
:10190000059101A9FFF726FA41F2CC3546F258407D
:10191000C2F20005C4F202004FF0C06140224FF451
:10192000806385E847002846C5E90436C5E90666B0
:10193000C5E90866FFF7F6F8002818BFFEF7F6FFBE
:10194000232000210022A564AC63FFF75DFB232068
:10195000FFF748FB06B070BD2DE9F04184B01D468D
:1019600016460F460446FFF7CBFA94F851100129AA
:101970000ED18046002F4FF0010018BF002E03D17A
:1019800004B0BDE8F08100BF94F85000012803D1F5
:10199000022004B0BDE8F081012084F8500003204B
:1019A000002184F8510061652763A686E686A1635D
:1019B000A187E187A0682164B0F5004F20686164C9
:1019C00007D1016821F040010160016841F48041C4
:1019D00001600168490603D4016841F040010160DB
:1019E0006168731EE268B1FA81F1B3FA83F34909C1
:1019F0005B09B2F5006F41EA030139D131B137F823
:101A0000021BC1602763E08E0138E086E08E00286B
:101A100070D0681C0BD11AE0216B31F8022BC26028
:101A20002163E08E0138E086E08E002862D02068D5
:101A300081688907F0D4FFF763FAA0EB0800A84299
:101A4000F2D338E0FFF75CFAE08E002852D020682D
:101A500081688907F6D5216B31F8022BC2602163BA
:101A6000E08E0138E086E08E0028F0D142E000BF31
:101A700039B139780173206B01302063E08E013871
:101A8000E086E08EB0B3681C0BD123E0216B0978AF
:101A90000173206B01302063E08E0138E086E08E18
:101AA00040B3206881688907F0D4FFF729FAA0EBDA
:101AB0000800A842F3D3012084F85100002084F8E4
:101AC0005000032004B0BDE8F08100BFFFF718FA12
:101AD000E08E78B1206881688907F7D5216B097895
:101AE0000173206B01302063E08E0138E086E08EC8
:101AF0000028EFD12046022101222B46CDF800809C
:101B000000F0CCFAE0B1606D40F02000606520206C
:101B10006065A06838B9002002902068C168029111
:101B2000806802900298012084F85100002084F817
:101B30005000606D002818BF012004B0BDE8F0819E
:101B400040F21800C2F20000006849F68171C1F24B
:101B50005E61A0FB0101480D4FF47A714843039088
:101B60006068B0F5827F0BD12046802100222B4691
:101B7000CDF8008000F092FA0028C4D1C9E700BF78
:101B800003980028C5D00398013803902068806826
:101B90000006BED503980028BBD0039801380390F7
:101BA000206880680006B4D503980028B1D0039857
:101BB00001380390206880680006AAD503980028A1
:101BC000A7D0039801380390206880680006D7D416
:101BD0009FE7000090F85130012B0BD100294FF006
:101BE000010318BF002A01D11846704790F8503001
:101BF000012B03D102231846704700BF10B5012303
:101C000080F85030032380F851300023436501638E
:101C10008286C2868363C0E910338387C387846862
:101C20000268B4F5004F07D1146824F04004146032
:101C3000146844F480441460D0F848C041F6817EB2
:101C400041F68974C0F6000EC0F60004CCE90F4ED0
:101C500041F66174C0F60004CCE91343C38E044618
:101C60000C326046FFF710F860B1606D012340F060
:101C700010006065002084F85000BDE81040184650
:101C8000704700BF20680168490603D4016841F02D
:101C900040010160002384F85030416841F0200188
:101CA0004160416841F002014160BDE810401846C2
:101CB000704700007047000070470000411E002080
:101CC000B0EB116F1CBF012070474EF21002CEF234
:101CD000000251604EF62351CEF20001F0230B704A
:101CE0000721906011607047002804BF01207047F1
:101CF00010B5044690F8410028B9002084F840004F
:101D0000204600F021F8242084F841002068C168B2
:101D100021F40051C160204600F0B0FA206801694A
:101D200021F490410161416921F02A014161C168BA
:101D300041F40051C16000202021606484F841100A
:101D400084F84210606310BD80B586B044F2004153
:101D50000068C4F20001002288420592CDE9032206
:101D60000292019202D006B080BD00BF43F630005F
:101D70000092C4F20200036943F400330361036973
:101D800003F400330093009B0092036843F00103C7
:101D90000360006800F00100009000980C200190A2
:101DA0000220CDE90202032004900720059001F5EE
:101DB000DE3001A9FEF7CEFF06B080BDFEE70000D1
:101DC00080B582B00020019043F63000C4F20200DA
:101DD0000168002241F4800101600068002100F4E4
:101DE0008000019001983B20FFF70EF93B2002B0E4
:101DF000BDE88040FFF7F6B82DE9F04387B0002733
:101E000043F630000697CDE90477CDE902770197D4
:101E1000C4F20200016840F2004941F0040101608F
:101E20000168C4F2020901F00401019101990197CE
:101E30000168002241F08001016001684FF488666A
:101E400001F08001019101990197016841F00101C0
:101E50000160016801F00101019101990197016898
:101E600041F00201016000684FF4886100F0020057
:101E7000019001984846FFF73DF809F5806528462E
:101E8000802100224FF08008FFF734F8029602AE5E
:101E9000012448463146CDE903470597FEF75AFF2E
:101EA00028463146CDE90284CDE90477FEF752FF9A
:101EB00007B0BDE8F083000080B541F22C4043F24A
:101EC0000001C2F20000C4F201014FF4827200234B
:101ED0004FF4007C80E80E000A21C0E90333C0E91A
:101EE000053CC361C0E90833C0E90A31FFF77CFC57
:101EF000002808BF80BDBDE88040FEF717BD000088
:101F000080B541F2844044F20041C2F20000C4F2C4
:101F1000000100234FF00C0C4FF4E13280E80E007A
:101F2000C0E90333C0E905C3C361FFF7DDFE002844
:101F300008BF80BDBDE88040FEF7F8BCFEE70000AA
:101F4000FEE700007047000041F22C40C2F20000A2
:101F5000FFF7B2BB806B0021C187C186FFF7AABB28
:101F6000806B01684A6822F003024A60416D41F0CB
:101F700010014165012180F85110FFF79BBB000063
:101F8000806BFFF799BE0000B0B584B0846B054646
:101F9000FEF7B6FF29680968C90531D405462068EF
:101FA00001224168642321F020014160416821F051
:101FB0000201416020460221009500F06FF828B32D
:101FC000606D40F020006065606D40F0200060654D
:101FD000A06838B9002002902068C168029180682A
:101FE000029002980020E086012084F85100606D84
:101FF00030B1204604B0BDE8B040FFF75BBB00BF86
:10200000204604B0BDE8B040FFF754BE40F21800CF
:10201000C2F20000006849F68171C1F25E61A0FB66
:102020000101480D4FF47A71484303906068B0F5A0
:10203000827F09D12046802100226423009500F090
:102040002DF80028BCD1C3E703980028C0D003981E
:1020500001380390206880680006B9D503980028ED
:10206000B6D0039801380390206880680006AFD589
:1020700003980028ACD0039801380390206880684A
:102080000006A5D503980028A2D003980138039034
:10209000206880680006D7D49AE700002DE9F04355
:1020A00081B0089C984615460E468146FEF728FFEB
:1020B000201A00EB0804FEF723FF40F21801C2F2D9
:1020C00000010968C1F3CB3161430091D9F80010D8
:1020D0008A683240921BB2FA82F25209AA423DD07B
:1020E000074618F1010031D0FEF70AFFC01BA042DD
:1020F00038D2009800990028A1F101010091D9F887
:102100000010896808BF044601EA0600801BB0FA87
:1021100080F04009A842E7D120E000BF8868304045
:10212000801BB0FA80F04009A84217D08868304080
:10213000801BB0FA80F04009A8420FD08868304078
:10214000801BB0FA80F04009A84207D08868304070
:10215000801BB0FA80F04009A842DFD1002001B016
:10216000BDE8F083D9E900014268B1F5827F22F031
:10217000E00242600BD1D9F80810B1F5004F02D04F
:10218000B1F5806F03D1016821F040010160D9F8F9
:102190002810B1F5005F07D1016821F400510160FA
:1021A000016841F400510160012089F851000020CC
:1021B00089F85000032001B0BDE8F08370470000AB
:1021C000FEF7A4BE70B594B007AC20463421FEF7EC
:1021D00060F8002543F640000695CDE90455CDE9A9
:1021E00002550195C4F202000168012241F08051BC
:1021F00001600068022600F080500190019847F2CB
:1022000000000195C4F20000016862F38F310160A3
:10221000006800F440400190019810200B900F904E
:102220004FF4A87010900420CDE9110620460796BF
:102230000A92CDE90D651396FFF74EF810B172B60C
:10224000FEE700BF0F20CDE902064FF48050CDE934
:10225000050502A802210495FEF712FF10B172B61F
:10226000FEE700BF14B070BD4EF68850CEF20000FD
:10227000016841F47001016070470000B0B5044688
:10228000006804F108030ECB0569194325F4405595
:102290002A4302616269E3691143C268194349F242
:1022A0000C639A431143C1604169A26921F44071F2
:1022B00041F20043114340F48062C4F201039A42A8
:1022C000416103D1FEF7A2FF02E000BFFEF78AFFE3
:1022D000E1694FF69C7563681922C0F6FF75B1F588
:1022E000004FA0FB02011FD15A00DB0FFDF786FF54
:1022F00048F21F51C5F2EB11A0FB01235A0905F169
:10230000805302FB0300322303EBC000A0FB01015A
:102310004FF4F87000EA111000EB0210C1F3421103
:10232000084421688860B0BD9A009B0FFDF766FFE6
:1023300048F21F51C5F2EB11A0FB01235A0902FB21
:102340000500322303EB0010A0FB0101F02000EA9E
:10235000511000EB0210C1F343110844216888605A
:10236000B0BD0000FEE700002DE9F04F83B000276C
:1023700088460546ADF80A70ADF8087000F080FA9E
:1023800045F2F820C0F60000B0F800A041F2A036F7
:10239000C2F200064FF00A0B0DF10809052442E0D5
:1023A0000130B6F900307080284651464FF49172E2
:1023B000CDF800B0CDF804B001F07AF8B8F802100A
:1023C0003BB228464FF49172CDF800B0CDF804B07E
:1023D00001F06EF83780FDF743FF46F26761C6F201
:1023E000666150FB01F18A1002EBD17101EB8101B2
:1023F000A0EB4101BDF808000529DCBF0130ADF8B4
:102400000800B8F81210C0F1F00003B2284600220C
:10241000CDE900B401F04CF828460DF10A024B4614
:1024200000F006F9B0B91420FEF780FC70881A2875
:10243000B6D3FDF715FF4FF21101C1F2FE0150FBBB
:1024400001F10A1102EBD171F12201FB1207002008
:10245000A6E700BF03B0BDE8F08F00002DE9F04F04
:10246000DDF824C0177C4FF00008ACF80080022F84
:10247000B2F9187046F2676606FB07F7B2F91A4020
:102480004FEAA74505EBD77504FB06F74FEAA746C9
:1024900006EBD7744FF00D0E03EB841408BF4FF01A
:1024A000100E24F815E0B2F908508CF8028046F2BC
:1024B000676A40F21C088542C6F2666AC2F20008EA
:1024C00014DA00F10A0555FB0AF5AE1006EBD575D6
:1024D0008E1C56FB0AF6B70807EBD67608EB861675
:1024E00006EB450601F1080714E000BF854235DD23
:1024F00046F267654543AE1406EBD5754E1C56FB98
:102500000AF6B70807EBD67608EB861606EB450603
:1025100001F1090757FB0AF7BC0804EBD77408EB75
:10252000841434F81590B6F800B05BEA0907B7FADE
:1025300087F44FEA541418BF01278CF80040B2F911
:102540000A508D420FDA841C54FB0AF40A31A5109C
:1025500051FB0AF105EBD4748D0810E00127B2F9A4
:102560000A508D42EFDB8D4224DD841C54FB0AF4BB
:10257000A51005EBD47446F2676569438D1405EB2D
:10258000D171083008EB811150FB0AF001EB4405D2
:10259000841004EBD07031F81080298851EA0804C7
:1025A000B4FA84F54FEA551518BF01248CF8015090
:1025B00001E000BF0124B2F91850B2F91A2046F226
:1025C00067667543A814724300EBD570951405EB4C
:1025D000D27203EB8213002223F8102087B11FFA76
:1025E0008BF01FFA89F2A0EB0E00A2EB0E02B0FAFC
:1025F00080F0B2FA82F24009520902438CF80220BC
:10260000002C08BFBDE8F08F88B21FFA88F1A0EB5C
:102610000E00A1EB0E01B0FA80F0B1FA81F1400991
:102620004909084310438CF80200BDE8F08F000010
:102630002DE9F0438DB0118815461F46F02905D1CC
:102640004FF001090FF2B8081E2107E03988F02980
:1026500050D14FF002090FF2B008A021A022064687
:1026600000F0F6F945F2F8210020C0F600012880BC
:102670000D883880F0270A2430462946002200239E
:10268000CDE9004700F014FF304629464FF49B7215
:102690000023CDE9004700F00BFF304629464FF4F8
:1026A00091720023CDE9004700F002FF03AF3846E6
:1026B0002821FDF7EEFD45F2FE20C0F6000000885F
:1026C00013A140EA05453846424601F0A3FF45F212
:1026D0000A31C0F6000130462A465023009700F028
:1026E00025FE4FF47A70FEF721FB48460DB0BDE899
:1026F000F08300BF4FF0000948460DB0BDE8F083FD
:1027000052696768740000004C6566740000000040
:10271000257320506C617965722057696E732100B2
:102720002DE9F04F83B08A4645F20031C0F6000132
:102730000D8845F2FC21C0F60001B1F8009045F289
:10274000F821C0F60001B1F800B00646594600F085
:1027500081FF30461E218C224B461E2400F0FEF8DD
:102760003046B4218C222B46029500F01BFB45F22B
:10277000FE20C0F600000788304639464122B423C7
:102780000094019400F09EFD30463946D722B423D0
:102790000094019400F096FD4FF09108142500BFBD
:1027A0001420FEF7C3FA08F1010004B20FFA88F210
:1027B00030465946B9230095019500F079FE304620
:1027C00039462246B9230095019500F071FEDB2CB5
:1027D00022DC472CA046E3DA1E243046594641222B
:1027E000B4230094019400F063FE30464946412230
:1027F000B4230094019400F065FD14273046494647
:102800004622B9230097019700F052FE4D46DDF8AD
:102810000890012002211CE01E2430465946D72290
:10282000B4230094019400F043FE0094029D3046CE
:102830002946D722B423019400F044FD14273046E2
:102840002946DC22B9230097019700F031FE0220CF
:1028500001218AF8001000218AF810004FF47A70E4
:102860008AF80110AAF80250AAF81290FEF75EFA50
:102870003046594603B0BDE8F04F00F0EBBE000013
:1028800070B58CB00D4645F2F821C0F600010E88F7
:102890000446314600F0DEFE45F2FE20C0F60000A0
:1028A000008845F20A3140EA064200208DF82F00E8
:1028B000CDF82B00CDF82700CDF82300CDF81F0070
:1028C000CDF81B00CDF81700CDF8130046F64610E2
:1028D000C6F66700029042F27400C2F22110039023
:1028E00042F22110C0F22100CDF80F00C0F6000125
:1028F00002AE20467823009600F018FD28780128C3
:1029000016D145F2FC20C0F60000038820461E21A7
:10291000A02200F023F845F20030C0F60000038842
:102920002046A021A02200F03DFA0CB070BD00BFEF
:1029300045F20030C0F60000038820461E21A02288
:1029400000F030FA45F2FC20C0F600000388204673
:10295000A021A02200F002F80CB070BD2DE9F047D4
:1029600082B00E46044601F13100A2F13C010FFA9B
:1029700081F91D469046322702B2204619464B4641
:10298000009700F00BFD4FF0640C32B22046294650
:102990004B46CDE900C700F08BFDA8F10F0106F111
:1029A00014000FB24FF0140A02B2204629463B46EB
:1029B000CDF800A000F0F2FC06F1320002B2204691
:1029C00029463B46CDF800A000F0E8FC06F14F0098
:1029D00002B2204629463B46CDF800A000F0DEFCBE
:1029E00045F2FE20C0F60000058806F11900082710
:1029F00002B2204629464B46009700F0CFFC06F174
:102A0000410002B2204629464B46009700F0C6FC22
:102A100045F2F820C0F60000058806F11B00A8F179
:102A20003A01022702B20BB220462946009700F075
:102A3000B5FC06F13F00A8F13E0102B20BB2204600
:102A40002946009700F0AAFC02B0BDE8F08700001C
:102A50002DE9F04184B0044645F2FA20C0F60000AA
:102A600007880E46A1F10C0801F13100A2F14101E5
:102A700015464FF0330C02B20BB220463946CDF862
:102A800000C000F08BFCB01EA5F14B014FF0460CCE
:102A90004FF0680E02B20BB220463946CDE900EC89
:102AA00000F006FDA5F119004FF0230C4FF07C0E4D
:102AB0000FFA88F203B220463946CDE900EC00F067
:102AC000F7FC45F2F82142F65060C0F60001039091
:102AD00042F652600988C2F64960029041EA074214
:102AE00006F11200A5F13701C0EA014345F20A31AF
:102AF000C0F6000102AF2046009700F017FC04B0BA
:102B0000BDE8F0812DE9F04F87B00D4645F2F82180
:102B1000C0F600010988044600F09CFD294611F822
:102B2000100B0128884608BFA846022845F2FE205F
:102B3000C0F600000088029508BF29460591019063
:102B400040F21C0041F25C35C2F20000C2F2000506
:102B50000021069009E000BF049906980131182968
:102B600000F14000069000F0B980049101EB810073
:102B700005214FEA400A01EB400000B24FF0000B84
:102B8000039000BF28680699426831F81B108A42FA
:102B90003CD0686842688A4238D0A86842688A4255
:102BA00034D0E86842688A4230D0286942688A4254
:102BB0002CD0686942688A4228D0A86942688A4253
:102BC00024D0E86942688A4220D0286A42688A4252
:102BD0001CD0686A42688A4218D0A86A42688A4251
:102BE00014D0E86A42688A4210D0286B42688A4250
:102BF0000CD0686B42688A4208D0A86B42688A424F
:102C000004D0E86B42688A4254D100BFA1F10C02A3
:102C1000042A0BD20BEB8B014900A8F80810A8F886
:102C20000AA0D8F80820C8F804200AE010293DD1ED
:102C30000BEB8B01059B49001981A3F80AA09A6848
:102C40005A60069B002223F81B200788B0F80290E8
:102C50008668C819013809EB0A0295B283B289B2B5
:102C60001FFA8AF22046009501F0A6F8204601F0EE
:102C70009DF86069218B0122FEF73CF907FB09F002
:102C8000400081B220463246012301F063F920461C
:102C900001F086F841F25C35C2F200050BF1010B40
:102CA000BBF1200F7FF46EAF56E700BF0BEB8B013B
:102CB0004900CAE70BEB8B00052101EB40000199AD
:102CC000039B02B220460127009700F067FB0BF13F
:102CD000010BBBF1200F7FF455AF3DE7029D4FF094
:102CE0001009287801284FF0100008BF0D2000F0CF
:102CF00099F8B0F800A0A9684788D0F808800AEBD6
:102D00000100013807EB11430A0C9EB283B289B26D
:102D10002046009601F050F8204601F047F860691F
:102D2000218B0122FEF7E6F80AFB07F0400081B292
:102D300020464246012301F00DF9204601F030F80B
:102D4000287C012808BF4FF00D09484600F06AF8BA
:102D5000B0F80090A9694788D0F8088009EB010015
:102D6000013807EB11430A0C9EB283B289B22046A8
:102D7000009601F021F8204601F018F86069218BD7
:102D80000122FEF7B7F809FB07F0400081B22046A8
:102D90004246012301F0DEF8204607B0BDE8F04FBF
:102DA00000F0FEBFF0B583B0044601F132000E46DC
:102DB000A2F1320107B29FED190ADFED190A9C4614
:102DC00015464FF0010E0AB2204639463223CDE9AE
:102DD00000EC01F0E9F945F2FE20C0F600000188A0
:102DE000A5F14B004FF0080C03B220463A46CDF84F
:102DF00000C000F0D3FA45F2F820C0F600000188C8
:102E000006F13000A5F14E03022702B21BB22046A4
:102E1000009700F0C3FA03B0F0BD00BF00005243BA
:102E20000000164341F25C32C2F2000211684B68A6
:102E300083423CD051684B68834238D091684B68DC
:102E4000834234D0D1684B68834230D011694B68DB
:102E500083422CD051694B68834228D091694B68DA
:102E6000834224D0D1694B68834220D0116A4B68D9
:102E700083421CD0516A4B68834218D0916A4B68D8
:102E8000834214D0D16A4B68834210D0116B4B68D7
:102E900083420CD0516B4B68834208D0916B4B68D6
:102EA000834204D0D16B4A68824218BF0021084691
:102EB000704700002038C1B25F2928BF0020C0B28F
:102EC000704700002DE9F04F87B08046808B1EB21E
:102ED00086422FDAB8F81EA0BAEB234F2ADD91F80C
:102EE00000E0BEF1000F25D091F801C0BCF1000F49
:102EF00020D04FEA134B26EAE679002E58BF002671
:102F0000AEEB0607002B5C46664619FA87F544BF10
:102F10000024A6EB0B06854288BFA0EB090714FA34
:102F200086F0504588BFAAEB0406380418BF5FEA54
:102F3000064003D107B0BDE8F08F00BF1098CDF870
:102F400004B0144602930CFB0EF90D46FFF7B2FFD6
:102F500095F801A02978BAF1000F04903AD020BA70
:102F6000AC46030C4FF47F4041F2CC4E224600EABF
:102F700014250CF102000027C2F2000E8B460390CC
:102F800005E000BF4FF0000B0137574524D2BBF1DD
:102F9000000FF7D004980AFB0076039830F816402B
:102FA000002600BF04FA06F007FB0B610004184678
:102FB00058BF45EA12602EF811009CF800B00136A7
:102FC0005E45EFD39CF801A0594601375745DED343
:102FD00002E000BF4FF0000A029E019F7018441EDD
:102FE0000AEB0700451E404600F0E0FE300A8DF86F
:102FF0001800200A8DF81A008DF81B4006AC4046D8
:103000004FF0FF312A2204238DF81960009400F05C
:1030100049FF300E8DF81400280A8DF815708DF8D0
:10302000160005AF40464FF0FF312B2204238DF8E8
:103030001750009700F036FF40464FF0FF312C222A
:1030400000F0F8FE404600F0ABFE404600F0AEFE59
:10305000D8F81400B8F818100122FDF74BFFB9F1A9
:10306000000F21D041F2CC45C2F200054E4601E0EE
:10307000F61B19D0B145374638BF4F46B7F5806FBC
:1030800028BF4FF48067002FF2D07900D8F80000F5
:103090008AB22946FEF79EFDD8F80000806CFDF745
:1030A0005BFC0228F8D0E3E7404600F079FE07B069
:1030B000BDE8F08F2DE9F04F85B0DDE90E7686464C
:1030C0009742A6EB03050FD19E4244D02EB20125B4
:1030D00070463A46002E48BF7642CDE9005600F0D1
:1030E000E7F905B0BDE8F08FB81A9E4200B20DD1E5
:1030F000002848BF4042012785B270463346CDE9DB
:10310000005700F0D5F905B0BDE8F08F0FFA85FC47
:10311000BCF1000F48BFCCF1000C002848BF404272
:10312000604509D23C461746B3420BDC2246B24604
:103130003C461E4608E000BF34463E461F46134646
:10314000B342F3DD3A469A464FF0FF359442B8BF9A
:103150000125B24502DA05B0BDE8F08FAAEB060BF7
:103160000FFA8BF3B2EB04094FEA630848BFC9F1C9
:1031700000096045CDE903E131D20CE0A8EB090874
:103180000FFA88F0002806F1010006B244BFD844C7
:103190002C445645DFDC22B2002AEFD4BEF81C00D6
:1031A000A3B28342EAD833B2002BE7D4BEF81E00A4
:1031B000B7B28742E2D8704600F028F8DDE903E1B3
:1031C000DCE700BFA8EB09080FFA88F0002806F139
:1031D000010006B244BFD8442C445645BBDC32B291
:1031E000002AEFD4BEF81C00B3B28342EAD823B25F
:1031F000002BE7D4BEF81E00A7B28742E2D8704683
:1032000000F004F8DDE903E1DCE700002DE9F0411E
:1032100084B0868BB24252DAC68BB3424FDA22EACE
:10322000E27723EAE37549BAADF806107E1C05F192
:103230000108044600F0BAFD380A8DF80C00300A87
:103240008DF80D708DF80E0003AF20464FF0FF3162
:103250002A2204238DF80F60009700F023FE280A2D
:103260008DF808004FEA18208DF80A0002AF2046BA
:103270004FF0FF312B2204238DF809508DF80B807D
:10328000009700F00FFE20464FF0FF312C2200F097
:10329000D1FD204600F084FD204600F087FD6069E6
:1032A000218B0122FDF726FE20680DF10601022286
:1032B0004FF0FF33FEF750FB204600F071FD04B0E5
:1032C000BDE8F0812DE9F04F83B00646DDE90C0939
:1032D0001C4600EB02080FFA88FA304617468B4668
:1032E000CDE900A4FFF7E6FE09EB0405681E03B272
:1032F000304659463A46CDE900A3FFF7DBFE2DB232
:10330000304659463A462346CDE90075FFF7D2FECE
:10331000A8F1010002B2304659462346CDE9002506
:10332000FFF7C8FE03B0BDE8F08F00002DE9F04FB5
:1033300081B00A9D994690468A4683461C0C1E46DB
:103340002F780A2F05D120E04E4601352F780A2F1D
:103350001BD00D2FF8D0EFB1BBF81C0031B2814269
:1033600018DCBBF81E0021B2814213DCC6EA04431C
:103370005846514642460097FFF7A4FD9AF80000D0
:10338000013506442F780A2FE3D19AF8010004444E
:10339000DAE700BF01B0BDE8F08F00002DE9F04F83
:1033A00089B0129C04939BB21E1B06EB44030133AD
:1033B0001FB233B2CDE902010592CDE90027FFF734
:1033C00079FE012C70DB4FF0000AAAEB4402C4F135
:1033D00001050123264605E018B2831C1D44B345B0
:1033E000DA4661DA28B2911CB0F1FF3FC2BF0D444A
:1033F0000A46013E36B20AF101000FFA8AF18E4206
:103400000FFA80FB0894CDE9063222DD0499059875
:10341000891B01EB4602DDF80880DDF80C9058446A
:10342000531C0CB202B21FB2404649462346CDE9B6
:103430000027FFF73FFE05984946A0EB0B0002B2BC
:1034400040462346089CCDE90027FFF733FEDDE91F
:103450000632A0B2B1B28142BED00499DDF8149018
:10346000A1EB0A0104EB090001EB4A02029C039F55
:10347000531C0FFA81F802B20FFA83FA204639463C
:103480004346CDE9002AFFF715FE08983946A9EB17
:10349000000002B220464346CDE9002AFFF70AFEAB
:1034A000DDE90632344697E709B0BDE8F08F000049
:1034B0002DE9F04784B0878BBA4229DADDF834C0B1
:1034C000BCF1000F24D004460C9808B3E58BAB4246
:1034D0001EDA22EAE27A0026002A58BF3246801A13
:1034E00023EAE378002B48BF1E46ACEB06091AFA24
:1034F00080F2BA4218FA89F288BFA7EB0A00AA4202
:1035000088BFA5EB0809020418BF5FEA094203D18E
:1035100004B0BDE8F08700BF82B21FFA89F303FB55
:1035200002F63546B6F5806F28BF4FF480656A1EF7
:1035300041F2CC4C49BA05F0030E032AC2F2000C4A
:1035400002D2002310E000BF40F2FC7205EA02073D
:10355000ACF10802002300BF043322F8081F9F4289
:1035600051809180D180F7D1BEF1000F0BD0BEF118
:10357000010F2CF8131006D00CEB4302BEF1020F22
:10358000518018BF91805044471E08EB0900A0F1FC
:103590000109204600F00AFC4FEA1A208DF80C00C1
:1035A000380A8DF80E008DF80F7003AF20464FF0EB
:1035B000FF312A2204238DF80DA0009700F072FC41
:1035C0004FEA18208DF808004FEA19208DF80A00FC
:1035D00002AF20464FF0FF312B2204238DF80980E3
:1035E0008DF80B90009700F05DFC20464FF0FF3106
:1035F0002C2200F01FFC204600F0D2FB204600F0F9
:10360000D5FB6069218B0122FDF774FC41F2CC48A7
:10361000C2F2000802E000BFF61B15D02F46AE42F2
:1036200038BF3746B8B20028F6D0410020688AB2C9
:103630004146FEF7CFFA00BF2068806CFDF78CF999
:103640000228F9D0E8E700BF204600F0A9FB04B04B
:10365000BDE8F08780B582B0B0F81CC0B0F81EE0BD
:1036600000220023CDE900CEFFF722FF02B080BD8B
:103670002DE9F04F9FB0DDF8ACA00446BAF1030F7E
:103680004FF0000018D8BCB1B1B1AAB1A3B1289EC7
:1036900096B1299F87B12A9D75B13098DDE92EEC4E
:1036A000DDE92C98012811D1B9F1000F4FF000008D
:1036B00018BFB8F1000F03D11FB0BDE8F08F00BFF5
:1036C000BEF1000FF8D0BCF1000FF5D068209B468A
:1036D0008946904601F03AFDE0B1DDF8C4C0BAF188
:1036E000030FC0E90049A0F80880C0F80CB00682BA
:1036F0004761058380F81AA010D0DDE92FE2DDE9EB
:103700002D76BAF1010F13D14FF470054FF4A07468
:1037100011E000BF00201FB0BDE8F08FDDE92FE20F
:10372000DDE92D764FF470054FF4A07403E000BF7F
:103730004FF0A075F0242543C561002A2C9B01ADF4
:1037400008AC08BF4FF0FF3C01BF134617461646B2
:103750009646002A08BF2C464FF000054FF0000B9C
:1037600008BF4FF0FF350362FF2387848662A0F80D
:103770002CE080F82E2080F82FC0C0F830B080F800
:103780003430A0F836B0C4E900BBC4E902BBC4E9D8
:1037900004BBC4F818B0C0E910BBC0E912BBC0E953
:1037A00014BBC0F858B0C0F838B0A0F83CB080F8EE
:1037B0005C50C0E918BB0446484641460022FDF76C
:1037C00099FBC820FDF7B2FA6068218901224FF009
:1037D0000109FDF78FFBE068218A0122FDF78AFBD2
:1037E000206AA18C0122FDF785FBE068218A002276
:1037F000FDF780FB6069218B00228DF84C90FDF76E
:1038000079FB206813A901224FF0FF33FEF7A4F8DB
:103810004FF47A70FDF78AFA42F63940C3F200405D
:10382000CDF8760002208DF87A00CB226069218BDA
:103830008DF84C200022FDF75DFB206813A90122C2
:103840004FF0FF33FEF788F86069218B0122FDF706
:1038500051FB20680DF1760105224FF0FF33FEF792
:103860007BF84FF44140ADF8730030208DF87500BF
:10387000CF226069218B8DF84C200022FDF73AFBA6
:10388000206813A901224FF0FF33FEF765F8606945
:10389000218B0122FDF72EFB20680DF1730103221D
:1038A0004FF0FF330325FEF757F88520ADF8700081
:1038B00078208DF87200E8226069218B8DF84C2009
:1038C0000022FDF717FB206813A901224FF0FF33F8
:1038D000FEF742F86069218B0122FDF70BFB20689F
:1038E0001CA903224FF0FF33FEF736F8EA22606985
:1038F000218B8DF84C200022ADF86EB0FDF7FAFA5E
:10390000206813A901224FF0FF33FEF725F8606904
:10391000218B0122FDF7EEFA20680DF16E010222E3
:103920004FF0FF33FEF718F840F26430C8F212107F
:10393000CDF86A00ED226069218B8DF84C200022C1
:10394000FDF7D8FA206813A901224FF0FF33FEF7E4
:1039500003F86069218B0122FDF7CCFA20680DF194
:103960006A0104224FF0FF33FDF7F6FF20208DF8A7
:103970006900F7226069218B8DF84C200022FDF749
:10398000B9FA206813A901224FF0FF33FDF7E4FFD5
:103990006069218B0122FDF7ADFA20680DF1690104
:1039A00001224FF0FF33FDF7D7FF23208DF8680089
:1039B000C0226069218B8DF84C200022FDF79AFA15
:1039C000206813A901224FF0FF33FDF7C5FF60699E
:1039D000218B0122FDF78EFA20681AA901224FF0EF
:1039E000FF33FDF7B9FF10208DF867006069218B68
:1039F0004FF0C10A00228DF84CA0FDF77BFA206839
:103A000013A901224FF0FF33FDF7A6FF6069218B58
:103A10000122FDF76FFA20680DF1670101224FF0D6
:103A2000FF33FDF799FF42F63E00ADF86500C52271
:103A30006069218B8DF84C200022FDF75BFA20682D
:103A400013A901224FF0FF33FDF786FF6069218B38
:103A50000122FDF74FFA20680DF1650102224FF0B7
:103A6000FF33FDF779FF86208DF86400C722606977
:103A7000218B8DF84C200022FDF73CFA206813A919
:103A800001224FF0FF33FDF767FF6069218B0122B0
:103A9000FDF730FA206819A901224FF0FF33FDF736
:103AA0005BFF6069218B48274FF0360800228DF8B4
:103AB00063708DF84C80FDF71DFA206813A9012270
:103AC0004FF0FF33FDF748FF6069218B0122FDF7BE
:103AD00011FA20680DF1630101224FF0FF33FDF769
:103AE0003BFF55208DF862003A226069218B8DF8EA
:103AF0004C200022FDF7FEF9206813A901224FF0A7
:103B0000FF33FDF729FF6069218B0122FDF7F2F9F0
:103B100020680DF1620101224FF0FF33FDF71CFF19
:103B20004FF4C050ADF86000B1226069218B8DF870
:103B30004C200022FDF7DEF9206813A901224FF086
:103B4000FF33FDF709FF6069218B0122FDF7D2F9F0
:103B5000206818A902224FF0FF33FDF7FDFE48F25E
:103B60000820ADF85D0027208DF85F00B62260695F
:103B7000218B8DF84C200022FDF7BCF9206813A999
:103B800001224FF0FF33FDF7E7FE6069218B012230
:103B9000FDF7B0F920680DF15D0103224FF0FF330E
:103BA000FDF7DAFEF2226069218B8DF84C200022AD
:103BB0008DF85CB0FDF79EF9206813A901224FF043
:103BC000FF33FDF7C9FE6069218B0122FDF792F9F1
:103BD000206817A901224FF0FF33FDF7BDFE262212
:103BE0006069218B8DF84C2000228DF85B90FDF7E9
:103BF00081F9206813A901224FF0FF33FDF7ACFED5
:103C00006069218B0122FDF775F920680DF15B01D8
:103C100001224FF0FF33FDF79FFE43F20F10C0F675
:103C20002B40139040F60E00CFF24E10149040F24D
:103C30003770C0F21030159040F60E10ADF85800F5
:103C4000E0208DF83D006069218B00228DF85AB08C
:103C5000FDF750F920680DF13D0101224FF0FF33CF
:103C6000FDF77AFE6069218B0122FDF743F9206898
:103C700013A90F224FF0FF330F26FDF76DFE0E2024
:103C80008DF83E0014208DF83F00072008218DF8A4
:103C9000420031208DF846100C218DF843008DF83C
:103CA00048108DF84900E1226069218B8DF8405061
:103CB00011258DF87B2000228DF83DB08DF8415004
:103CC0008DF844A08DF845708DF847608DF84A80D6
:103CD0008DF84B60FDF70EF920680DF17B01012294
:103CE0004FF0FF33FDF738FE6069218B0122FDF7AD
:103CF00001F920680DF13D010F224FF0FF33FDF770
:103D00002BFE6069218B00228DF87B50FDF7F2F8C5
:103D100020680DF17B0101224FF0FF33FDF71CFEFF
:103D20007820FDF703F829226069218B8DF87B202C
:103D30000022FDF7DFF820680DF17B0101224FF032
:103D4000FF33FDF709FEA07E0022A0EB80010428CE
:103D500038BF07EB41176069218B8DF83C708DF8F7
:103D60007B80FDF7C7F820680DF17B0101224FF041
:103D7000FF33FDF7F1FD6069218B0122FDF7BAF8F1
:103D800020680FA901224FF0FF33FDF7E5FDE06841
:103D9000218A0122FDF7AEF820461FB0BDE8F08F62
:103DA000C268018A10460122FDF7A4B8C268018AE0
:103DB00010460022FDF79EB82DE9F04184B0DDF8F1
:103DC00028801E4615460F460446FFF7EFFF380AC7
:103DD0008DF80C00300A8DF80D708DF80E0003AFD1
:103DE00020464FF0FF312A2204238DF80F60009700
:103DF00000F058F8280A8DF808004FEA18208DF8CE
:103E00000A0002AF20464FF0FF312B2204238DF829
:103E100009508DF80B80009700F044F820464FF0D1
:103E2000FF312C2200F006F82046FFF7B9FF04B05E
:103E3000BDE8F08170B582B0044601298DF80720F5
:103E400020D820252426002908BF0C2508BF1026CD
:103E50006059A15B0022FDF74DF86069218B0022BB
:103E6000FDF748F820680DF1070101224FF0FF33FC
:103E7000FDF772FD6059A15B0122FDF73BF802B02E
:103E800070BD00BF6069218B0022FDF733F8206808
:103E90000DF1070101224FF0FF33FDF75DFD02B088
:103EA00070BD00002DE9F04381B0DDF82080994617
:103EB0001746012906462FD820252424002908BFAB
:103EC0000C2508BF10247059315B0022FDF712F851
:103ED0007069318B00228DF80270FDF70BF83068A5
:103EE0000DF1020101224FF0FF33FDF735FD70693E
:103EF000318B0122FCF7FEFF306841464A464FF005
:103F0000FF33FDF729FD7059315B0122FCF7F2FF09
:103F100001B0BDE8F08300BF7069318B00228DF8DD
:103F20000370FCF7E7FF30680DF1030101224FF049
:103F3000FF33FDF711FD7069318B0122FCF7DAFFC9
:103F4000306841464A464FF0FF33FDF705FD01B0AA
:103F5000BDE8F083002808BF7047B0B51D460B468A
:103F600071B16AB10446006811461A46FDF732FE87
:103F700035B100BF2068806CFCF7EEFC0228F9D058
:103F8000BDE8B040704700008AB0FCF7CDFFFEF7F7
:103F900019F9FDF731FFFDF713FFFDF78DFFFDF771
:103FA000AFFF40F20041C4F2020101F5806001223E
:103FB00000254024CDE9085203228023CDE90040AA
:103FC00041F22C40CDE90232C2F200004FF480628F
:103FD0000B46CDE9045506950795FFF749FB45F2D9
:103FE000F821C0F6000141F2A4350988C2F20005AB
:103FF0006860FFF72FFB05F108041420FCF796FE1C
:104000002878DFE800F0111F031700BF688A298AAB
:10401000421C686841EA0241224600F01FF800286D
:104020001CBF03202870E8E768682146FEF778FB8C
:1040300004E000BF68682146FEF796F90120287069
:10404000DBE700BFE9686868EA69296121462A62FE
:10405000FEF758FD02202870CFE700002DE9F04759
:1040600084B08246002040F21C030E468DF80E00FC
:10407000ADF80C00B2F90880B2F90A900F0C03AC4D
:1040800008B20914C2F2000315460094FEF7E6F9DF
:104090009DF80C0010B39DF80D002E81002818BF6C
:1040A0006F812878012820D1A6EB0803A7EB09002F
:1040B0001AB201B283EAE233A3EBE23380EAE130E1
:1040C000A0EBE1301B04B3EB004F17DD0D20002AFD
:1040D00048BF0C20FEF7A6FEC0B90AE09DF80D000F
:1040E00038B16F8128780128DED01020FEF79AFEC3
:1040F00060B99DF80E0004B0BDE8F0870F200029DC
:1041000048BF0E20FEF78EFE0028F2D0064645F28C
:10411000F820C0F6000001880A27504642464B4668
:1041200000970197FFF7C4F9B5F90800B0F5997F3A
:1041300003DA092802DC4FF498772F81B5F90A00D9
:10414000E62801DD0A2002E0092801DCE62068817A
:104150003788A86875883918013905EB1043D6F8F7
:104160000880020C9EB28BB281B250460096FFF7D7
:1041700023FE5046FFF71AFEDAF81400BAF81810BA
:104180000122FCF7B7FE07FB05F0400081B2504664
:1041900042460123FFF7DEFE5046FFF701FE9DF881
:1041A0000E0004B0BDE8F0872DE9F04F81B02DED91
:1041B000108B8AB09FEDBCCAB0EE608AB4EE4C0A98
:1041C000B0EE409A9A46F1EE10FA0592CDE9081049
:1041D00014D09FEDE70AB4EE409AF1EE10FA0DD03C
:1041E0009FEDE40AB4EE409AF1EE10FA06D09FED8E
:1041F000E20AB4EE409AF1EE10FA0DD119EE100A6F
:10420000FCF7BDF99FEDDE0B53EC102BFCF74CF8DF
:10421000FCF7C8F909EE100A249DB4EE4C8AF1EEC1
:1042200010FA14D09FEDD20AB4EE408AF1EE10FAE3
:104230000DD09FEDD00AB4EE408AF1EE10FA06D010
:104240009FEDCD0AB4EE408AF1EE10FA0DD118EED2
:10425000100AFCF794F99FEDCA0B53EC102BFCF7F6
:1042600023F8FCF79FF908EE100A9FEDE9AA29EE62
:104270000A0A10EE100AFCF782F941EC1B0BB0EEB3
:104280004B0AF0EE6B0A00F0F3F951EC100BFCF75F
:1042900089F928EE0A0A07460DEE100A10EE100AF8
:1042A000FCF76DF941EC1A0BB0EE4A0AF0EE6A0A1F
:1042B00000F0DEF951EC100BFCF774F906460EEE37
:1042C000100A3846FCF75BF9B0EE4B0AF0EE6B0AC9
:1042D00007460C4600F030FA53EC102B38462146C6
:1042E000FCF789F8FCF75EF906903046FCF747F9D1
:1042F000B0EE4A0AF0EE6A0A04460E4600F01CFAD6
:1043000053EC102B20463146FCF775F8FCF74AF9C0
:104310000490681E00B203900130029019EE100A5A
:10432000B6EE00BA0AF10106FCF729F9074618EEC5
:10433000100A8846FCF723F99FEDB10B54465AEC5E
:1043400010BB81460D46384641465A465346FBF758
:10435000ABFF4A462B46FCF7BDF868B96242012024
:10436000DDF820C00790B14620461746069B049D05
:10437000DDE9021E80E000BFB4EE498AF1EE10FADA
:1043800014DA484629465A465346FBF78DFF3A460B
:1043900043466542FCF7B9F860B10120DDF820C062
:1043A0000790B14620462F462A46DFE7DDF820C0B9
:1043B000624202E0DDF820C02A469FED940A069B87
:1043C000049DDDE9021EB4EE408AF1EE10FA04DA33
:1043D000B4EE4C8AF1EE10FA0CDAB4EE409AF1EE3B
:1043E00010FA4FF000072FDAB4EE4C9AF1EE10FA03
:1043F000B1461ADBB4EE4C9AB146F1EE10FAA8BF02
:104400004FF00109B4EE409AF1EE10FAA8BFB146A0
:10441000B4EE4C8AF1EE10FAB8BFB146B4EE408A61
:104420001746F1EE10FAA8BFB1469FED770AB4EE39
:10443000408AF1EE10FA0FDBB4EE409AF1EE10FA7A
:104440000ADB0020079017E0B1469FED6F0AB4EE3B
:10445000408AF1EE10FAEFDAB4EE409A1046F1EE2F
:1044600010FAB8BF0020B4EE408AF1EE10FAB8BFDF
:1044700002460020079020468BEE0DAA8BEE0EBA66
:104480009FED61EA0CEE103A0DEE105A01FB0EF8AA
:1044900006FB04FA1FFA8CF108919042D8BF10462F
:1044A000CDE903070AE000BF0000B4420698039973
:1044B000049F884200F1010200F09C80B7F1FF3FA9
:1044C00002FB02FB1CDC00BF07FB07B0504512DB00
:1044D000781C00FB00B151450CDBB81C00FB00B19F
:1044E000514507DBF81C00FB00B004375045EBDA00
:1044F000013F00E00746B9F1010F18BFC7F10109FC
:1045000000EE102A0598B8EEC00A3AEE001A30EE16
:104510004B0A104421EE0CFA60EE0D8A06B2002020
:10452000069204E001304F4507F10107BEDA07FBB0
:1045300007B4444528DA58B1089933463944081A73
:104540000DB202B209982599CDE90056FEF7B2FDE9
:104550005445ABDA3846002F48BF78424445B8BFCF
:10456000074600204F4507F10107E0DB9EE700BF4B
:1045700000003443000087430000B44300BF00BF85
:104580009A9999999999B9BFB4EE4E8A00EE107A2A
:10459000F1EE10FA4FF00003B4EE4E9AB8EEC00AF6
:1045A000B8BF0123F1EE10FA4FF00001F4EE408A9B
:1045B000A8BF0121F1EE10FAB4EE40FA4FF0000569
:1045C000A8BF0125F1EE10FA4FF00002A8BF0122AA
:1045D000914283EA050318BF002B05D15140079A89
:1045E000194311400129A6D14F45A4D0544599DB68
:1045F000A1E700BF0AB0BDEC108B01B0BDE8F08FA1
:104600000000000000806640000034430000874343
:1046100035FA8E3C0FB4084B10B504A902AA0398D2
:1046200000F018FD044602A9002000F07EFD20469F
:1046300010BC5DF814FB00002B51000803B4019876
:104640004100009850EAC12018BF04204A0D18BF4D
:1046500040F0010040F2FF72B2EB515F08BF40F042
:104660000200012808BF052002B0704700000000CA
:1046700010B52F499FED2C1B2DED020B84B0059832
:1046800020F000408842D8BF9DED040B2DDD294964
:10469000884209D1049840B94FF0010000F0D4FCE1
:1046A00000F0A2FC06B010BD05DB9DED040B00F090
:1046B0008FFC06B010BD68469DED040B00F0A0F81D
:1046C00010F0030004BF9DED021B9DED000B0CD00C
:1046D00001280ED09DED021B9DED000B022817D086
:1046E000012000F0DDFB06B010BD00F0A5FA06B019
:1046F00010BD9DED021B9DED000B012000F0D0FBD5
:1047000051EC100B81F0004106B041EC100B10BDD4
:1047100000F092FA51EC100B81F0004106B041EC30
:10472000100B10BD000000000000000000000000A1
:10473000FB21E93F0000F07F10B52F499FED2C1BB6
:104740002DED020B84B0059820F000408842DCBFBC
:1047500000209DED040B32DD2849884209D10498E0
:1047600040B94FF0010000F06FFC00F03DFC06B0D6
:1047700010BD05DB9DED040B00F02AFC06B010BD5A
:1047800068469DED040B00F03BF810F0030011D0DB
:10479000012818D09DED021B9DED000B02281AD0B8
:1047A00000F04AFA51EC100B81F0004106B041ECE8
:1047B000100B10BD9DED021B9DED000B012000F0C4
:1047C0006FFB06B010BD9DED021B9DED000B00F0D0
:1047D00033FA06B010BD012000F062FB51EC100B63
:1047E00081F0004106B041EC100B10BD000000004C
:1047F0000000000000000000FB21E93F0000F07F06
:104800002DE9F14F04462DED020B2DED088B8AB0FA
:104810009FEDE70B80ED020B139EE74826F0004565
:1048200085420ADC9DED120B002084ED000B0AB0DE
:10483000BDEC088B03B0BDE8F08FE0489FEDE0AB26
:104840009FEDE1BBA84247DDE14F9FEDE39B9FED6C
:10485000E48B9DED120B53EC1A2B51EC100B002E38
:104860001CDDFBF7C2FD41EC100BBD4208D053EC40
:104870001B2B51EC100BFBF7B8FDC4E900010BE05A
:1048800053EC192B51EC100BFBF7AFFD53EC182B2D
:10489000FBF7ABFDC4E900010120C8E7FBF704FD0D
:1048A00041EC100BBD4208D053EC1B2B51EC100B0C
:1048B000FBF7FAFCC4E900010BE053EC192B51ECB7
:1048C000100BFBF7F1FC53EC182BFBF7EDFCC4E9E4
:1048D00000014FF0FF30AAE7C348A84279DB9DED05
:1048E000120B51EC100B00F025FC41EC180B9FED66
:1048F000C00B53EC102BFBF736FF9FEDBF1B53ECA7
:10490000112BFBF7D1FCFBF71BFE0746FBF7B6FFAD
:1049100041EC190B53EC1A2BFBF725FF53EC182B2A
:10492000FBF766FD41EC180B53EC1B2B51EC190BFC
:10493000FBF719FFDFF8C8A241EC100B4FEA15583E
:104940000125FA4453EC102B51EC180BFBF74DFDED
:10495000032DC4E900013DD0C1F30A5005EB451118
:10496000A8EB00001139814234DA0AEB051BB0EEE6
:1049700048AA9BED000BF0EE68AA53EC102B51EC0B
:10498000190BFBF7F0FE41EC1B0B51EC1A0B53EC2F
:104990001B2BFBF72AFD41EC180B51EC1A0B53ECC7
:1049A000182BFBF722FD53EC1B2BFBF71EFD9BED99
:1049B000020B41EC1A0B53EC102B51EC190BFBF7CB
:1049C000D2FE53EC1A2BFBF710FD41EC100B6D1CC3
:1049D000B8E70EE0002EA8BF3846BFF628AF94ED2A
:1049E000000B51EC100B81F00041C4E9000178424A
:1049F0001DE7C6F3130040F4801EC6F30A50A0F270
:104A0000F530471100F01F05C5F12000DDF848B072
:104A100008900020069007900520EC467949002D6B
:104A200007EB0002794408BF51F8221009D051F871
:104A3000223001EB8201AB404A68089922FA01F169
:104A40001943A1FB0E26A1FB0B131A449A4234BF53
:104A50000123002303EB06080CEB8003D3E901A636
:104A60000E448E4234BF0121002192448A4411B188
:104A7000924502D903E0924501D2012100E00021D4
:104A8000C3E901A641444CF82010011EA0F1010029
:104A9000C4DC029800F10050850F0298DDE903673D
:104AA0008000DDF81480FBF7E9FE41EC1A0B30467C
:104AB000FBF7F5FE9FED541B53EC112BFBF753FE58
:104AC00041EC1B0B3846FBF7EAFE9FED511B53EC04
:104AD000112BFBF748FE41EC180B4046FBF7DFFEBD
:104AE0009FED4D1B53EC112BFBF73DFE41EC190BD9
:104AF00051EC180B53EC192BFBF7D6FB53EC1B2B8B
:104B0000FBF7D2FB53EC1A2BFBF7CEFBCDE90801E8
:104B1000002008909DED080B53EC1A2B51EC100B64
:104B2000FBF763FC53EC1B2BFBF75FFC53EC182BE0
:104B3000FBF75BFC53EC192BFBF75AFC9FED381B82
:104B400053EC112BFBF70FFE9FED370B41EC180BCD
:104B500053EC102B9DED080B51EC100BFBF703FEF3
:104B600053EC182BFBF7A0FB9FED310B41EC180B1E
:104B700053EC102B9DED080B51EC100BFBF7F3FDE4
:104B800053EC182BFBF790FB41EC100B139810F033
:104B9000004F06D06D4251EC100B81F0004141EC0A
:104BA000100B284684ED000B41E6000000000000D9
:104BB0000000000000000000FB21E93F7CD902401A
:104BC00000004054FB21F93F3163621A61B4D03DCB
:104BD000FB21F93F000000000000601A61B4D03DE5
:104BE0007370032E8A19A33BFB213941000000009A
:104BF00083C8C96D305FE43F000000000000E03F63
:104C0000A2080000F0070000000000000000103EB5
:104C1000000000000000103C000000000000103AFE
:104C2000182D4454FB21F93D3326A611460B113CA7
:104C300000000054FB21F93D10B52DED040B2DEDC6
:104C4000088B82B0B0EE419AF0EE619A0B9820F09A
:104C500000449FED4BABB4F1795F11DA9DED0A0B87
:104C600051EC100BFBF76CFC002801BFB0EE4A0AB8
:104C7000F0EE6A0A02B0BDEC088B04BF04B010BDB0
:104C80009DED0A0B53EC102B51EC100BFBF76BFD59
:104C900041EC180B3C480621B0EE480AF0EE680AD9
:104CA000784400F081F853EC182B51EC100BFBF713
:104CB0005AFD9DED0A0B41EC1B0B53EC192B51ECEB
:104CC000100BFBF750FD41EC190B53EC1B2B51EC77
:104CD000180BFBF748FD53EC192BFBF786FB9FEDF8
:104CE0002C0B41EC190B53EC102B51EC180BFBF770
:104CF0003AFD41EC100B2848844210DA53EC192B92
:104D000051EC100BFBF771FB53EC1A2BFBF770FB0C
:104D100041EC100B02B0BDEC088B04B010BD1F4875
:104D2000A042BCBF9FED1E1B8DED001B06DBA4F552
:104D300000100190002000909DED001B51EC100B25
:104D400053EC112BFBF751FB9DED000B41EC180BC5
:104D500053EC102B51EC1A0BFBF747FB41EC1A0BF1
:104D600053EC192B51EC180BFBF73FFB53EC1A2BB0
:104D7000FBF73EFB41EC100BCCE70000000000000D
:104D8000000000000000F03F1405000000000000DB
:104D9000000000000000E03F3333D33F0000E93F54
:104DA000000000000000D23F70B504462DED028BDC
:104DB0004D1E00EBC500B0EE408AF0EE608A90ED2B
:104DC000000B35F0060017D053EC182B51EC100BEC
:104DD000FBF7C9FC41EC100B6D1E04EBC50090ED18
:104DE000001B51EC100B53EC112BFBF75DFA41EC5F
:104DF000100B35F00600E7D1022D36D0042D1CD063
:104E0000062D1CBFBDEC028B70BD53EC182B51EC72
:104E1000100BFBF7A8FC94ED0A1B53EC112BFBF7CE
:104E200043FA53EC182BFBF79EFC94ED081B53EC54
:104E3000112BFBF739FA41EC100B53EC182B51EC0A
:104E4000100BFBF790FC94ED061B53EC112BFBF7BA
:104E50002BFA53EC182BFBF786FC94ED040B53EC68
:104E6000102BFBF721FA41EC100B53EC182B51ECF3
:104E7000100BFBF778FC94ED021B53EC112BFBF7A6
:104E800013FA53EC182BFBF76EFC94ED001B53EC5C
:104E9000112BFBF709FABDEC028B41EC100B70BD36
:104EA00031B504462DED040B2DED0A8BB0EE41BA61
:104EB000F0EE61BA0B989DED0A0B20F00040B0F1C6
:104EC000795F0DDA51EC100BFFF7B8FB042808BF2F
:104ED00000F09AF89DED0A0BBDEC0A8B05B030BDD1
:104EE00053EC102B51EC100BFBF73DFC41EC180B75
:104EF0009DED0A0B53EC182B51EC100BFBF733FC18
:104F000041EC190B2C48B0EE480AF0EE680A052176
:104F10007844FFF749FF9FED2ACBB0EE40AAF0EEB0
:104F200060AA9CB353EC1C2B51EC190BFBF71BFC38
:104F300041EC1C0B53EC1A2B51EC190BFBF713FC37
:104F40009FED210B41EC190B53EC102B51EC1B0B7B
:104F5000FBF709FC53EC192BFBF747FA53EC182B22
:104F6000FBF701FC53EC1B2BFBF73FFA53EC1C2B1C
:104F7000FBF73BFA9DED0A1B53EC112BFBF738FABC
:104F8000BDEC0A8B05B041EC100B30BDFFE753ECD4
:104F90001A2B51EC180BFBF7E6FB53EC1C2BFBF721
:104FA00083F953EC192BFBF7DEFB9DED0A1B53EC49
:104FB000112BFBF779F9E3E7A403000000000000E0
:104FC000495555555555C5BF000000000000E03F4C
:104FD00010B553EC102B51EC100BFBF765F941ECBD
:104FE000100B10BD000000009FED050B10B553EC39
:104FF000102B51EC100BFBF7FEF941EC100B10BD20
:1050000000000000000000009FED050B10B553EC00
:10501000102B51EC100BFBF7A6FB41EC100B10BD55
:10502000000000000000001002E008C8121F08C1C4
:10503000002AFAD170477047002001E001C1121F19
:10504000002AFBD17047000001490860704700004A
:105050000C0000202DE9F84F9946924688460546F7
:10506000002706E025280AD051464A4690476D1C85
:105070007F1C28780028F5D13846BDE8F88F00233A
:1050800015F8011F18462E2915D115F8011F042304
:105090002A290DD06FF02F022978A1F13004092CB4
:1050A00009D800EB800002EB400008446D1CF3E7D8
:1050B00058F8040B6D1C2A78002ADDD0632A07D02B
:1050C000732A0FD0104651464A4690477F1C2AE06B
:1050D00018F8042B8DF8002000218DF801106E4681
:1050E000012103E058F8046B4FF0FF315A074FF0ED
:1050F000000401D409E0641C84420BDA8C42FADB20
:10510000325D002AF7D105E0641C8C42FCDB305D87
:105110000028F9D1274404E016F8010B51464A460D
:105120009047641EF8D26D1CA3E70A68531C0B60FD
:105130001070704782B0CDE9000121F0004001906D
:105140009DED000B02B051EC100B7047F0B50B3029
:10515000154D20F007010024144A0FE003688B422C
:105160000BD38B4205D95E1A43184768C3E9006721
:1051700000E04368136002C004E0021D10680028CC
:10518000ECD12046002802D1286808B10020F0BDEB
:10519000064A07481060074A121A22F00702C0E9BF
:1051A000002401202860D7E7080000200400002028
:1051B000D41C0020D01E00204C5555555555A53FF8
:1051C0007751C1166CC156BF9015CB19A001FA3E9C
:1051D000AD529C804F7E92BEC4B1B4BD9EEE213EC6
:1051E000D43888BEE9FAA8BD00004054FB21F93F3D
:1051F0003163621A61B4D03D0000601A61B4D03DE1
:105200007370032E8A19A33B0000002E8A19A33B5A
:10521000C14920259A837B3900000000000000006E
:105220006E83F9A22915444ED15727FCC0DD34F511
:10523000999562DB4190433CAB6351FE61C5BBDE97
:105240003A6E24B7E0D24D42EA2E49061C92D109AB
:105250001CEB1DFE3EA729B1F53582E88444BB2E28
:1052600026709CE9417E5FB439D69139F439538375
:105270008B5F849C3B28F9BDFF97F81F0F9805DED4
:105280008B112FEF1F6D0A5ACF7E366DB709CB27D2
:10529000663F464F2DEA5F9EC7BA27757BF1E5EB67
:1052A000F739073DEA92528AB15FFB6B085D8D1FAB
:1052B0004630035600000000A6F810111111813F7E
:1052C000D561C119A0012ABF7DFEB157E31DC73EBC
:1052D000EB9C2B8AE6E55ABE7CD5CF5A3AD9E53D00
:1052E0000000000000000000010203040607080996
:1052F00000000000010203040000EF7B00F8FFFF44
:10530000E0FF00061016000610160B120000000049
:10531000000000000000000000000000000000008D
:10532000000000000000000000000000000000007D
:105330000000000C000C000C000C000C000C000C19
:10534000000C000C000C000C0000000C000C000015
:10535000000000000000001B001B001B001B001BC6
:10536000000000000000000000000000000000003D
:105370000000000000000000000080198019801962
:105380008019C07FC07F80190033C07FC07F003389
:105390000033003300330000000000000000001E56
:1053A000003F807580650074003C001E000780058A
:1053B000806580658075003F001E000400040000C9
:1053C0000000007000D840D8C0D880D90073000613
:1053D000000C801BC036C066C046C00680030000BB
:1053E000000000000000001E003F003300330033C7
:1053F000001E000CC03CC066806380618063C03EBC
:10540000801C0000000000000000000C000C000CDC
:10541000000C000C00000000000000000000000074
:1054200000000000000000000000000080000001FB
:105430000003000600060004000C000C000C000C29
:10544000000C000C000400060006000300018000B0
:10545000002000100018000C000C000400060006DC
:1054600000060006000600060004000C000C0018F0
:10547000001000200000000C002D003F001E003333
:10548000000000000000000000000000000000001C
:105490000000000000000000000000000000000C00
:1054A000000C000C000CC0FFC0FF000C000C000C36
:1054B000000C0000000000000000000000000000E0
:1054C00000000000000000000000000000000000DC
:1054D000000000000000000C000C000400040008A4
:1054E00000000000000000000000000000000000BC
:1054F0000000001E001E0000000000000000000070
:10550000000000000000000000000000000000009B
:105510000000000000000000000000000000000C7F
:10552000000C000000000000000000030003000366
:105530000006000600060006000C000C000C000C23
:105540000018001800180000000000000000001EF5
:10555000003F0033806180618061806D806D80617B
:10556000806180610033003F001E000000000000E9
:1055700000000006000E001E003600260006000691
:1055800000060006000600060006000600060000F1
:10559000000000000000001E003F807380618061F9
:1055A000800100030006000C001800300060807FBE
:1055B000807F0000000000000000001C003E00632F
:1055C00000630003000E000E000380018001806173
:1055D0008073003F001E0000000000000000000675
:1055E000000E000E001E001E00160036003600667B
:1055F000807F807F0006000600060000000000009B
:105600000000007F007F006000600060006E007F8F
:1056100080638001800180618073003F001E000074
:10562000000000000000001E003F80338061006029
:10563000006E007F80738061806180618033003FF5
:10564000001E0000000000000000807F807F8001BD
:105650000003000300060006000C000C000C00080C
:105660000018001800180000000000000000001ED4
:10567000003F8063806180610021001E003F8061E7
:10568000806180618061003F001E0000000000001A
:105690000000001E003F00738061806180618073A4
:1056A000803F801D800180610073003F001E00006C
:1056B0000000000000000000000000000000000CDE
:1056C000000C000000000000000000000000000CC2
:1056D000000C0000000000000000000000000000BE
:1056E00000000000000C000C0000000000000000A2
:1056F0000000000C000C0004000400080000000082
:105700000000000080008003000E003800600038B8
:10571000000E800380000000000000000000000078
:1057200000000000000000000000807F807F00007B
:105730000000807F807F000000000000000000006B
:1057400000000000000000000000000000400070A9
:10575000001C000780010007001C007000400000D2
:1057600000000000000000000000001F803FC0712A
:10577000C060C000C00180030007000E000C000CD8
:105780000000000C000C0000000000000000001EE3
:10579000003F803180718063806F806D806D806F8D
:1057A000806700600032003E001C00000000000026
:1057B0000000000E000E001B001B001B001B8031B0
:1057C0008031803F803F8031C060C060C060000099
:1057D000000000000000007C007E006300630063A6
:1057E0000063007E007E0063806180618063007FD3
:1057F000007E0000000000000000001E003F80311D
:105800008061006000600060006000600060806196
:105810008031003F001E0000000000000000007CFE
:10582000007F00638063806180618061806180614E
:10583000806100630063007E007C000000000000C7
:105840000000807F807F0060006000600060007F5B
:10585000007F0060006000600060807F807F00004B
:10586000000000000000807F807F0060006000601A
:105870000060007F007F00600060006000600060EA
:1058800000600000000000000000001E003F8031AA
:10589000806100600060006080638063806180617F
:1058A0008031803F001E0000000000000000806189
:1058B00080618061806180618061807F807F8061A4
:1058C0008061806180618061806100000000000073
:1058D0000000003F003F000C000C000C000C000C0E
:1058E000000C000C000C000C000C003F003F0000FE
:1058F0000000000000008001800180018001800123
:105900008001800180018001806180618073003F9F
:10591000001E0000000000000000C0608061006305
:1059200000660066006C0078007C0066006600631C
:1059300080618061C0600000000000000000006025
:105940000060006000600060006000600060006057
:10595000006000600060807F807F00000000000029
:105960000000C071C071C07BC07AC06AC06AC06EDE
:10597000C064C060C060C060C060C060C060000043
:10598000000000000000807180718079807980794A
:10599000806D806D806D80658067806780678063C3
:1059A00080630000000000000000001E003F003384
:1059B00080618061806180618061806180618061DF
:1059C0000033003F001E0000000000000000007EC9
:1059D000007F80638061806180618063007F007EE2
:1059E00000600060006000600060000000000000D7
:1059F0000000001E003F0033806180618061806193
:105A000080618061806580670033803F401E0000B8
:105A1000000000000000007E007F806380618061E4
:105A20008063007F007E00660063006380618061A8
:105A3000C0600000000000000000000E001F803168
:105A4000803100300038001E0007800380618061D3
:105A50008031003F001E0000000000000000C0FF79
:105A6000C0FF000C000C000C000C000C000C000C23
:105A7000000C000C000C000C000C000000000000EA
:105A800000008061806180618061806180618061EF
:105A900080618061806180618073003F001E000032
:105AA000000000000000C060C060C0608031803134
:105AB0008031001B001B001B001B000E000E000E9F
:105AC00000040000000000000000C0C0C0C0C0C052
:105AD000C0C0C0C0C0CC804C804C805E8052805220
